{
  "contractName": "App",
  "abi": [
    {
      "inputs": [],
      "payable": false,
      "stateMutability": "nonpayable",
      "type": "constructor"
    },
    {
      "anonymous": false,
      "inputs": [
        {
          "indexed": true,
          "internalType": "address",
          "name": "previousOwner",
          "type": "address"
        },
        {
          "indexed": true,
          "internalType": "address",
          "name": "newOwner",
          "type": "address"
        }
      ],
      "name": "OwnershipTransferred",
      "type": "event"
    },
    {
      "anonymous": false,
      "inputs": [
        {
          "indexed": false,
          "internalType": "string",
          "name": "providerName",
          "type": "string"
        },
        {
          "indexed": false,
          "internalType": "address",
          "name": "package",
          "type": "address"
        },
        {
          "indexed": false,
          "internalType": "uint64[3]",
          "name": "version",
          "type": "uint64[3]"
        }
      ],
      "name": "PackageChanged",
      "type": "event"
    },
    {
      "anonymous": false,
      "inputs": [
        {
          "indexed": false,
          "internalType": "address",
          "name": "proxy",
          "type": "address"
        }
      ],
      "name": "ProxyCreated",
      "type": "event"
    },
    {
      "constant": true,
      "inputs": [],
      "name": "isOwner",
      "outputs": [
        {
          "internalType": "bool",
          "name": "",
          "type": "bool"
        }
      ],
      "payable": false,
      "stateMutability": "view",
      "type": "function"
    },
    {
      "constant": true,
      "inputs": [],
      "name": "owner",
      "outputs": [
        {
          "internalType": "address",
          "name": "",
          "type": "address"
        }
      ],
      "payable": false,
      "stateMutability": "view",
      "type": "function"
    },
    {
      "constant": false,
      "inputs": [],
      "name": "renounceOwnership",
      "outputs": [],
      "payable": false,
      "stateMutability": "nonpayable",
      "type": "function"
    },
    {
      "constant": false,
      "inputs": [
        {
          "internalType": "address",
          "name": "newOwner",
          "type": "address"
        }
      ],
      "name": "transferOwnership",
      "outputs": [],
      "payable": false,
      "stateMutability": "nonpayable",
      "type": "function"
    },
    {
      "constant": true,
      "inputs": [
        {
          "internalType": "string",
          "name": "packageName",
          "type": "string"
        }
      ],
      "name": "getProvider",
      "outputs": [
        {
          "internalType": "contract ImplementationProvider",
          "name": "provider",
          "type": "address"
        }
      ],
      "payable": false,
      "stateMutability": "view",
      "type": "function"
    },
    {
      "constant": true,
      "inputs": [
        {
          "internalType": "string",
          "name": "packageName",
          "type": "string"
        }
      ],
      "name": "getPackage",
      "outputs": [
        {
          "internalType": "contract Package",
          "name": "",
          "type": "address"
        },
        {
          "internalType": "uint64[3]",
          "name": "",
          "type": "uint64[3]"
        }
      ],
      "payable": false,
      "stateMutability": "view",
      "type": "function"
    },
    {
      "constant": false,
      "inputs": [
        {
          "internalType": "string",
          "name": "packageName",
          "type": "string"
        },
        {
          "internalType": "contract Package",
          "name": "package",
          "type": "address"
        },
        {
          "internalType": "uint64[3]",
          "name": "version",
          "type": "uint64[3]"
        }
      ],
      "name": "setPackage",
      "outputs": [],
      "payable": false,
      "stateMutability": "nonpayable",
      "type": "function"
    },
    {
      "constant": false,
      "inputs": [
        {
          "internalType": "string",
          "name": "packageName",
          "type": "string"
        }
      ],
      "name": "unsetPackage",
      "outputs": [],
      "payable": false,
      "stateMutability": "nonpayable",
      "type": "function"
    },
    {
      "constant": true,
      "inputs": [
        {
          "internalType": "string",
          "name": "packageName",
          "type": "string"
        },
        {
          "internalType": "string",
          "name": "contractName",
          "type": "string"
        }
      ],
      "name": "getImplementation",
      "outputs": [
        {
          "internalType": "address",
          "name": "",
          "type": "address"
        }
      ],
      "payable": false,
      "stateMutability": "view",
      "type": "function"
    },
    {
      "constant": false,
      "inputs": [
        {
          "internalType": "string",
          "name": "packageName",
          "type": "string"
        },
        {
          "internalType": "string",
          "name": "contractName",
          "type": "string"
        },
        {
          "internalType": "address",
          "name": "admin",
          "type": "address"
        },
        {
          "internalType": "bytes",
          "name": "data",
          "type": "bytes"
        }
      ],
      "name": "create",
      "outputs": [
        {
          "internalType": "contract AdminUpgradeabilityProxy",
          "name": "",
          "type": "address"
        }
      ],
      "payable": true,
      "stateMutability": "payable",
      "type": "function"
    }
  ],
  "bytecode": "0x608060405234801561001057600080fd5b50600080546001600160a01b03191633178082556040516001600160a01b039190911691907f8be0079c531659141344cd1fd0a4f28419497f9722a3daafe3b4186f6b6457e0908290a3611df1806100696000396000f3fe608060405260043610620000c25760003560e01c80638da5cb5b1162000073578063ad358d991162000055578063ad358d99146200053b578063cd3e318a14620005f5578063f2fde38b14620007c657620000c2565b80638da5cb5b14620004f75780638f32d59b146200050f57620000c2565b8063715018a611620000a9578063715018a614620002e157806371eb64cc14620002fb57806387c6048314620003f357620000c2565b806327a0d66914620000c757806350cadc851462000227575b600080fd5b348015620000d457600080fd5b506200020b60048036036040811015620000ed57600080fd5b8101906020810181356401000000008111156200010957600080fd5b8201836020820111156200011c57600080fd5b803590602001918460018302840111640100000000831117156200013f57600080fd5b91908080601f01602080910402602001604051908101604052809392919081815260200183838082843760009201919091525092959493602081019350359150506401000000008111156200019357600080fd5b820183602082011115620001a657600080fd5b80359060200191846001830284011164010000000083111715620001c957600080fd5b91908080601f016020809104026020016040519081016040528093929190818152602001838380828437600092019190915250929550620007fd945050505050565b604080516001600160a01b039092168252519081900360200190f35b3480156200023457600080fd5b506200020b600480360360208110156200024d57600080fd5b8101906020810181356401000000008111156200026957600080fd5b8201836020820111156200027c57600080fd5b803590602001918460018302840111640100000000831117156200029f57600080fd5b91908080601f01602080910402602001604051908101604052809392919081815260200183838082843760009201919091525092955062000920945050505050565b348015620002ee57600080fd5b50620002f962000a8c565b005b3480156200030857600080fd5b50620002f9600480360360a08110156200032157600080fd5b8101906020810181356401000000008111156200033d57600080fd5b8201836020820111156200035057600080fd5b803590602001918460018302840111640100000000831117156200037357600080fd5b91908080601f0160208091040260200160405190810160405280939291908181526020018383808284376000920191909152505060408051606081810190925293966001600160a01b038635169690959094608082019450925060200190600390839083908082843760009201919091525091945062000af79350505050565b3480156200040057600080fd5b50620004ad600480360360208110156200041957600080fd5b8101906020810181356401000000008111156200043557600080fd5b8201836020820111156200044857600080fd5b803590602001918460018302840111640100000000831117156200046b57600080fd5b91908080601f01602080910402602001604051908101604052809392919081815260200183838082843760009201919091525092955062000da6945050505050565b6040516001600160a01b03831681526020810182606080838360005b83811015620004e3578181015183820152602001620004c9565b505050509050019250505060405180910390f35b3480156200050457600080fd5b506200020b62000e94565b3480156200051c57600080fd5b506200052762000ea4565b604080519115158252519081900360200190f35b3480156200054857600080fd5b50620002f9600480360360208110156200056157600080fd5b8101906020810181356401000000008111156200057d57600080fd5b8201836020820111156200059057600080fd5b80359060200191846001830284011164010000000083111715620005b357600080fd5b91908080601f01602080910402602001604051908101604052809392919081815260200183838082843760009201919091525092955062000eb5945050505050565b6200020b600480360360808110156200060d57600080fd5b8101906020810181356401000000008111156200062957600080fd5b8201836020820111156200063c57600080fd5b803590602001918460018302840111640100000000831117156200065f57600080fd5b91908080601f0160208091040260200160405190810160405280939291908181526020018383808284376000920191909152509295949360208101935035915050640100000000811115620006b357600080fd5b820183602082011115620006c657600080fd5b80359060200191846001830284011164010000000083111715620006e957600080fd5b91908080601f01602080910402602001604051908101604052809392919081815260200183838082843760009201919091525092956001600160a01b038535169590949093506040810192506020013590506401000000008111156200074e57600080fd5b8201836020820111156200076157600080fd5b803590602001918460018302840111640100000000831117156200078457600080fd5b91908080601f01602080910402602001604051908101604052809392919081815260200183838082843760009201919091525092955062001119945050505050565b348015620007d357600080fd5b50620002f960048036036020811015620007ec57600080fd5b50356001600160a01b031662001245565b6000806200080b8462000920565b90506001600160a01b038116620008275760009150506200091a565b6040517f6b6838960000000000000000000000000000000000000000000000000000000081526020600482018181528551602484015285516001600160a01b03851693636b6838969388939283926044019185019080838360005b838110156200089c57818101518382015260200162000882565b50505050905090810190601f168015620008ca5780820380516001836020036101000a031916815260200191505b509250505060206040518083038186803b158015620008e857600080fd5b505afa158015620008fd573d6000803e3d6000fd5b505050506040513d60208110156200091457600080fd5b50519150505b92915050565b6000806001836040518082805190602001908083835b60208310620009575780518252601f19909201916020918201910162000936565b51815160209384036101000a6000190180199092169116179052920194855250604051938490030190922080549093506001600160a01b031615159150620009a6905057600091505062000a87565b80546040517f1df40eaa0000000000000000000000000000000000000000000000000000000081526001600160a01b0390911690631df40eaa9060018401906004810190606401826000835b82829054906101000a900467ffffffffffffffff1667ffffffffffffffff1681526020019060080190602082600701049283019260010382029150808411620009f2579050505091505060206040518083038186803b15801562000a5557600080fd5b505afa15801562000a6a573d6000803e3d6000fd5b505050506040513d602081101562000a8157600080fd5b50519150505b919050565b62000a9662000ea4565b62000aa057600080fd5b600080546040516001600160a01b03909116907f8be0079c531659141344cd1fd0a4f28419497f9722a3daafe3b4186f6b6457e0908390a36000805473ffffffffffffffffffffffffffffffffffffffff19169055565b62000b0162000ea4565b62000b0b57600080fd5b6040517f35ce40160000000000000000000000000000000000000000000000000000000081526001600160a01b038316906335ce40169083906004018082606080838360005b8381101562000b6b57818101518382015260200162000b51565b5050505090500191505060206040518083038186803b15801562000b8e57600080fd5b505afa15801562000ba3573d6000803e3d6000fd5b505050506040513d602081101562000bba57600080fd5b505162000bf95760405162461bcd60e51b815260040180806020018281038252603d81526020018062001d80603d913960400191505060405180910390fd5b6040518060400160405280836001600160a01b03168152602001828152506001846040518082805190602001908083835b6020831062000c4b5780518252601f19909201916020918201910162000c2a565b51815160209384036101000a60001901801990921691161790529201948552506040519384900381019093208451815473ffffffffffffffffffffffffffffffffffffffff19166001600160a01b039091161781559284015162000cb892506001840191506003620012e3565b509050507f4ca1964bc3cd347906bc558f77fdd636486951cf12238150178be72a4fbb6fab8383836040518080602001846001600160a01b03166001600160a01b0316815260200183600360200280838360005b8381101562000d2657818101518382015260200162000d0c565b50505050905001828103825285818151815260200191508051906020019080838360005b8381101562000d6457818101518382015260200162000d4a565b50505050905090810190601f16801562000d925780820380516001836020036101000a031916815260200191505b5094505050505060405180910390a1505050565b600062000db262001392565b60006001846040518082805190602001908083835b6020831062000de85780518252601f19909201916020918201910162000dc7565b51815160209384036101000a600019018019909216911617905292019485525060408051948590039091018420805460608601928390529095506001600160a01b03169360018601935091508290600390826000855b82829054906101000a900467ffffffffffffffff1667ffffffffffffffff168152602001906008019060208260070104928301926001038202915080841162000e3e579050505050505090509250925050915091565b6000546001600160a01b03165b90565b6000546001600160a01b0316331490565b62000ebf62000ea4565b62000ec957600080fd5b60006001600160a01b03166001826040518082805190602001908083835b6020831062000f085780518252601f19909201916020918201910162000ee7565b51815160209384036101000a60001901801990921691161790529201948552506040519384900301909220546001600160a01b03169290921415915062000f989050576040805162461bcd60e51b815260206004820152601a60248201527f5061636b61676520746f20756e736574206e6f7420666f756e64000000000000604482015290519081900360640190fd5b6001816040518082805190602001908083835b6020831062000fcc5780518252601f19909201916020918201910162000fab565b51815160209384036101000a60001901801990921691161790529201948552506040519384900301909220805473ffffffffffffffffffffffffffffffffffffffff19168155915060009050620010276001830182620013b0565b505060408051606080820183526000808352602080840182905283850182905284519081018290527f4ca1964bc3cd347906bc558f77fdd636486951cf12238150178be72a4fbb6fab948694929382918201908490808383895b838110156200109b57818101518382015260200162001081565b50505050905001828103825285818151815260200191508051906020019080838360005b83811015620010d9578181015183820152602001620010bf565b50505050905090810190601f168015620011075780820380516001836020036101000a031916815260200191505b5094505050505060405180910390a150565b600080620011288686620007fd565b90506000348286866040516200113e90620013b7565b80846001600160a01b03166001600160a01b03168152602001836001600160a01b03166001600160a01b0316815260200180602001828103825283818151815260200191508051906020019080838360005b83811015620011aa57818101518382015260200162001190565b50505050905090810190601f168015620011d85780820380516001836020036101000a031916815260200191505b509450505050506040518091039082f080158015620011fb573d6000803e3d6000fd5b50604080516001600160a01b038316815290519193507efffc2da0b561cae30d9826d37709e9421c4725faebc226cbbb7ef5fc5e7349925081900360200190a19695505050505050565b6200124f62000ea4565b6200125957600080fd5b620012648162001267565b50565b6001600160a01b0381166200127b57600080fd5b600080546040516001600160a01b03808516939216917f8be0079c531659141344cd1fd0a4f28419497f9722a3daafe3b4186f6b6457e091a36000805473ffffffffffffffffffffffffffffffffffffffff19166001600160a01b0392909216919091179055565b600183019183908215620013805791602002820160005b838211156200134857835183826101000a81548167ffffffffffffffff021916908367ffffffffffffffff1602179055509260200192600801602081600701049283019260010302620012fa565b80156200137e5782816101000a81549067ffffffffffffffff021916905560080160208160070104928301926001030262001348565b505b506200138e929150620013c5565b5090565b60405180606001604052806003906020820280388339509192915050565b5060009055565b61099280620013ee83390190565b62000ea191905b808211156200138e57805467ffffffffffffffff19168155600101620013cc56fe60806040526040516109923803806109928339818101604052606081101561002657600080fd5b8151602083015160408085018051915193959294830192918464010000000082111561005157600080fd5b90830190602082018581111561006657600080fd5b825164010000000081118282018810171561008057600080fd5b82525081516020918201929091019080838360005b838110156100ad578181015183820152602001610095565b50505050905090810190601f1680156100da5780820380516001836020036101000a031916815260200191505b5060408181527f656970313936372e70726f78792e696d706c656d656e746174696f6e0000000082525190819003601c01902086935084925060008051602061093783398151915260001990910114905061013157fe5b610143826001600160e01b0361026516565b8051156101fb576000826001600160a01b0316826040518082805190602001908083835b602083106101865780518252601f199092019160209182019101610167565b6001836020036101000a038019825116818451168082178552505050505050905001915050600060405180830381855af49150503d80600081146101e6576040519150601f19603f3d011682016040523d82523d6000602084013e6101eb565b606091505b50509050806101f957600080fd5b505b5050604080517f656970313936372e70726f78792e61646d696e00000000000000000000000000815290519081900360130190206000805160206109178339815191526000199091011461024b57fe5b61025d826001600160e01b036102c516565b5050506102dd565b610278816102d760201b61054d1760201c565b6102b35760405162461bcd60e51b815260040180806020018281038252603b815260200180610957603b913960400191505060405180910390fd5b60008051602061093783398151915255565b60008051602061091783398151915255565b3b151590565b61062b806102ec6000396000f3fe60806040526004361061005a5760003560e01c80635c60da1b116100435780635c60da1b146101175780638f28397014610148578063f851a4401461017b5761005a565b80633659cfe6146100645780634f1ef28614610097575b610062610190565b005b34801561007057600080fd5b506100626004803603602081101561008757600080fd5b50356001600160a01b03166101aa565b610062600480360360408110156100ad57600080fd5b6001600160a01b0382351691908101906040810160208201356401000000008111156100d857600080fd5b8201836020820111156100ea57600080fd5b8035906020019184600183028401116401000000008311171561010c57600080fd5b5090925090506101e4565b34801561012357600080fd5b5061012c610291565b604080516001600160a01b039092168252519081900360200190f35b34801561015457600080fd5b506100626004803603602081101561016b57600080fd5b50356001600160a01b03166102ce565b34801561018757600080fd5b5061012c610388565b6101986103b3565b6101a86101a3610413565b610438565b565b6101b261045c565b6001600160a01b0316336001600160a01b031614156101d9576101d481610481565b6101e1565b6101e1610190565b50565b6101ec61045c565b6001600160a01b0316336001600160a01b031614156102845761020e83610481565b6000836001600160a01b031683836040518083838082843760405192019450600093509091505080830381855af49150503d806000811461026b576040519150601f19603f3d011682016040523d82523d6000602084013e610270565b606091505b505090508061027e57600080fd5b5061028c565b61028c610190565b505050565b600061029b61045c565b6001600160a01b0316336001600160a01b031614156102c3576102bc610413565b90506102cb565b6102cb610190565b90565b6102d661045c565b6001600160a01b0316336001600160a01b031614156101d9576001600160a01b0381166103345760405162461bcd60e51b81526004018080602001828103825260368152602001806105866036913960400191505060405180910390fd5b7f7e644d79422f17c01e4894b5f4f588d331ebfa28653d42ae832dc59e38c9798f61035d61045c565b604080516001600160a01b03928316815291841660208301528051918290030190a16101d4816104c1565b600061039261045c565b6001600160a01b0316336001600160a01b031614156102c3576102bc61045c565b6103bb61045c565b6001600160a01b0316336001600160a01b0316141561040b5760405162461bcd60e51b81526004018080602001828103825260328152602001806105546032913960400191505060405180910390fd5b6101a86101a8565b7f360894a13ba1a3210667c828492db98dca3e2076cc3735a920a3ca505d382bbc5490565b3660008037600080366000845af43d6000803e808015610457573d6000f35b3d6000fd5b7fb53127684a568b3173ae13b9f8a6016e243e63b6e8ee1178d6a717850b5d61035490565b61048a816104e5565b6040516001600160a01b038216907fbc7cd75a20ee27fd9adebab32041f755214dbc6bffa90cc0225b39da2e5c2d3b90600090a250565b7fb53127684a568b3173ae13b9f8a6016e243e63b6e8ee1178d6a717850b5d610355565b6104ee8161054d565b6105295760405162461bcd60e51b815260040180806020018281038252603b8152602001806105bc603b913960400191505060405180910390fd5b7f360894a13ba1a3210667c828492db98dca3e2076cc3735a920a3ca505d382bbc55565b3b15159056fe43616e6e6f742063616c6c2066616c6c6261636b2066756e6374696f6e2066726f6d207468652070726f78792061646d696e43616e6e6f74206368616e6765207468652061646d696e206f6620612070726f787920746f20746865207a65726f206164647265737343616e6e6f742073657420612070726f787920696d706c656d656e746174696f6e20746f2061206e6f6e2d636f6e74726163742061646472657373a265627a7a72315820151384b895aac7dd34279a5905008a4a75240fe7370601932309be26f0e7257b64736f6c63430005100032b53127684a568b3173ae13b9f8a6016e243e63b6e8ee1178d6a717850b5d6103360894a13ba1a3210667c828492db98dca3e2076cc3735a920a3ca505d382bbc43616e6e6f742073657420612070726f787920696d706c656d656e746174696f6e20746f2061206e6f6e2d636f6e74726163742061646472657373546865207265717565737465642076657273696f6e206d757374206265207265676973746572656420696e2074686520676976656e207061636b616765a265627a7a723158204749b77aaaaebb95a6379d0e41bebff21091d3aaf52dd55ab3a6ab6f4a06ba0264736f6c63430005100032",
  "source": "pragma solidity ^0.5.0;\n\nimport \"./ImplementationProvider.sol\";\nimport \"./Package.sol\";\nimport \"../upgradeability/AdminUpgradeabilityProxy.sol\";\nimport \"../ownership/Ownable.sol\";\n\n/**\n * @title App\n * @dev Contract for upgradeable applications.\n * It handles the creation of proxies.\n */\ncontract App is OpenZeppelinUpgradesOwnable {\n  /**\n   * @dev Emitted when a new proxy is created.\n   * @param proxy Address of the created proxy.\n   */\n  event ProxyCreated(address proxy);\n\n  /**\n   * @dev Emitted when a package dependency is changed in the application.\n   * @param providerName Name of the package that changed.\n   * @param package Address of the package associated to the name.\n   * @param version Version of the package in use.\n   */\n  event PackageChanged(string providerName, address package, uint64[3] version);\n\n  /**\n   * @dev Tracks a package in a particular version, used for retrieving implementations\n   */\n  struct ProviderInfo {\n    Package package;\n    uint64[3] version;\n  }\n\n  /**\n   * @dev Maps from dependency name to a tuple of package and version\n   */\n  mapping(string => ProviderInfo) internal providers;\n\n  /**\n   * @dev Constructor function.\n   */\n  constructor() public { }\n\n  /**\n   * @dev Returns the provider for a given package name, or zero if not set.\n   * @param packageName Name of the package to be retrieved.\n   * @return The provider.\n   */\n  function getProvider(string memory packageName) public view returns (ImplementationProvider provider) {\n    ProviderInfo storage info = providers[packageName];\n    if (address(info.package) == address(0)) return ImplementationProvider(0);\n    return ImplementationProvider(info.package.getContract(info.version));\n  }\n\n  /**\n   * @dev Returns information on a package given its name.\n   * @param packageName Name of the package to be queried.\n   * @return A tuple with the package address and pinned version given a package name, or zero if not set\n   */\n  function getPackage(string memory packageName) public view returns (Package, uint64[3] memory) {\n    ProviderInfo storage info = providers[packageName];\n    return (info.package, info.version);\n  }\n\n  /**\n   * @dev Sets a package in a specific version as a dependency for this application.\n   * Requires the version to be present in the package.\n   * @param packageName Name of the package to set or overwrite.\n   * @param package Address of the package to register.\n   * @param version Version of the package to use in this application.\n   */\n  function setPackage(string memory packageName, Package package, uint64[3] memory version) public onlyOwner {\n    require(package.hasVersion(version), \"The requested version must be registered in the given package\");\n    providers[packageName] = ProviderInfo(package, version);\n    emit PackageChanged(packageName, address(package), version);\n  }\n\n  /**\n   * @dev Unsets a package given its name.\n   * Reverts if the package is not set in the application.\n   * @param packageName Name of the package to remove.\n   */\n  function unsetPackage(string memory packageName) public onlyOwner {\n    require(address(providers[packageName].package) != address(0), \"Package to unset not found\");\n    delete providers[packageName];\n    emit PackageChanged(packageName, address(0), [uint64(0), uint64(0), uint64(0)]);\n  }\n\n  /**\n   * @dev Returns the implementation address for a given contract name, provided by the `ImplementationProvider`.\n   * @param packageName Name of the package where the contract is contained.\n   * @param contractName Name of the contract.\n   * @return Address where the contract is implemented.\n   */\n  function getImplementation(string memory packageName, string memory contractName) public view returns (address) {\n    ImplementationProvider provider = getProvider(packageName);\n    if (address(provider) == address(0)) return address(0);\n    return provider.getImplementation(contractName);\n  }\n\n  /**\n   * @dev Creates a new proxy for the given contract and forwards a function call to it.\n   * This is useful to initialize the proxied contract.\n   * @param packageName Name of the package where the contract is contained.\n   * @param contractName Name of the contract.\n   * @param admin Address of the proxy administrator.\n   * @param data Data to send as msg.data to the corresponding implementation to initialize the proxied contract.\n   * It should include the signature and the parameters of the function to be called, as described in\n   * https://solidity.readthedocs.io/en/v0.4.24/abi-spec.html#function-selector-and-argument-encoding.\n   * This parameter is optional, if no data is given the initialization call to proxied contract will be skipped.\n   * @return Address of the new proxy.\n   */\n   function create(string memory packageName, string memory contractName, address admin, bytes memory data) payable public returns (AdminUpgradeabilityProxy) {\n     address implementation = getImplementation(packageName, contractName);\n     AdminUpgradeabilityProxy proxy = (new AdminUpgradeabilityProxy).value(msg.value)(implementation, admin, data);\n     emit ProxyCreated(address(proxy));\n     return proxy;\n  }\n}\n",
  "sourcePath": "@openzeppelin/upgrades/contracts/application/App.sol",
  "compiler": {
    "name": "solc",
    "version": "0.5.16+commit.9c3226ce.Emscripten.clang"
  },
  "schemaVersion": "3.2.2",
  "updatedAt": "2020-08-17T13:56:44.477Z",
  "devdoc": {
    "details": "Contract for upgradeable applications. It handles the creation of proxies.",
    "methods": {
      "constructor": {
        "details": "Constructor function."
      },
      "create(string,string,address,bytes)": {
        "details": "Creates a new proxy for the given contract and forwards a function call to it. This is useful to initialize the proxied contract.",
        "params": {
          "admin": "Address of the proxy administrator.",
          "contractName": "Name of the contract.",
          "data": "Data to send as msg.data to the corresponding implementation to initialize the proxied contract. It should include the signature and the parameters of the function to be called, as described in https://solidity.readthedocs.io/en/v0.4.24/abi-spec.html#function-selector-and-argument-encoding. This parameter is optional, if no data is given the initialization call to proxied contract will be skipped.",
          "packageName": "Name of the package where the contract is contained."
        },
        "return": "Address of the new proxy."
      },
      "getImplementation(string,string)": {
        "details": "Returns the implementation address for a given contract name, provided by the `ImplementationProvider`.",
        "params": {
          "contractName": "Name of the contract.",
          "packageName": "Name of the package where the contract is contained."
        },
        "return": "Address where the contract is implemented."
      },
      "getPackage(string)": {
        "details": "Returns information on a package given its name.",
        "params": {
          "packageName": "Name of the package to be queried."
        },
        "return": "A tuple with the package address and pinned version given a package name, or zero if not set"
      },
      "getProvider(string)": {
        "details": "Returns the provider for a given package name, or zero if not set.",
        "params": {
          "packageName": "Name of the package to be retrieved."
        },
        "return": "The provider."
      },
      "isOwner()": {
        "return": "true if `msg.sender` is the owner of the contract."
      },
      "owner()": {
        "return": "the address of the owner."
      },
      "renounceOwnership()": {
        "details": "Allows the current owner to relinquish control of the contract."
      },
      "setPackage(string,address,uint64[3])": {
        "details": "Sets a package in a specific version as a dependency for this application. Requires the version to be present in the package.",
        "params": {
          "package": "Address of the package to register.",
          "packageName": "Name of the package to set or overwrite.",
          "version": "Version of the package to use in this application."
        }
      },
      "transferOwnership(address)": {
        "details": "Allows the current owner to transfer control of the contract to a newOwner.",
        "params": {
          "newOwner": "The address to transfer ownership to."
        }
      },
      "unsetPackage(string)": {
        "details": "Unsets a package given its name. Reverts if the package is not set in the application.",
        "params": {
          "packageName": "Name of the package to remove."
        }
      }
    },
    "title": "App"
  },
  "userdoc": {
    "methods": {
      "renounceOwnership()": {
        "notice": "Renouncing to ownership will leave the contract without an owner. It will not be possible to call the functions with the `onlyOwner` modifier anymore."
      }
    }
  }
}