{
  "contractName": "CarbonVCU",
  "abi": [
    {
      "inputs": [],
      "payable": false,
      "stateMutability": "nonpayable",
      "type": "constructor"
    },
    {
      "anonymous": false,
      "inputs": [
        {
          "indexed": true,
          "internalType": "address",
          "name": "owner",
          "type": "address"
        },
        {
          "indexed": true,
          "internalType": "address",
          "name": "approved",
          "type": "address"
        },
        {
          "indexed": true,
          "internalType": "uint256",
          "name": "tokenId",
          "type": "uint256"
        }
      ],
      "name": "Approval",
      "type": "event"
    },
    {
      "anonymous": false,
      "inputs": [
        {
          "indexed": true,
          "internalType": "address",
          "name": "owner",
          "type": "address"
        },
        {
          "indexed": true,
          "internalType": "address",
          "name": "operator",
          "type": "address"
        },
        {
          "indexed": false,
          "internalType": "bool",
          "name": "approved",
          "type": "bool"
        }
      ],
      "name": "ApprovalForAll",
      "type": "event"
    },
    {
      "anonymous": false,
      "inputs": [
        {
          "indexed": false,
          "internalType": "string",
          "name": "name",
          "type": "string"
        },
        {
          "indexed": false,
          "internalType": "string",
          "name": "symbol",
          "type": "string"
        },
        {
          "indexed": false,
          "internalType": "address",
          "name": "creolSuper",
          "type": "address"
        }
      ],
      "name": "CarbonVCUCreated",
      "type": "event"
    },
    {
      "anonymous": false,
      "inputs": [
        {
          "indexed": true,
          "internalType": "address",
          "name": "account",
          "type": "address"
        }
      ],
      "name": "MinterAdded",
      "type": "event"
    },
    {
      "anonymous": false,
      "inputs": [
        {
          "indexed": true,
          "internalType": "address",
          "name": "account",
          "type": "address"
        }
      ],
      "name": "MinterRemoved",
      "type": "event"
    },
    {
      "anonymous": false,
      "inputs": [
        {
          "indexed": true,
          "internalType": "address",
          "name": "previousOwner",
          "type": "address"
        },
        {
          "indexed": true,
          "internalType": "address",
          "name": "newOwner",
          "type": "address"
        }
      ],
      "name": "OwnershipTransferred",
      "type": "event"
    },
    {
      "anonymous": false,
      "inputs": [
        {
          "indexed": true,
          "internalType": "address",
          "name": "from",
          "type": "address"
        },
        {
          "indexed": true,
          "internalType": "address",
          "name": "to",
          "type": "address"
        },
        {
          "indexed": true,
          "internalType": "uint256",
          "name": "tokenId",
          "type": "uint256"
        }
      ],
      "name": "Transfer",
      "type": "event"
    },
    {
      "anonymous": false,
      "inputs": [
        {
          "indexed": false,
          "internalType": "uint256",
          "name": "VCUID",
          "type": "uint256"
        },
        {
          "indexed": false,
          "internalType": "address",
          "name": "VCUSubToken",
          "type": "address"
        }
      ],
      "name": "VCUMinted",
      "type": "event"
    },
    {
      "anonymous": false,
      "inputs": [
        {
          "indexed": false,
          "internalType": "address",
          "name": "VCUSubToken",
          "type": "address"
        }
      ],
      "name": "VCUSubTokenDeployed",
      "type": "event"
    },
    {
      "anonymous": false,
      "inputs": [
        {
          "indexed": false,
          "internalType": "address",
          "name": "VCUSubtokeFactory",
          "type": "address"
        }
      ],
      "name": "VCUSubTokenFactoryUpdated",
      "type": "event"
    },
    {
      "anonymous": false,
      "inputs": [
        {
          "indexed": false,
          "internalType": "address",
          "name": "_proxyAdmin",
          "type": "address"
        }
      ],
      "name": "newProxyAdmin",
      "type": "event"
    },
    {
      "anonymous": false,
      "inputs": [
        {
          "indexed": false,
          "internalType": "string",
          "name": "_newTokenURI",
          "type": "string"
        },
        {
          "indexed": false,
          "internalType": "uint256",
          "name": "_VCUSerialIdx",
          "type": "uint256"
        }
      ],
      "name": "newTokenURI",
      "type": "event"
    },
    {
      "constant": false,
      "inputs": [
        {
          "internalType": "address",
          "name": "account",
          "type": "address"
        }
      ],
      "name": "addMinter",
      "outputs": [],
      "payable": false,
      "stateMutability": "nonpayable",
      "type": "function"
    },
    {
      "constant": false,
      "inputs": [
        {
          "internalType": "address",
          "name": "to",
          "type": "address"
        },
        {
          "internalType": "uint256",
          "name": "tokenId",
          "type": "uint256"
        }
      ],
      "name": "approve",
      "outputs": [],
      "payable": false,
      "stateMutability": "nonpayable",
      "type": "function"
    },
    {
      "constant": true,
      "inputs": [
        {
          "internalType": "address",
          "name": "owner",
          "type": "address"
        }
      ],
      "name": "balanceOf",
      "outputs": [
        {
          "internalType": "uint256",
          "name": "",
          "type": "uint256"
        }
      ],
      "payable": false,
      "stateMutability": "view",
      "type": "function"
    },
    {
      "constant": true,
      "inputs": [],
      "name": "baseURI",
      "outputs": [
        {
          "internalType": "string",
          "name": "",
          "type": "string"
        }
      ],
      "payable": false,
      "stateMutability": "view",
      "type": "function"
    },
    {
      "constant": true,
      "inputs": [],
      "name": "creolSuper",
      "outputs": [
        {
          "internalType": "address",
          "name": "",
          "type": "address"
        }
      ],
      "payable": false,
      "stateMutability": "view",
      "type": "function"
    },
    {
      "constant": true,
      "inputs": [
        {
          "internalType": "uint256",
          "name": "tokenId",
          "type": "uint256"
        }
      ],
      "name": "getApproved",
      "outputs": [
        {
          "internalType": "address",
          "name": "",
          "type": "address"
        }
      ],
      "payable": false,
      "stateMutability": "view",
      "type": "function"
    },
    {
      "constant": false,
      "inputs": [
        {
          "internalType": "string",
          "name": "name",
          "type": "string"
        },
        {
          "internalType": "string",
          "name": "symbol",
          "type": "string"
        }
      ],
      "name": "initialize",
      "outputs": [],
      "payable": false,
      "stateMutability": "nonpayable",
      "type": "function"
    },
    {
      "constant": false,
      "inputs": [],
      "name": "initialize",
      "outputs": [],
      "payable": false,
      "stateMutability": "nonpayable",
      "type": "function"
    },
    {
      "constant": false,
      "inputs": [
        {
          "internalType": "address",
          "name": "sender",
          "type": "address"
        }
      ],
      "name": "initialize",
      "outputs": [],
      "payable": false,
      "stateMutability": "nonpayable",
      "type": "function"
    },
    {
      "constant": true,
      "inputs": [
        {
          "internalType": "address",
          "name": "owner",
          "type": "address"
        },
        {
          "internalType": "address",
          "name": "operator",
          "type": "address"
        }
      ],
      "name": "isApprovedForAll",
      "outputs": [
        {
          "internalType": "bool",
          "name": "",
          "type": "bool"
        }
      ],
      "payable": false,
      "stateMutability": "view",
      "type": "function"
    },
    {
      "constant": true,
      "inputs": [
        {
          "internalType": "address",
          "name": "account",
          "type": "address"
        }
      ],
      "name": "isMinter",
      "outputs": [
        {
          "internalType": "bool",
          "name": "",
          "type": "bool"
        }
      ],
      "payable": false,
      "stateMutability": "view",
      "type": "function"
    },
    {
      "constant": true,
      "inputs": [],
      "name": "isOwner",
      "outputs": [
        {
          "internalType": "bool",
          "name": "",
          "type": "bool"
        }
      ],
      "payable": false,
      "stateMutability": "view",
      "type": "function"
    },
    {
      "constant": false,
      "inputs": [
        {
          "internalType": "address",
          "name": "to",
          "type": "address"
        },
        {
          "internalType": "uint256",
          "name": "tokenId",
          "type": "uint256"
        },
        {
          "internalType": "string",
          "name": "tokenURI",
          "type": "string"
        }
      ],
      "name": "mintWithTokenURI",
      "outputs": [
        {
          "internalType": "bool",
          "name": "",
          "type": "bool"
        }
      ],
      "payable": false,
      "stateMutability": "nonpayable",
      "type": "function"
    },
    {
      "constant": true,
      "inputs": [],
      "name": "name",
      "outputs": [
        {
          "internalType": "string",
          "name": "",
          "type": "string"
        }
      ],
      "payable": false,
      "stateMutability": "view",
      "type": "function"
    },
    {
      "constant": true,
      "inputs": [],
      "name": "owner",
      "outputs": [
        {
          "internalType": "address",
          "name": "",
          "type": "address"
        }
      ],
      "payable": false,
      "stateMutability": "view",
      "type": "function"
    },
    {
      "constant": true,
      "inputs": [
        {
          "internalType": "uint256",
          "name": "tokenId",
          "type": "uint256"
        }
      ],
      "name": "ownerOf",
      "outputs": [
        {
          "internalType": "address",
          "name": "",
          "type": "address"
        }
      ],
      "payable": false,
      "stateMutability": "view",
      "type": "function"
    },
    {
      "constant": false,
      "inputs": [],
      "name": "renounceMinter",
      "outputs": [],
      "payable": false,
      "stateMutability": "nonpayable",
      "type": "function"
    },
    {
      "constant": false,
      "inputs": [],
      "name": "renounceOwnership",
      "outputs": [],
      "payable": false,
      "stateMutability": "nonpayable",
      "type": "function"
    },
    {
      "constant": false,
      "inputs": [
        {
          "internalType": "address",
          "name": "from",
          "type": "address"
        },
        {
          "internalType": "address",
          "name": "to",
          "type": "address"
        },
        {
          "internalType": "uint256",
          "name": "tokenId",
          "type": "uint256"
        }
      ],
      "name": "safeTransferFrom",
      "outputs": [],
      "payable": false,
      "stateMutability": "nonpayable",
      "type": "function"
    },
    {
      "constant": false,
      "inputs": [
        {
          "internalType": "address",
          "name": "from",
          "type": "address"
        },
        {
          "internalType": "address",
          "name": "to",
          "type": "address"
        },
        {
          "internalType": "uint256",
          "name": "tokenId",
          "type": "uint256"
        },
        {
          "internalType": "bytes",
          "name": "_data",
          "type": "bytes"
        }
      ],
      "name": "safeTransferFrom",
      "outputs": [],
      "payable": false,
      "stateMutability": "nonpayable",
      "type": "function"
    },
    {
      "constant": false,
      "inputs": [
        {
          "internalType": "address",
          "name": "to",
          "type": "address"
        },
        {
          "internalType": "bool",
          "name": "approved",
          "type": "bool"
        }
      ],
      "name": "setApprovalForAll",
      "outputs": [],
      "payable": false,
      "stateMutability": "nonpayable",
      "type": "function"
    },
    {
      "constant": true,
      "inputs": [
        {
          "internalType": "bytes4",
          "name": "interfaceId",
          "type": "bytes4"
        }
      ],
      "name": "supportsInterface",
      "outputs": [
        {
          "internalType": "bool",
          "name": "",
          "type": "bool"
        }
      ],
      "payable": false,
      "stateMutability": "view",
      "type": "function"
    },
    {
      "constant": true,
      "inputs": [],
      "name": "symbol",
      "outputs": [
        {
          "internalType": "string",
          "name": "",
          "type": "string"
        }
      ],
      "payable": false,
      "stateMutability": "view",
      "type": "function"
    },
    {
      "constant": true,
      "inputs": [
        {
          "internalType": "uint256",
          "name": "index",
          "type": "uint256"
        }
      ],
      "name": "tokenByIndex",
      "outputs": [
        {
          "internalType": "uint256",
          "name": "",
          "type": "uint256"
        }
      ],
      "payable": false,
      "stateMutability": "view",
      "type": "function"
    },
    {
      "constant": true,
      "inputs": [
        {
          "internalType": "uint256",
          "name": "",
          "type": "uint256"
        }
      ],
      "name": "tokenIDtoSubtokenAddress",
      "outputs": [
        {
          "internalType": "address",
          "name": "",
          "type": "address"
        }
      ],
      "payable": false,
      "stateMutability": "view",
      "type": "function"
    },
    {
      "constant": true,
      "inputs": [
        {
          "internalType": "uint256",
          "name": "",
          "type": "uint256"
        }
      ],
      "name": "tokenIDtoVCUMetadata",
      "outputs": [
        {
          "internalType": "uint256",
          "name": "VCUID",
          "type": "uint256"
        },
        {
          "internalType": "uint256",
          "name": "VCUSerialIdx",
          "type": "uint256"
        },
        {
          "internalType": "string",
          "name": "VCUClass",
          "type": "string"
        },
        {
          "internalType": "uint256",
          "name": "VVBID",
          "type": "uint256"
        },
        {
          "internalType": "string",
          "name": "VCSRegistry",
          "type": "string"
        },
        {
          "internalType": "string",
          "name": "projectCountryCode",
          "type": "string"
        },
        {
          "internalType": "uint256",
          "name": "scopeNumber",
          "type": "uint256"
        },
        {
          "internalType": "uint256",
          "name": "projectIdentifier",
          "type": "uint256"
        },
        {
          "internalType": "uint256",
          "name": "startDate",
          "type": "uint256"
        },
        {
          "internalType": "uint256",
          "name": "endDate",
          "type": "uint256"
        },
        {
          "internalType": "uint256",
          "name": "additionalCertInfo",
          "type": "uint256"
        }
      ],
      "payable": false,
      "stateMutability": "view",
      "type": "function"
    },
    {
      "constant": true,
      "inputs": [
        {
          "internalType": "address",
          "name": "owner",
          "type": "address"
        },
        {
          "internalType": "uint256",
          "name": "index",
          "type": "uint256"
        }
      ],
      "name": "tokenOfOwnerByIndex",
      "outputs": [
        {
          "internalType": "uint256",
          "name": "",
          "type": "uint256"
        }
      ],
      "payable": false,
      "stateMutability": "view",
      "type": "function"
    },
    {
      "constant": true,
      "inputs": [
        {
          "internalType": "uint256",
          "name": "tokenId",
          "type": "uint256"
        }
      ],
      "name": "tokenURI",
      "outputs": [
        {
          "internalType": "string",
          "name": "",
          "type": "string"
        }
      ],
      "payable": false,
      "stateMutability": "view",
      "type": "function"
    },
    {
      "constant": true,
      "inputs": [],
      "name": "totalSupply",
      "outputs": [
        {
          "internalType": "uint256",
          "name": "",
          "type": "uint256"
        }
      ],
      "payable": false,
      "stateMutability": "view",
      "type": "function"
    },
    {
      "constant": false,
      "inputs": [
        {
          "internalType": "address",
          "name": "from",
          "type": "address"
        },
        {
          "internalType": "address",
          "name": "to",
          "type": "address"
        },
        {
          "internalType": "uint256",
          "name": "tokenId",
          "type": "uint256"
        }
      ],
      "name": "transferFrom",
      "outputs": [],
      "payable": false,
      "stateMutability": "nonpayable",
      "type": "function"
    },
    {
      "constant": false,
      "inputs": [
        {
          "internalType": "address",
          "name": "newOwner",
          "type": "address"
        }
      ],
      "name": "transferOwnership",
      "outputs": [],
      "payable": false,
      "stateMutability": "nonpayable",
      "type": "function"
    },
    {
      "constant": false,
      "inputs": [
        {
          "internalType": "string",
          "name": "name",
          "type": "string"
        },
        {
          "internalType": "string",
          "name": "symbol",
          "type": "string"
        },
        {
          "internalType": "address",
          "name": "_creolSuper",
          "type": "address"
        },
        {
          "internalType": "address",
          "name": "_VCUSubTokenFactory",
          "type": "address"
        }
      ],
      "name": "initializeConstruct",
      "outputs": [],
      "payable": false,
      "stateMutability": "nonpayable",
      "type": "function"
    },
    {
      "constant": false,
      "inputs": [
        {
          "internalType": "address",
          "name": "_forOwner",
          "type": "address"
        },
        {
          "internalType": "uint256",
          "name": "_VCUID",
          "type": "uint256"
        },
        {
          "internalType": "string",
          "name": "_tokenMetadata",
          "type": "string"
        },
        {
          "internalType": "uint256",
          "name": "_VCUSerialIdx",
          "type": "uint256"
        },
        {
          "internalType": "string",
          "name": "_VCUClass",
          "type": "string"
        },
        {
          "internalType": "uint256",
          "name": "_VVBID",
          "type": "uint256"
        },
        {
          "internalType": "string",
          "name": "_VCSRegistry",
          "type": "string"
        },
        {
          "internalType": "string",
          "name": "_projectCountryCode",
          "type": "string"
        },
        {
          "internalType": "uint256",
          "name": "_scopeNumber",
          "type": "uint256"
        },
        {
          "internalType": "uint256",
          "name": "_projectIdentifier",
          "type": "uint256"
        },
        {
          "internalType": "uint256",
          "name": "_startDate",
          "type": "uint256"
        },
        {
          "internalType": "uint256",
          "name": "_endDate",
          "type": "uint256"
        },
        {
          "internalType": "uint256",
          "name": "_additionalCertInfo",
          "type": "uint256"
        }
      ],
      "name": "mintVCU",
      "outputs": [],
      "payable": false,
      "stateMutability": "nonpayable",
      "type": "function"
    },
    {
      "constant": false,
      "inputs": [
        {
          "internalType": "address",
          "name": "_forOwner",
          "type": "address"
        },
        {
          "internalType": "uint256",
          "name": "_VCUSerialIdx",
          "type": "uint256"
        },
        {
          "internalType": "uint256",
          "name": "_amount",
          "type": "uint256"
        }
      ],
      "name": "approveBurns",
      "outputs": [],
      "payable": false,
      "stateMutability": "nonpayable",
      "type": "function"
    },
    {
      "constant": false,
      "inputs": [
        {
          "internalType": "uint256",
          "name": "_VCUSerialIdx",
          "type": "uint256"
        }
      ],
      "name": "isOffset",
      "outputs": [
        {
          "internalType": "bool",
          "name": "_isOffset",
          "type": "bool"
        }
      ],
      "payable": false,
      "stateMutability": "nonpayable",
      "type": "function"
    },
    {
      "constant": true,
      "inputs": [
        {
          "internalType": "uint256",
          "name": "_VCUSerialIdx",
          "type": "uint256"
        }
      ],
      "name": "gettokenIDtoSubtokenAddress",
      "outputs": [
        {
          "internalType": "address",
          "name": "_subtokenAddress",
          "type": "address"
        }
      ],
      "payable": false,
      "stateMutability": "view",
      "type": "function"
    },
    {
      "constant": false,
      "inputs": [
        {
          "internalType": "address",
          "name": "_newVCUTokenFactory",
          "type": "address"
        }
      ],
      "name": "updateVCUSubtokenFactory",
      "outputs": [],
      "payable": false,
      "stateMutability": "nonpayable",
      "type": "function"
    },
    {
      "constant": false,
      "inputs": [
        {
          "internalType": "address",
          "name": "_proxyAdmin",
          "type": "address"
        }
      ],
      "name": "setProxyAdmin",
      "outputs": [],
      "payable": false,
      "stateMutability": "nonpayable",
      "type": "function"
    },
    {
      "constant": false,
      "inputs": [
        {
          "internalType": "string",
          "name": "_newTokenURI",
          "type": "string"
        },
        {
          "internalType": "uint256",
          "name": "_VCUSerialIdx",
          "type": "uint256"
        }
      ],
      "name": "setNFTUri",
      "outputs": [],
      "payable": false,
      "stateMutability": "nonpayable",
      "type": "function"
    }
  ],
  "bytecode": "0x608060405234801561001057600080fd5b5061413a806100206000396000f3fe608060405234801561001057600080fd5b50600436106102ad5760003560e01c80636c0360eb1161017b578063aa271e1a116100d8578063caaa248e1161008c578063ea34b02c11610071578063ea34b02c14610e18578063ecc6453d14610f5b578063f2fde38b14610f8d576102ad565b8063caaa248e14610b72578063e985e9c514610dea576102ad565b8063b88d4fde116100bd578063b88d4fde14610a69578063c4d66de814610b2f578063c87b56dd14610b55576102ad565b8063aa271e1a14610a1d578063b1ee815414610a43576102ad565b80638f32d59b1161012f578063983b2d5611610114578063983b2d56146109c157806398650275146109e7578063a22cb465146109ef576102ad565b80638f32d59b146109b157806395d89b41146109b9576102ad565b8063715018a611610160578063715018a6146109995780638129fc1c146109a15780638da5cb5b146109a9576102ad565b80636c0360eb1461096b57806370a0823114610973576102ad565b806325bf0264116102295780634cd88b76116101dd57806350bb4e7f116101c257806350bb4e7f146106fa57806354ee9d2c146107b55780636352211e1461094e576102ad565b80634cd88b76146105b05780634f6ccce7146106dd576102ad565b806337800b221161020e57806337800b221461054c57806342842e0e1461055457806347c026611461058a576102ad565b806325bf0264146104785780632f745c5914610520576102ad565b8063095ea7b31161028057806318160ddd1161026557806318160ddd1461040b57806322d6a9401461042557806323b872dd14610442576102ad565b8063095ea7b3146103c0578063176744a9146103ee576102ad565b806301ffc9a7146102b257806303022158146102ed57806306fdde0314610326578063081812fc146103a3575b600080fd5b6102d9600480360360208110156102c857600080fd5b50356001600160e01b031916610fb3565b604080519115158252519081900360200190f35b61030a6004803603602081101561030357600080fd5b5035610fd6565b604080516001600160a01b039092168252519081900360200190f35b61032e610ff2565b6040805160208082528351818301528351919283929083019185019080838360005b83811015610368578181015183820152602001610350565b50505050905090810190601f1680156103955780820380516001836020036101000a031916815260200191505b509250505060405180910390f35b61030a600480360360208110156103b957600080fd5b503561108a565b6103ec600480360360408110156103d657600080fd5b506001600160a01b0381351690602001356110ec565b005b6102d96004803603602081101561040457600080fd5b5035611214565b610413611338565b60408051918252519081900360200190f35b61030a6004803603602081101561043b57600080fd5b503561133e565b6103ec6004803603606081101561045857600080fd5b506001600160a01b0381358116916020810135909116906040013561135a565b6103ec6004803603604081101561048e57600080fd5b8101906020810181356401000000008111156104a957600080fd5b8201836020820111156104bb57600080fd5b803590602001918460018302840111640100000000831117156104dd57600080fd5b91908080601f01602080910402602001604051908101604052809392919081815260200183838082843760009201919091525092955050913592506113b6915050565b6104136004803603604081101561053657600080fd5b506001600160a01b03813516906020013561147d565b61030a6114fc565b6103ec6004803603606081101561056a57600080fd5b506001600160a01b0381358116916020810135909116906040013561150c565b6103ec600480360360208110156105a057600080fd5b50356001600160a01b0316611527565b6103ec600480360360408110156105c657600080fd5b8101906020810181356401000000008111156105e157600080fd5b8201836020820111156105f357600080fd5b8035906020019184600183028401116401000000008311171561061557600080fd5b91908080601f016020809104026020016040519081016040528093929190818152602001838380828437600092019190915250929594936020810193503591505064010000000081111561066857600080fd5b82018360208201111561067a57600080fd5b8035906020019184600183028401116401000000008311171561069c57600080fd5b91908080601f016020809104026020016040519081016040528093929190818152602001838380828437600092019190915250929550611594945050505050565b610413600480360360208110156106f357600080fd5b5035611682565b6102d96004803603606081101561071057600080fd5b6001600160a01b038235169160208101359181019060608101604082013564010000000081111561074057600080fd5b82018360208201111561075257600080fd5b8035906020019184600183028401116401000000008311171561077457600080fd5b91908080601f0160208091040260200160405190810160405280939291908181526020018383808284376000920191909152509295506116e8945050505050565b6107d2600480360360208110156107cb57600080fd5b5035611753565b604051808c81526020018b8152602001806020018a8152602001806020018060200189815260200188815260200187815260200186815260200185815260200184810384528d818151815260200191508051906020019080838360005b8381101561084757818101518382015260200161082f565b50505050905090810190601f1680156108745780820380516001836020036101000a031916815260200191505b5084810383528b5181528b516020918201918d019080838360005b838110156108a757818101518382015260200161088f565b50505050905090810190601f1680156108d45780820380516001836020036101000a031916815260200191505b5084810382528a5181528a516020918201918c019080838360005b838110156109075781810151838201526020016108ef565b50505050905090810190601f1680156109345780820380516001836020036101000a031916815260200191505b509e50505050505050505050505050505060405180910390f35b61030a6004803603602081101561096457600080fd5b5035611942565b61032e61199c565b6104136004803603602081101561098957600080fd5b50356001600160a01b03166119fe565b6103ec611a66565b6103ec611b09565b61030a611be5565b6102d9611bf4565b61032e611c1a565b6103ec600480360360208110156109d757600080fd5b50356001600160a01b0316611c7c565b6103ec611ccb565b6103ec60048036036040811015610a0557600080fd5b506001600160a01b0381351690602001351515611cdd565b6102d960048036036020811015610a3357600080fd5b50356001600160a01b0316611de2565b6103ec60048036036020811015610a5957600080fd5b50356001600160a01b0316611df6565b6103ec60048036036080811015610a7f57600080fd5b6001600160a01b03823581169260208101359091169160408201359190810190608081016060820135640100000000811115610aba57600080fd5b820183602082011115610acc57600080fd5b80359060200191846001830284011164010000000083111715610aee57600080fd5b91908080601f016020809104026020016040519081016040528093929190818152602001838380828437600092019190915250929550611e63945050505050565b6103ec60048036036020811015610b4557600080fd5b50356001600160a01b0316611ec1565b61032e60048036036020811015610b6b57600080fd5b5035611f8f565b6103ec60048036036101a0811015610b8957600080fd5b6001600160a01b0382351691602081013591810190606081016040820135640100000000811115610bb957600080fd5b820183602082011115610bcb57600080fd5b80359060200191846001830284011164010000000083111715610bed57600080fd5b91908080601f01602080910402602001604051908101604052809392919081815260200183838082843760009201919091525092958435959094909350604081019250602001359050640100000000811115610c4857600080fd5b820183602082011115610c5a57600080fd5b80359060200191846001830284011164010000000083111715610c7c57600080fd5b91908080601f01602080910402602001604051908101604052809392919081815260200183838082843760009201919091525092958435959094909350604081019250602001359050640100000000811115610cd757600080fd5b820183602082011115610ce957600080fd5b80359060200191846001830284011164010000000083111715610d0b57600080fd5b91908080601f0160208091040260200160405190810160405280939291908181526020018383808284376000920191909152509295949360208101935035915050640100000000811115610d5e57600080fd5b820183602082011115610d7057600080fd5b80359060200191846001830284011164010000000083111715610d9257600080fd5b91908080601f016020809104026020016040519081016040528093929190818152602001838380828437600092019190915250929550508235935050506020810135906040810135906060810135906080013561215d565b6102d960048036036040811015610e0057600080fd5b506001600160a01b038135811691602001351661232b565b6103ec60048036036080811015610e2e57600080fd5b810190602081018135640100000000811115610e4957600080fd5b820183602082011115610e5b57600080fd5b80359060200191846001830284011164010000000083111715610e7d57600080fd5b91908080601f0160208091040260200160405190810160405280939291908181526020018383808284376000920191909152509295949360208101935035915050640100000000811115610ed057600080fd5b820183602082011115610ee257600080fd5b80359060200191846001830284011164010000000083111715610f0457600080fd5b91908080601f016020809104026020016040519081016040528093929190818152602001838380828437600092019190915250929550506001600160a01b0383358116945060209093013590921691506123599050565b6103ec60048036036060811015610f7157600080fd5b506001600160a01b0381351690602081013590604001356125a4565b6103ec60048036036020811015610fa357600080fd5b50356001600160a01b031661269f565b6001600160e01b0319811660009081526066602052604090205460ff165b919050565b60009081526101a360205260409020546001600160a01b031690565b6101058054604080516020601f600260001961010060018816150201909516949094049384018190048102820181019092528281526060939092909183018282801561107f5780601f106110545761010080835404028352916020019161107f565b820191906000526020600020905b81548152906001019060200180831161106257829003601f168201915b505050505090505b90565b600061109582612701565b6110d05760405162461bcd60e51b815260040180806020018281038252602c815260200180613f88602c913960400191505060405180910390fd5b506000908152609a60205260409020546001600160a01b031690565b60006110f782611942565b9050806001600160a01b0316836001600160a01b0316141561114a5760405162461bcd60e51b81526004018080602001828103825260218152602001806140886021913960400191505060405180910390fd5b806001600160a01b031661115c61271e565b6001600160a01b0316148061117d575061117d8161117861271e565b61232b565b6111b85760405162461bcd60e51b8152600401808060200182810382526038815260200180613eac6038913960400191505060405180910390fd5b6000828152609a602052604080822080546001600160a01b0319166001600160a01b0387811691821790925591518593918516917f8c5be1e5ebec7d5bd14f71427d1e84f3dd0314c0f7b2291e5b200ac8c7c3b92591a4505050565b60008181526101a4602052604081205460ff16156112eb5760008281526101a360209081526040808320546101a080546001600160a01b0319166001600160a01b03928316179081905582517f18160ddd00000000000000000000000000000000000000000000000000000000815292519116926318160ddd9260048082019391829003018186803b1580156112a957600080fd5b505afa1580156112bd573d6000803e3d6000fd5b505050506040513d60208110156112d357600080fd5b505111156112e357506000610fd1565b506001610fd1565b6040805162461bcd60e51b815260206004820152600d60248201527f4e6f7420546f6b656e697a656400000000000000000000000000000000000000604482015290519081900360640190fd5b60d15490565b6101a3602052600090815260409020546001600160a01b031681565b61136b61136561271e565b82612722565b6113a65760405162461bcd60e51b81526004018080602001828103825260318152602001806140a96031913960400191505060405180910390fd5b6113b18383836127c6565b505050565b6101a1546001600160a01b031633146113ce57600080fd5b6113d881836127e5565b7f494a53eebee19e39b93ae1822525e9de631c507c18750d8c6da554f499e6c11382826040518080602001838152602001828103825284818151815260200191508051906020019080838360005b8381101561143e578181015183820152602001611426565b50505050905090810190601f16801561146b5780820380516001836020036101000a031916815260200191505b50935050505060405180910390a15050565b6000611488836119fe565b82106114c55760405162461bcd60e51b815260040180806020018281038252602b815260200180613dad602b913960400191505060405180910390fd5b6001600160a01b038316600090815260cf602052604090208054839081106114e957fe5b9060005260206000200154905092915050565b6101a1546001600160a01b031681565b6113b183838360405180602001604052806000815250611e63565b6101a1546001600160a01b0316331461153f57600080fd5b6101a680546001600160a01b0383166001600160a01b0319909116811790915560408051918252517f6946d4ce6ea07b42684d639cbf6ac64603390f99027f1e4fc7fb2ad95eb182d69181900360200190a150565b600054610100900460ff16806115ad57506115ad612849565b806115bb575060005460ff16155b6115f65760405162461bcd60e51b815260040180806020018281038252602e815260200180614002602e913960400191505060405180910390fd5b600054610100900460ff16158015611621576000805460ff1961ff0019909116610100171660011790555b61162961284f565b61163257600080fd5b825161164690610105906020860190613cf4565b50815161165b90610106906020850190613cf4565b5061166c635b5e139f60e01b612866565b80156113b1576000805461ff0019169055505050565b600061168c611338565b82106116c95760405162461bcd60e51b815260040180806020018281038252602c8152602001806140da602c913960400191505060405180910390fd5b60d182815481106116d657fe5b90600052602060002001549050919050565b60006116fa6116f561271e565b611de2565b6117355760405162461bcd60e51b8152600401808060200182810382526030815260200180613f376030913960400191505060405180910390fd5b61173f84846128ea565b61174983836127e5565b5060019392505050565b6101a26020908152600091825260409182902080546001808301546002808501805488519481161561010002600019011691909104601f8101879004870284018701909752868352929590949192918301828280156117f35780601f106117c8576101008083540402835291602001916117f3565b820191906000526020600020905b8154815290600101906020018083116117d657829003601f168201915b50505050600383015460048401805460408051602060026001851615610100026000190190941693909304601f8101849004840282018401909252818152959693959394509083018282801561188a5780601f1061185f5761010080835404028352916020019161188a565b820191906000526020600020905b81548152906001019060200180831161186d57829003601f168201915b5050505060058301805460408051602060026001851615610100026000190190941693909304601f810184900484028201840190925281815294959493509083018282801561191a5780601f106118ef5761010080835404028352916020019161191a565b820191906000526020600020905b8154815290600101906020018083116118fd57829003601f168201915b50505050509080600601549080600701549080600801549080600901549080600a015490508b565b6000818152609960205260408120546001600160a01b0316806119965760405162461bcd60e51b8152600401808060200182810382526029815260200180613f0e6029913960400191505060405180910390fd5b92915050565b6101088054604080516020601f600260001961010060018816150201909516949094049384018190048102820181019092528281526060939092909183018282801561107f5780601f106110545761010080835404028352916020019161107f565b60006001600160a01b038216611a455760405162461bcd60e51b815260040180806020018281038252602a815260200180613ee4602a913960400191505060405180910390fd5b6001600160a01b0382166000908152609b6020526040902061199690612907565b611a6e611bf4565b611abf576040805162461bcd60e51b815260206004820181905260248201527f4f776e61626c653a2063616c6c6572206973206e6f7420746865206f776e6572604482015290519081900360640190fd5b6033546040516000916001600160a01b0316907f8be0079c531659141344cd1fd0a4f28419497f9722a3daafe3b4186f6b6457e0908390a3603380546001600160a01b0319169055565b600054610100900460ff1680611b225750611b22612849565b80611b30575060005460ff16155b611b6b5760405162461bcd60e51b815260040180806020018281038252602e815260200180614002602e913960400191505060405180910390fd5b600054610100900460ff16158015611b96576000805460ff1961ff0019909116610100171660011790555b611b9e61284f565b611ba757600080fd5b611bd07f780e9d6300000000000000000000000000000000000000000000000000000000612866565b8015611be2576000805461ff00191690555b50565b6033546001600160a01b031690565b6033546000906001600160a01b0316611c0b61271e565b6001600160a01b031614905090565b6101068054604080516020601f600260001961010060018816150201909516949094049384018190048102820181019092528281526060939092909183018282801561107f5780601f106110545761010080835404028352916020019161107f565b611c876116f561271e565b611cc25760405162461bcd60e51b8152600401808060200182810382526030815260200180613f376030913960400191505060405180910390fd5b611be28161290b565b611cdb611cd661271e565b612954565b565b611ce561271e565b6001600160a01b0316826001600160a01b03161415611d4b576040805162461bcd60e51b815260206004820152601960248201527f4552433732313a20617070726f766520746f2063616c6c657200000000000000604482015290519081900360640190fd5b80609c6000611d5861271e565b6001600160a01b03908116825260208083019390935260409182016000908120918716808252919093529120805460ff191692151592909217909155611d9c61271e565b60408051841515815290516001600160a01b0392909216917f17307eab39ab6107e8899845ad3d59bd9653f200f220920489ca2b5937696c319181900360200190a35050565b600061199661013a8363ffffffff61299d16565b6101a1546001600160a01b03163314611e0e57600080fd5b61019f80546001600160a01b0383166001600160a01b0319909116811790915560408051918252517f2a88bf6cb5e3644acac1f197e3b062333d9b1802c59594b9bcb3fd3b8f97a16a9181900360200190a150565b611e74611e6e61271e565b83612722565b611eaf5760405162461bcd60e51b81526004018080602001828103825260318152602001806140a96031913960400191505060405180910390fd5b611ebb84848484612a04565b50505050565b600054610100900460ff1680611eda5750611eda612849565b80611ee8575060005460ff16155b611f235760405162461bcd60e51b815260040180806020018281038252602e815260200180614002602e913960400191505060405180910390fd5b600054610100900460ff16158015611f4e576000805460ff1961ff0019909116610100171660011790555b611f5661284f565b611f5f57600080fd5b611f67612a56565b611f7057600080fd5b611f7982612a68565b8015611f8b576000805461ff00191690555b5050565b6060611f9a82612701565b611fd55760405162461bcd60e51b815260040180806020018281038252602f815260200180614059602f913960400191505060405180910390fd5b6000828152610107602090815260409182902080548351601f600260001961010060018616150201909316929092049182018490048402810184019094528084526060939283018282801561206b5780601f106120405761010080835404028352916020019161206b565b820191906000526020600020905b81548152906001019060200180831161204e57829003601f168201915b50505050509050805160001415612092575050604080516020810190915260008152610fd1565b6101088160405160200180838054600181600116156101000203166002900480156120f45780601f106120d25761010080835404028352918201916120f4565b820191906000526020600020905b8154815290600101906020018083116120e0575b5050825160208401908083835b602083106121205780518252601f199092019160209182019101612101565b6001836020036101000a03801982511681845116808217855250505050505090500192505050604051602081830303815290604052915050610fd1565b6121686116f561271e565b6121a35760405162461bcd60e51b8152600401808060200182810382526030815260200180613f376030913960400191505060405180910390fd5b60008a81526101a5602052604090205460ff16156121f25760405162461bcd60e51b815260040180806020018281038252602c815260200180613e80602c913960400191505060405180910390fd5b6121fd8d8b8d6116e8565b5060008a81526101a2602090815260409091208d8155600181018c90558a5161222e926002909201918c0190613cf4565b5060008a81526101a260209081526040909120600381018a9055885161225c926004909201918a0190613cf4565b5060008a81526101a260209081526040909120875161228392600590920191890190613cf4565b5060008a81526101a26020908152604080832060068101899055600781018890556008810187905560098101869055600a018490556101a59091528120805460ff191660011790556122d58e8c612b0b565b604080518d81526001600160a01b038316602082015281519293507f9f9be2b875c6a8f7bb8c9d6fb6ce45aebae43c1ff7f674019c7f5328f10fcfb4929081900390910190a15050505050505050505050505050565b6001600160a01b039182166000908152609c6020908152604080832093909416825291909152205460ff1690565b600054610100900460ff16806123725750612372612849565b80612380575060005460ff16155b6123bb5760405162461bcd60e51b815260040180806020018281038252602e815260200180614002602e913960400191505060405180910390fd5b600054610100900460ff161580156123e6576000805460ff1961ff0019909116610100171660011790555b6001600160a01b03831661240c576101a180546001600160a01b03191633179055612429565b6101a180546001600160a01b0319166001600160a01b0385161790555b61019f80546001600160a01b0319166001600160a01b03841617905561244e83613096565b612456613187565b61245e611b09565b6124688585611594565b61247183611ec1565b6101a154604080516001600160a01b03909216908201819052606080835287519083015286517fdcddec436606b2ad0766e10d71bee1ad5b834e214b28adfa01f5a4e3af5a915f92889288929091908190602080830191608084019188019080838360005b838110156124ee5781810151838201526020016124d6565b50505050905090810190601f16801561251b5780820380516001836020036101000a031916815260200191505b50838103825285518152855160209182019187019080838360005b8381101561254e578181015183820152602001612536565b50505050905090810190601f16801561257b5780820380516001836020036101000a031916815260200191505b509550505050505060405180910390a1801561259d576000805461ff00191690555b5050505050565b6125ac611bf4565b6125fd576040805162461bcd60e51b815260206004820181905260248201527f4f776e61626c653a2063616c6c6572206973206e6f7420746865206f776e6572604482015290519081900360640190fd5b60008281526101a360209081526040808320546101a080546001600160a01b0319166001600160a01b0392831617908190558251633950935160e01b81528883166004820152602481018790529251911693633950935193604480850194919392918390030190829087803b15801561267557600080fd5b505af1158015612689573d6000803e3d6000fd5b505050506040513d602081101561259d57600080fd5b6126a7611bf4565b6126f8576040805162461bcd60e51b815260206004820181905260248201527f4f776e61626c653a2063616c6c6572206973206e6f7420746865206f776e6572604482015290519081900360640190fd5b611be28161322c565b6000908152609960205260409020546001600160a01b0316151590565b3390565b600061272d82612701565b6127685760405162461bcd60e51b815260040180806020018281038252602c815260200180613e54602c913960400191505060405180910390fd5b600061277383611942565b9050806001600160a01b0316846001600160a01b031614806127ae5750836001600160a01b03166127a38461108a565b6001600160a01b0316145b806127be57506127be818561232b565b949350505050565b6127d18383836132cd565b6127db8382613411565b6113b182826134ff565b6127ee82612701565b6128295760405162461bcd60e51b815260040180806020018281038252602c815260200180613fb4602c913960400191505060405180910390fd5b60008281526101076020908152604090912082516113b192840190613cf4565b303b1590565b60006128616380ac58cd60e01b610fb3565b905090565b6001600160e01b031980821614156128c5576040805162461bcd60e51b815260206004820152601c60248201527f4552433136353a20696e76616c696420696e7465726661636520696400000000604482015290519081900360640190fd5b6001600160e01b0319166000908152606660205260409020805460ff19166001179055565b6128f4828261353d565b6128fe82826134ff565b611f8b8161366e565b5490565b61291d61013a8263ffffffff6136b216565b6040516001600160a01b038216907f6ae172837ea30b801fbfcdd4108aa1d5bf8ff775444fd70256b44e6bf3dfc3f690600090a250565b61296661013a8263ffffffff61373316565b6040516001600160a01b038216907fe94479a9f7e1952cc78f2d6baab678adc1b772d936c6583def489e524cb6669290600090a250565b60006001600160a01b0382166129e45760405162461bcd60e51b8152600401808060200182810382526022815260200180613fe06022913960400191505060405180910390fd5b506001600160a01b03166000908152602091909152604090205460ff1690565b612a0f8484846127c6565b612a1b8484848461379a565b611ebb5760405162461bcd60e51b8152600401808060200182810382526032815260200180613dd86032913960400191505060405180910390fd5b6000612861635b5e139f60e01b610fb3565b600054610100900460ff1680612a815750612a81612849565b80612a8f575060005460ff16155b612aca5760405162461bcd60e51b815260040180806020018281038252602e815260200180614002602e913960400191505060405180910390fd5b600054610100900460ff16158015612af5576000805460ff1961ff0019909116610100171660011790555b612afe82611de2565b611f7957611f798261290b565b60008181526101a4602052604081205460ff1615612b70576040805162461bcd60e51b815260206004820152601860248201527f4e465420697320616c726561647920746f6b656e697a65640000000000000000604482015290519081900360640190fd5b6060612b7b836139d5565b905060608160405160200180807f564355540000000000000000000000000000000000000000000000000000000081525060040182805190602001908083835b60208310612bda5780518252601f199092019160209182019101612bbb565b6001836020036101000a038019825116818451168082178552505050505050905001915050604051602081830303815290604052905060608260405160200180807f5643552053756220546f6b656e20000000000000000000000000000000000000815250600e0182805190602001908083835b60208310612c6d5780518252601f199092019160209182019101612c4e565b6001836020036101000a0380198251168184511680821785525050505050509050019150506040516020818303038152906040529050606086306101a160009054906101000a90046001600160a01b03168486601269d3c21bcecceda100000060405160240180886001600160a01b03166001600160a01b03168152602001876001600160a01b03166001600160a01b03168152602001866001600160a01b03166001600160a01b0316815260200180602001806020018560ff1660ff168152602001848152602001838103835287818151815260200191508051906020019080838360005b83811015612d6b578181015183820152602001612d53565b50505050905090810190601f168015612d985780820380516001836020036101000a031916815260200191505b50838103825286518152865160209182019188019080838360005b83811015612dcb578181015183820152602001612db3565b50505050905090810190601f168015612df85780820380516001836020036101000a031916815260200191505b5099505050505050505050506040516020818303038152906040527f6091636b000000000000000000000000000000000000000000000000000000006001600160e01b0319166020820180516001600160e01b0383818316178352505050509050600061019f60009054906101000a90046001600160a01b03166001600160a01b031663fab2cd906101a660009054906101000a90046001600160a01b0316846040518363ffffffff1660e01b815260040180836001600160a01b03166001600160a01b0316815260200180602001828103825283818151815260200191508051906020019080838360005b83811015612efc578181015183820152602001612ee4565b50505050905090810190601f168015612f295780820380516001836020036101000a031916815260200191505b509350505050602060405180830381600087803b158015612f4957600080fd5b505af1158015612f5d573d6000803e3d6000fd5b505050506040513d6020811015612f7357600080fd5b50516101a080546001600160a01b0319166001600160a01b03808416919091179182905560408051633950935160e01b81528c8316600482015269d3c21bcecceda1000000602482015290519394509116916339509351916044808201926020929091908290030181600087803b158015612fed57600080fd5b505af1158015613001573d6000803e3d6000fd5b505050506040513d602081101561301757600080fd5b505060008781526101a36020908152604080832080546001600160a01b0319166001600160a01b0386169081179091556101a4835292819020805460ff191660011790558051928352517fbafb4d2a27e1cdf3863a317bc95b8cf266aa3f73a56c1087a03c748a26c34d919281900390910190a1979650505050505050565b600054610100900460ff16806130af57506130af612849565b806130bd575060005460ff16155b6130f85760405162461bcd60e51b815260040180806020018281038252602e815260200180614002602e913960400191505060405180910390fd5b600054610100900460ff16158015613123576000805460ff1961ff0019909116610100171660011790555b603380546001600160a01b0319166001600160a01b0384811691909117918290556040519116906000907f8be0079c531659141344cd1fd0a4f28419497f9722a3daafe3b4186f6b6457e0908290a38015611f8b576000805461ff00191690555050565b600054610100900460ff16806131a057506131a0612849565b806131ae575060005460ff16155b6131e95760405162461bcd60e51b815260040180806020018281038252602e815260200180614002602e913960400191505060405180910390fd5b600054610100900460ff16158015613214576000805460ff1961ff0019909116610100171660011790555b61321c613aca565b611bd06380ac58cd60e01b612866565b6001600160a01b0381166132715760405162461bcd60e51b8152600401808060200182810382526026815260200180613e0a6026913960400191505060405180910390fd5b6033546040516001600160a01b038084169216907f8be0079c531659141344cd1fd0a4f28419497f9722a3daafe3b4186f6b6457e090600090a3603380546001600160a01b0319166001600160a01b0392909216919091179055565b826001600160a01b03166132e082611942565b6001600160a01b0316146133255760405162461bcd60e51b81526004018080602001828103825260298152602001806140306029913960400191505060405180910390fd5b6001600160a01b03821661336a5760405162461bcd60e51b8152600401808060200182810382526024815260200180613e306024913960400191505060405180910390fd5b61337381613b80565b6001600160a01b0383166000908152609b6020526040902061339490613bbb565b6001600160a01b0382166000908152609b602052604090206133b590613bd2565b60008181526099602052604080822080546001600160a01b0319166001600160a01b0386811691821790925591518493918716917fddf252ad1be2c89b69c2b068fc378daa952ba7f163c4a11628f55a4df523b3ef91a4505050565b6001600160a01b038216600090815260cf602052604081205461343b90600163ffffffff613bdb16565b600083815260d060205260409020549091508082146134d6576001600160a01b038416600090815260cf6020526040812080548490811061347857fe5b906000526020600020015490508060cf6000876001600160a01b03166001600160a01b0316815260200190815260200160002083815481106134b657fe5b600091825260208083209091019290925591825260d09052604090208190555b6001600160a01b038416600090815260cf6020526040902080549061259d906000198301613d72565b6001600160a01b03909116600090815260cf60208181526040808420805486865260d084529185208290559282526001810183559183529091200155565b6001600160a01b038216613598576040805162461bcd60e51b815260206004820181905260248201527f4552433732313a206d696e7420746f20746865207a65726f2061646472657373604482015290519081900360640190fd5b6135a181612701565b156135f3576040805162461bcd60e51b815260206004820152601c60248201527f4552433732313a20746f6b656e20616c7265616479206d696e74656400000000604482015290519081900360640190fd5b600081815260996020908152604080832080546001600160a01b0319166001600160a01b0387169081179091558352609b909152902061363290613bd2565b60405181906001600160a01b038416906000907fddf252ad1be2c89b69c2b068fc378daa952ba7f163c4a11628f55a4df523b3ef908290a45050565b60d18054600083815260d260205260408120829055600182018355919091527f695fb3134ad82c3b8022bc5464edd0bcc9424ef672b52245dcb6ab2374327ce30155565b6136bc828261299d565b1561370e576040805162461bcd60e51b815260206004820152601f60248201527f526f6c65733a206163636f756e7420616c72656164792068617320726f6c6500604482015290519081900360640190fd5b6001600160a01b0316600090815260209190915260409020805460ff19166001179055565b61373d828261299d565b6137785760405162461bcd60e51b8152600401808060200182810382526021815260200180613f676021913960400191505060405180910390fd5b6001600160a01b0316600090815260209190915260409020805460ff19169055565b60006137ae846001600160a01b0316613c24565b6137ba575060016127be565b600060606001600160a01b038616630a85bd0160e11b6137d861271e565b89888860405160240180856001600160a01b03166001600160a01b03168152602001846001600160a01b03166001600160a01b0316815260200183815260200180602001828103825283818151815260200191508051906020019080838360005b83811015613851578181015183820152602001613839565b50505050905090810190601f16801561387e5780820380516001836020036101000a031916815260200191505b5060408051601f198184030181529181526020820180516001600160e01b03166001600160e01b0319909a16999099178952518151919890975087965094509250829150849050835b602083106138e65780518252601f1990920191602091820191016138c7565b6001836020036101000a0380198251168184511680821785525050505050509050019150506000604051808303816000865af19150503d8060008114613948576040519150601f19603f3d011682016040523d82523d6000602084013e61394d565b606091505b50915091508161399e578051156139675780518082602001fd5b60405162461bcd60e51b8152600401808060200182810382526032815260200180613dd86032913960400191505060405180910390fd5b60008180602001905160208110156139b557600080fd5b50516001600160e01b031916630a85bd0160e11b1493506127be92505050565b606081613a16575060408051808201909152600181527f30000000000000000000000000000000000000000000000000000000000000006020820152610fd1565b8160005b8115613a2e57600101600a82049150613a1a565b6060816040519080825280601f01601f191660200182016040528015613a5b576020820181803883390190505b50905060001982015b8515613ac157600a860660300160f81b82828060019003935081518110613a8757fe5b60200101907effffffffffffffffffffffffffffffffffffffffffffffffffffffffffffff1916908160001a905350600a86049550613a64565b50949350505050565b600054610100900460ff1680613ae35750613ae3612849565b80613af1575060005460ff16155b613b2c5760405162461bcd60e51b815260040180806020018281038252602e815260200180614002602e913960400191505060405180910390fd5b600054610100900460ff16158015613b57576000805460ff1961ff0019909116610100171660011790555b611bd07f01ffc9a700000000000000000000000000000000000000000000000000000000612866565b6000818152609a60205260409020546001600160a01b031615611be2576000908152609a6020526040902080546001600160a01b0319169055565b8054613bce90600163ffffffff613bdb16565b9055565b80546001019055565b6000613c1d83836040518060400160405280601e81526020017f536166654d6174683a207375627472616374696f6e206f766572666c6f770000815250613c5d565b9392505050565b6000813f7fc5d2460186f7233c927e7db2dcc703c0e500b653ca82273b7bfad8045d85a4708181148015906127be575050151592915050565b60008184841115613cec5760405162461bcd60e51b81526004018080602001828103825283818151815260200191508051906020019080838360005b83811015613cb1578181015183820152602001613c99565b50505050905090810190601f168015613cde5780820380516001836020036101000a031916815260200191505b509250505060405180910390fd5b505050900390565b828054600181600116156101000203166002900490600052602060002090601f016020900481019282601f10613d3557805160ff1916838001178555613d62565b82800160010185558215613d62579182015b82811115613d62578251825591602001919060010190613d47565b50613d6e929150613d92565b5090565b8154818355818111156113b1576000838152602090206113b19181019083015b61108791905b80821115613d6e5760008155600101613d9856fe455243373231456e756d657261626c653a206f776e657220696e646578206f7574206f6620626f756e64734552433732313a207472616e7366657220746f206e6f6e20455243373231526563656976657220696d706c656d656e7465724f776e61626c653a206e6577206f776e657220697320746865207a65726f20616464726573734552433732313a207472616e7366657220746f20746865207a65726f20616464726573734552433732313a206f70657261746f7220717565727920666f72206e6f6e6578697374656e7420746f6b656e5643552053657269616c20496e64657820416c7265616479204578697374732c2043616e6e6f74204d696e744552433732313a20617070726f76652063616c6c6572206973206e6f74206f776e6572206e6f7220617070726f76656420666f7220616c6c4552433732313a2062616c616e636520717565727920666f7220746865207a65726f20616464726573734552433732313a206f776e657220717565727920666f72206e6f6e6578697374656e7420746f6b656e4d696e746572526f6c653a2063616c6c657220646f6573206e6f74206861766520746865204d696e74657220726f6c65526f6c65733a206163636f756e7420646f6573206e6f74206861766520726f6c654552433732313a20617070726f76656420717565727920666f72206e6f6e6578697374656e7420746f6b656e4552433732314d657461646174613a2055524920736574206f66206e6f6e6578697374656e7420746f6b656e526f6c65733a206163636f756e7420697320746865207a65726f2061646472657373436f6e747261637420696e7374616e63652068617320616c7265616479206265656e20696e697469616c697a65644552433732313a207472616e73666572206f6620746f6b656e2074686174206973206e6f74206f776e4552433732314d657461646174613a2055524920717565727920666f72206e6f6e6578697374656e7420746f6b656e4552433732313a20617070726f76616c20746f2063757272656e74206f776e65724552433732313a207472616e736665722063616c6c6572206973206e6f74206f776e6572206e6f7220617070726f766564455243373231456e756d657261626c653a20676c6f62616c20696e646578206f7574206f6620626f756e6473a265627a7a72315820d1fcaa5fcc901a33b1a888976f7e47a95e0d09dd75103eaa33cd3d15cfc86b2564736f6c63430005100032",
  "source": "/*\r\n  @title CarbonVCU v0.1.4\r\n ________  ________  _______   ________  ___          \r\n|\\   ____\\|\\   __  \\|\\  ___ \\ |\\   __  \\|\\  \\         \r\n\\ \\  \\___|\\ \\  \\|\\  \\ \\   __/|\\ \\  \\|\\  \\ \\  \\        \r\n \\ \\  \\    \\ \\   _  _\\ \\  \\_|/_\\ \\  \\\\\\  \\ \\  \\       \r\n  \\ \\  \\____\\ \\  \\\\  \\\\ \\  \\_|\\ \\ \\  \\\\\\  \\ \\  \\____  \r\n   \\ \\_______\\ \\__\\\\ _\\\\ \\_______\\ \\_______\\ \\_______\\\r\n    \\|_______|\\|__|\\|__|\\|_______|\\|_______|\\|_______|\r\n                                             \r\n \r\n \r\n   _____           _             __      _______ _    _ \r\n  / ____|         | |            \\ \\    / / ____| |  | |\r\n | |     __ _ _ __| |__   ___  _ _\\ \\  / / |    | |  | |\r\n | |    / _` | '__| '_ \\ / _ \\| '_ \\ \\/ /| |    | |  | |\r\n | |___| (_| | |  | |_) | (_) | | | \\  / | |____| |__| |\r\n  \\_____\\__,_|_|  |_.__/ \\___/|_| |_|\\/   \\_____|\\____/ \r\n                                                       \r\n                        \r\nAuthor:      Joshua Bijak\r\nDate:        March 12, 2019\r\nTitle:       CarbonVCU NFT Prototype\r\nDescription: Contract that demonstrates NFT enumerability of Carbon VCUs\r\n              \r\n  ___                            _       \r\n|_ _|_ __ ___  _ __   ___  _ __| |_ ___ \r\n | || '_ ` _ \\| '_ \\ / _ \\| '__| __/ __|\r\n | || | | | | | |_) | (_) | |  | |_\\__ \\\r\n|___|_| |_| |_| .__/ \\___/|_|   \\__|___/\r\n              |_|                       \r\n\r\n*/\r\npragma solidity ^0.5.0;\r\n\r\nimport \"@openzeppelin/contracts-ethereum-package/contracts/token/ERC721/ERC721Enumerable.sol\";\r\nimport \"@openzeppelin/contracts-ethereum-package/contracts/token/ERC721/ERC721.sol\";\r\nimport \"@openzeppelin/contracts-ethereum-package/contracts/token/ERC721/ERC721MetadataMintable.sol\";\r\n\r\nimport \"@openzeppelin/contracts-ethereum-package/contracts/token/ERC721/IERC721.sol\";\r\nimport \"@openzeppelin/contracts-ethereum-package/contracts/token/ERC721/IERC721Metadata.sol\";\r\nimport \"@openzeppelin/contracts-ethereum-package/contracts/token/ERC721/IERC721Enumerable.sol\";\r\n\r\nimport \"@openzeppelin/contracts-ethereum-package/contracts/introspection/IERC165.sol\";\r\n\r\n\r\nimport \"@openzeppelin/contracts-ethereum-package/contracts/ownership/Ownable.sol\";\r\nimport \"@openzeppelin/contracts-ethereum-package/contracts/math/SafeMath.sol\";\r\n\r\nimport \"@openzeppelin/upgrades/contracts/Initializable.sol\";\r\n\r\nimport \"../VCUSubToken/VCUSubTokenFactoryInterface.sol\";\r\nimport \"../VCUSubToken/VCUSubTokenInterface.sol\";\r\n\r\nimport \"./CarbonVCUInterface.sol\";\r\n/*\r\n  _____            _                  _   \r\n / ____|          | |                | |  \r\n| |     ___  _ __ | |_ _ __ __ _  ___| |_ \r\n| |    / _ \\| '_ \\| __| '__/ _` |/ __| __|\r\n| |___| (_) | | | | |_| | | (_| | (__| |_ \r\n \\_____\\___/|_| |_|\\__|_|  \\__,_|\\___|\\__|\r\n\r\n*/\r\n/**\r\n * @author Joshua Bijak\r\n * @title CarbonVCU NFT\r\n * @dev Contract that demonstrates NFT enumerability of Carbon VCUs\r\n * @notice CarbonVCU NFT Contract\r\n * \r\n */\r\ncontract CarbonVCU is CarbonVCUInterface,Initializable, Ownable, ERC721Enumerable, ERC721MetadataMintable {\r\n    \r\n    /**\r\n     * \r\n          ______               _       \r\n         |  ____|             | |      \r\n         | |____   _____ _ __ | |_ ___ \r\n         |  __\\ \\ / / _ \\ '_ \\| __/ __|\r\n         | |___\\ V /  __/ | | | |_\\__ \\\r\n         |______\\_/ \\___|_| |_|\\__|___/\r\n                                       \r\n     * \r\n     * \r\n     */\r\n     event CarbonVCUCreated(string name, string symbol, address creolSuper);\r\n     event VCUMinted(uint256 VCUID, address VCUSubToken);\r\n     event VCUSubTokenDeployed(address VCUSubToken);\r\n     event VCUSubTokenFactoryUpdated(address VCUSubtokeFactory);\r\n     event newTokenURI(string _newTokenURI, uint256 _VCUSerialIdx);\r\n     event newProxyAdmin(address _proxyAdmin);\r\n\r\n    VCUSubTokenFactoryInterface private genericSubTokenFactoryInterface;\r\n    VCUSubTokenInterface private genericSubTokenInterface;\r\n   \r\n    \r\n        \r\n    /**\r\n     * \r\n     *    _____ _        _   _          \r\n         / ____| |      | | (_)         \r\n        | (___ | |_ __ _| |_ _  ___ ___ \r\n         \\___ \\| __/ _` | __| |/ __/ __|\r\n         ____) | || (_| | |_| | (__\\__ \\\r\n        |_____/ \\__\\__,_|\\__|_|\\___|___/\r\n     * \r\n     * \r\n     */\r\n     \r\n    using SafeMath for uint256;\r\n    \r\n    address public creolSuper;\r\n    \r\n      \r\n    struct VCUMetaData {\r\n        uint256 VCUID;\r\n        uint256 VCUSerialIdx;\r\n        string VCUClass;\r\n        uint256 VVBID;\r\n        string VCSRegistry;\r\n        string projectCountryCode;\r\n        uint256 scopeNumber;\r\n        uint256 projectIdentifier;\r\n        uint256 startDate;\r\n        uint256 endDate;\r\n        uint256 additionalCertInfo;\r\n        //address subtokenAddress;\r\n    }\r\n    \r\n    mapping (uint256 => VCUMetaData) public tokenIDtoVCUMetadata;\r\n    mapping (uint256 => address) public tokenIDtoSubtokenAddress;\r\n    mapping(uint256 => bool) NFTisTokenized;\r\n    mapping(uint256 => bool) VCUSerialIdxExists;\r\n    \r\n    // New VARIABLES\r\n    \r\n    address private proxyAdmin;\r\n    \r\n    /**\r\n     *   __  __           _ _  __ _               \r\n        |  \\/  |         | (_)/ _(_)              \r\n        | \\  / | ___   __| |_| |_ _  ___ _ __ ___ \r\n        | |\\/| |/ _ \\ / _` | |  _| |/ _ \\ '__/ __|\r\n        | |  | | (_) | (_| | | | | |  __/ |  \\__ \\\r\n        |_|  |_|\\___/ \\__,_|_|_| |_|\\___|_|  |___/\r\n        \r\n    */\r\n    modifier onlyCreolSuper(){\r\n        require(msg.sender == creolSuper);\r\n        _;\r\n    }\r\n    \r\n   \r\n     \r\n     /**\r\n      *   ______                _   _                 \r\n         |  ____|              | | (_)                \r\n         | |__ _   _ _ __   ___| |_ _  ___  _ __  ___ \r\n         |  __| | | | '_ \\ / __| __| |/ _ \\| '_ \\/ __|\r\n         | |  | |_| | | | | (__| |_| | (_) | | | \\__ \\\r\n         |_|   \\__,_|_| |_|\\___|\\__|_|\\___/|_| |_|___/\r\n     */\r\n     \r\n    \r\n     \r\n     constructor () public {\r\n         \r\n     }\r\n      /**\r\n      * @notice Deploys a new batch of CarbonVCU NFTs that have Metadata enabled\r\n      * @dev  -  Constructor for CarbonVCU NFT\r\n     *  @param _creolSuper is the super user incharge of the Creol Smart contracting system\r\n     *  @param name Name of the VCU batch\r\n     *  @param symbol for VCU batch\r\n     *  @param _VCUSubTokenFactory SubToken Factory address that is initialized\r\n     * \r\n     *\r\n     */\r\n     \r\n     function initializeConstruct(string memory name, string memory symbol, address _creolSuper, address _VCUSubTokenFactory) public initializer {\r\n         if(_creolSuper == address(0)){\r\n             creolSuper = msg.sender;\r\n         }\r\n         else{\r\n          \r\n            creolSuper = _creolSuper;      \r\n         }\r\n        genericSubTokenFactoryInterface = VCUSubTokenFactoryInterface(_VCUSubTokenFactory);\r\n        Ownable.initialize(_creolSuper);\r\n        ERC721.initialize();\r\n        ERC721Enumerable.initialize();\r\n        ERC721Metadata.initialize(name,symbol);\r\n        ERC721MetadataMintable.initialize(_creolSuper);\r\n        //super.initialize(name,symbol);\r\n        emit CarbonVCUCreated(name, symbol, creolSuper);\r\n\r\n            \r\n     }\r\n     /**\r\n      * @dev mints VCU and immediately tokenizes using \"tokenizeVCU\"\r\n      * @notice Mint a new VCU using VCS details\r\n      * @param _forOwner Owner to transfer VCU ownership to\r\n      * @param _VCUID ID of this VCU\r\n      * @param _tokenMetadata Metadata for this token. Can be reference to VERRA\r\n      * @param _VCUSerialIdx Index of serial number\r\n      * @param _VCUClass VCU Class number\r\n      * @param _VVBID VVBID number\r\n      * @param _VCSRegistry Registry where credit is currently registered\r\n      * @param _projectCountryCode Project Country Code\r\n      * @param _scopeNumber Scope number\r\n      * @param _projectIdentifier Project Identfier\r\n      * @param _startDate Epoch UTC start date of the VCU\r\n      * @param _endDate Epoch UTC end date of the VCU\r\n      * @param _additionalCertInfo Any other certification info on VERRA\r\n      * \r\n      */ \r\n     function mintVCU(address _forOwner, uint256 _VCUID, string memory _tokenMetadata, uint256 _VCUSerialIdx, string memory _VCUClass, uint256 _VVBID, string memory _VCSRegistry, string memory _projectCountryCode, \r\n     uint256 _scopeNumber, uint256 _projectIdentifier, uint256  _startDate, uint256 _endDate, uint256 _additionalCertInfo) onlyMinter public {\r\n         \r\n         require(VCUSerialIdxExists[_VCUSerialIdx] == false, \"VCU Serial Index Already Exists, Cannot Mint\");\r\n         super.mintWithTokenURI(_forOwner, _VCUSerialIdx, _tokenMetadata);\r\n         \r\n         tokenIDtoVCUMetadata[_VCUSerialIdx].VCUID = _VCUID;\r\n         tokenIDtoVCUMetadata[_VCUSerialIdx].VCUSerialIdx = _VCUSerialIdx;\r\n         tokenIDtoVCUMetadata[_VCUSerialIdx].VCUClass = _VCUClass;\r\n         tokenIDtoVCUMetadata[_VCUSerialIdx].VVBID = _VVBID;\r\n         tokenIDtoVCUMetadata[_VCUSerialIdx].VCSRegistry = _VCSRegistry;\r\n         tokenIDtoVCUMetadata[_VCUSerialIdx].projectCountryCode = _projectCountryCode;\r\n         tokenIDtoVCUMetadata[_VCUSerialIdx].scopeNumber = _scopeNumber;\r\n         tokenIDtoVCUMetadata[_VCUSerialIdx].projectIdentifier = _projectIdentifier;\r\n         tokenIDtoVCUMetadata[_VCUSerialIdx].startDate = _startDate;\r\n         tokenIDtoVCUMetadata[_VCUSerialIdx].endDate = _endDate;\r\n         tokenIDtoVCUMetadata[_VCUSerialIdx].additionalCertInfo = _additionalCertInfo;\r\n         \r\n         \r\n         VCUSerialIdxExists[_VCUSerialIdx] = true;\r\n         \r\n         address _tokenizedVCU = tokenizeVCU(_forOwner,_VCUSerialIdx);\r\n        \r\n         emit VCUMinted(_VCUSerialIdx, _tokenizedVCU);\r\n     }\r\n     /**\r\n      * @dev tokenizes VCUs by assiging a SubToken ERC20\r\n      * @notice tokenizes Subtoken \r\n      * @param _forOwner for which VCU owner \r\n      * @param _VCUSerialIdx VCU serial index \r\n      */\r\n     function tokenizeVCU(address _forOwner, uint256 _VCUSerialIdx) internal returns (address newVCUAddress) {\r\n         // Cap is always 1,000,000 for grams in ton CO2e\r\n         \r\n         //string s = string(abi.encodePacked(\"a\", \" \", \"concatenated\", \" \", \"string\"));\r\n         //uint256 tempID = _VCUID;\r\n         require(NFTisTokenized[_VCUSerialIdx] == false, \"NFT is already tokenized\");\r\n        \r\n         string memory convert_VCUID = uint2str(_VCUSerialIdx);\r\n        \r\n         string memory ticker = string(abi.encodePacked(\"VCUT\", convert_VCUID));\r\n         \r\n         string memory tokenName = string(abi.encodePacked(\"VCU Sub Token \",convert_VCUID));\r\n         \r\n         bytes memory payLoadData = abi.encodeWithSignature(\"initialize(address,address,address,string,string,uint8,uint256)\",_forOwner,address(this),creolSuper,tokenName,ticker,uint8(0x12),uint256(1000000000000000000000000));\r\n         \r\n         address _tokenizedVCU  = genericSubTokenFactoryInterface.createVCUUpgradeableToken(proxyAdmin,payLoadData);\r\n         \r\n         genericSubTokenInterface = VCUSubTokenInterface(_tokenizedVCU);\r\n         \r\n         genericSubTokenInterface.increaseAllowance(_forOwner,1000000000000000000000000);\r\n         \r\n         \r\n         tokenIDtoSubtokenAddress[_VCUSerialIdx] = _tokenizedVCU;\r\n        \r\n         NFTisTokenized[_VCUSerialIdx] = true;\r\n         \r\n         emit VCUSubTokenDeployed(_tokenizedVCU);\r\n         return _tokenizedVCU;\r\n     }\r\n     /**\r\n      * @dev approves buring of subtokens by the owner of the VCU\r\n      * @notice currently this is handled by creolSuper but will change to an ACL contract later\r\n      * @param _forOwner for which VCU owner \r\n      * @param _VCUSerialIdx VCU serial index \r\n      * @param _amount Amount of tokens to burn\r\n      */\r\n     function approveBurns(address _forOwner, uint256 _VCUSerialIdx, uint256 _amount) public onlyOwner{\r\n          \r\n          genericSubTokenInterface = VCUSubTokenInterface(tokenIDtoSubtokenAddress[_VCUSerialIdx]);\r\n      \r\n          genericSubTokenInterface.increaseAllowance(_forOwner,_amount);\r\n          \r\n      }\r\n      /**\r\n       * @dev checks if a certain VCU is completely offset or not.\r\n       * @notice this loops through the contracts and can use a LOT of gas\r\n       * @param _VCUSerialIdx VCU serial index\r\n       */\r\n      function isOffset(uint256 _VCUSerialIdx) public returns(bool _isOffset){\r\n          if (NFTisTokenized[_VCUSerialIdx]){\r\n              genericSubTokenInterface = VCUSubTokenInterface(tokenIDtoSubtokenAddress[_VCUSerialIdx]);\r\n              if (genericSubTokenInterface.totalSupply() > 0){\r\n                  return false;\r\n              }\r\n              else {\r\n                  return true;\r\n              }\r\n          }\r\n          else{\r\n              revert(\"Not Tokenized\");\r\n          }\r\n      }\r\n     \r\n     /**\r\n      * @dev returns the SubToken contract address for that VCUSerialIdx\r\n      * @notice this is  mapped against unique numbers\r\n      * @param _VCUSerialIdx VCU serial index\r\n      */\r\n     \r\n      function gettokenIDtoSubtokenAddress(uint256 _VCUSerialIdx) public view returns(address _subtokenAddress){\r\n          return tokenIDtoSubtokenAddress[_VCUSerialIdx];\r\n      }\r\n      \r\n      /**\r\n      * @dev - Converts uints to strings \r\n      * \r\n      */       \r\n    function uint2str(uint _i) internal pure returns (string memory _uintAsString) {\r\n        if (_i == 0) {\r\n            return \"0\";\r\n        }\r\n        uint j = _i;\r\n        uint len;\r\n        while (j != 0) {\r\n            len++;\r\n            j /= 10;\r\n        }\r\n        bytes memory bstr = new bytes(len);\r\n        uint k = len - 1;\r\n        while (_i != 0) {\r\n            bstr[k--] = byte(uint8(48 + _i % 10));\r\n            _i /= 10;\r\n        }\r\n        return string(bstr);\r\n    }\r\n    /**\r\n     * @dev Meant to update interface if it ever needs to change, although unlikely given it uses Proxies\r\n     * @notice Meant to update interface if it ever needs to change, although unlikely given it uses Proxies\r\n     * @param _newVCUTokenFactory Address for new VCUSubTokenFactoryInterface to be used\r\n     */\r\n    function updateVCUSubtokenFactory( address _newVCUTokenFactory) public onlyCreolSuper {\r\n        \r\n        genericSubTokenFactoryInterface = VCUSubTokenFactoryInterface(_newVCUTokenFactory);\r\n        \r\n        emit VCUSubTokenFactoryUpdated(_newVCUTokenFactory);\r\n        \r\n    }\r\n    /**\r\n     * @dev Meant to update the proxyAdmin address, that was added in new version.\r\n     * @notice Meant to update the proxyAdmin address, that was added in new version.\r\n     * @param _proxyAdmin new address of the proxyAdmin contract for the openzeppelin app entry\r\n     */\r\n    function setProxyAdmin( address _proxyAdmin) public onlyCreolSuper {\r\n        proxyAdmin = _proxyAdmin;\r\n        emit newProxyAdmin(_proxyAdmin);\r\n        \r\n    }\r\n    /**\r\n     * @dev Meant to be used to fix URIs of already deployed NFTs to match the ERC1155 standard and use an IPFS address\r\n     * @notice Uses internal _setTokenURI function to achieve this\r\n     * @param _newTokenURI the new tokenURI address to NFTisTokenized\r\n     * @param _VCUSerialIdx the token to change\r\n     */\r\n     \r\n    function setNFTUri(string memory _newTokenURI, uint256 _VCUSerialIdx) public onlyCreolSuper {\r\n        _setTokenURI(_VCUSerialIdx, _newTokenURI);\r\n        emit newTokenURI(_newTokenURI,_VCUSerialIdx);\r\n    }\r\n/**\r\n * \r\n * \r\n *   _                      _ \r\n    | |                    | |\r\n    | |     ___  __ _  __ _| |\r\n    | |    / _ \\/ _` |/ _` | |\r\n    | |___|  __/ (_| | (_| | |\r\n    |______\\___|\\__, |\\__,_|_|\r\n                 __/ |        \r\n                |___/    \r\n * \r\n * They come with no warranty and are not for use in a production setting. For production usage, please contact joshua.bijak@creol.io\r\n * \r\n */\r\n }\r\n ",
  "sourcePath": "contracts/CarbonVCU/CarbonVCU.sol",
  "compiler": {
    "name": "solc",
    "version": "0.5.16+commit.9c3226ce.Emscripten.clang"
  },
  "schemaVersion": "3.2.2",
  "updatedAt": "2020-08-17T13:56:44.291Z",
  "devdoc": {
    "author": "Joshua Bijak",
    "details": "Contract that demonstrates NFT enumerability of Carbon VCUs",
    "methods": {
      "approve(address,uint256)": {
        "details": "Approves another address to transfer the given token ID The zero address indicates there is no approved address. There can only be one approved address per token at a given time. Can only be called by the token owner or an approved operator.",
        "params": {
          "to": "address to be approved for the given token ID",
          "tokenId": "uint256 ID of the token to be approved"
        }
      },
      "approveBurns(address,uint256,uint256)": {
        "details": "approves buring of subtokens by the owner of the VCU",
        "params": {
          "_VCUSerialIdx": "VCU serial index ",
          "_amount": "Amount of tokens to burn",
          "_forOwner": "for which VCU owner "
        }
      },
      "balanceOf(address)": {
        "details": "Gets the balance of the specified address.",
        "params": {
          "owner": "address to query the balance of"
        },
        "return": "uint256 representing the amount owned by the passed address"
      },
      "baseURI()": {
        "details": "Returns the base URI set via {_setBaseURI}. This will be automatically added as a preffix in {tokenURI} to each token's URI, when they are non-empty.    * _Available since v2.5.0._"
      },
      "getApproved(uint256)": {
        "details": "Gets the approved address for a token ID, or zero if no address set Reverts if the token ID does not exist.",
        "params": {
          "tokenId": "uint256 ID of the token to query the approval of"
        },
        "return": "address currently approved for the given token ID"
      },
      "gettokenIDtoSubtokenAddress(uint256)": {
        "details": "returns the SubToken contract address for that VCUSerialIdx",
        "params": {
          "_VCUSerialIdx": "VCU serial index"
        }
      },
      "initialize()": {
        "details": "Constructor function."
      },
      "initialize(string,string)": {
        "details": "Constructor function"
      },
      "initializeConstruct(string,string,address,address)": {
        "details": "-  Constructor for CarbonVCU NFT",
        "params": {
          "_VCUSubTokenFactory": "SubToken Factory address that is initialized \r      ",
          "_creolSuper": "is the super user incharge of the Creol Smart contracting system",
          "name": "Name of the VCU batch",
          "symbol": "for VCU batch"
        }
      },
      "isApprovedForAll(address,address)": {
        "details": "Tells whether an operator is approved by a given owner.",
        "params": {
          "operator": "operator address which you want to query the approval of",
          "owner": "owner address which you want to query the approval of"
        },
        "return": "bool whether the given operator is approved by the given owner"
      },
      "isOffset(uint256)": {
        "details": "checks if a certain VCU is completely offset or not.",
        "params": {
          "_VCUSerialIdx": "VCU serial index"
        }
      },
      "isOwner()": {
        "details": "Returns true if the caller is the current owner."
      },
      "mintVCU(address,uint256,string,uint256,string,uint256,string,string,uint256,uint256,uint256,uint256,uint256)": {
        "details": "mints VCU and immediately tokenizes using \"tokenizeVCU\"",
        "params": {
          "_VCSRegistry": "Registry where credit is currently registered",
          "_VCUClass": "VCU Class number",
          "_VCUID": "ID of this VCU",
          "_VCUSerialIdx": "Index of serial number",
          "_VVBID": "VVBID number",
          "_additionalCertInfo": "Any other certification info on VERRA \r",
          "_endDate": "Epoch UTC end date of the VCU",
          "_forOwner": "Owner to transfer VCU ownership to",
          "_projectCountryCode": "Project Country Code",
          "_projectIdentifier": "Project Identfier",
          "_scopeNumber": "Scope number",
          "_startDate": "Epoch UTC start date of the VCU",
          "_tokenMetadata": "Metadata for this token. Can be reference to VERRA"
        }
      },
      "mintWithTokenURI(address,uint256,string)": {
        "details": "Function to mint tokens.",
        "params": {
          "to": "The address that will receive the minted tokens.",
          "tokenId": "The token id to mint.",
          "tokenURI": "The token URI of the minted token."
        },
        "return": "A boolean that indicates if the operation was successful."
      },
      "name()": {
        "details": "Gets the token name.",
        "return": "string representing the token name"
      },
      "owner()": {
        "details": "Returns the address of the current owner."
      },
      "ownerOf(uint256)": {
        "details": "Gets the owner of the specified token ID.",
        "params": {
          "tokenId": "uint256 ID of the token to query the owner of"
        },
        "return": "address currently marked as the owner of the given token ID"
      },
      "renounceOwnership()": {
        "details": "Leaves the contract without owner. It will not be possible to call `onlyOwner` functions anymore. Can only be called by the current owner.     * > Note: Renouncing ownership will leave the contract without an owner, thereby removing any functionality that is only available to the owner."
      },
      "safeTransferFrom(address,address,uint256)": {
        "details": "Safely transfers the ownership of a given token ID to another address If the target address is a contract, it must implement {IERC721Receiver-onERC721Received}, which is called upon a safe transfer, and return the magic value `bytes4(keccak256(\"onERC721Received(address,address,uint256,bytes)\"))`; otherwise, the transfer is reverted. Requires the msg.sender to be the owner, approved, or operator",
        "params": {
          "from": "current owner of the token",
          "to": "address to receive the ownership of the given token ID",
          "tokenId": "uint256 ID of the token to be transferred"
        }
      },
      "safeTransferFrom(address,address,uint256,bytes)": {
        "details": "Safely transfers the ownership of a given token ID to another address If the target address is a contract, it must implement {IERC721Receiver-onERC721Received}, which is called upon a safe transfer, and return the magic value `bytes4(keccak256(\"onERC721Received(address,address,uint256,bytes)\"))`; otherwise, the transfer is reverted. Requires the _msgSender() to be the owner, approved, or operator",
        "params": {
          "_data": "bytes data to send along with a safe transfer check",
          "from": "current owner of the token",
          "to": "address to receive the ownership of the given token ID",
          "tokenId": "uint256 ID of the token to be transferred"
        }
      },
      "setApprovalForAll(address,bool)": {
        "details": "Sets or unsets the approval of a given operator An operator is allowed to transfer all tokens of the sender on their behalf.",
        "params": {
          "approved": "representing the status of the approval to be set",
          "to": "operator address to set the approval"
        }
      },
      "setNFTUri(string,uint256)": {
        "details": "Meant to be used to fix URIs of already deployed NFTs to match the ERC1155 standard and use an IPFS address",
        "params": {
          "_VCUSerialIdx": "the token to change",
          "_newTokenURI": "the new tokenURI address to NFTisTokenized"
        }
      },
      "setProxyAdmin(address)": {
        "details": "Meant to update the proxyAdmin address, that was added in new version.",
        "params": {
          "_proxyAdmin": "new address of the proxyAdmin contract for the openzeppelin app entry"
        }
      },
      "supportsInterface(bytes4)": {
        "details": "See {IERC165-supportsInterface}.     * Time complexity O(1), guaranteed to always use less than 30 000 gas."
      },
      "symbol()": {
        "details": "Gets the token symbol.",
        "return": "string representing the token symbol"
      },
      "tokenByIndex(uint256)": {
        "details": "Gets the token ID at a given index of all the tokens in this contract Reverts if the index is greater or equal to the total number of tokens.",
        "params": {
          "index": "uint256 representing the index to be accessed of the tokens list"
        },
        "return": "uint256 token ID at the given index of the tokens list"
      },
      "tokenOfOwnerByIndex(address,uint256)": {
        "details": "Gets the token ID at a given index of the tokens list of the requested owner.",
        "params": {
          "index": "uint256 representing the index to be accessed of the requested tokens list",
          "owner": "address owning the tokens list to be accessed"
        },
        "return": "uint256 token ID at the given index of the tokens list owned by the requested address"
      },
      "tokenURI(uint256)": {
        "details": "Returns the URI for a given token ID. May return an empty string.     * If the token's URI is non-empty and a base URI was set (via {_setBaseURI}), it will be added to the token ID's URI as a prefix.     * Reverts if the token ID does not exist."
      },
      "totalSupply()": {
        "details": "Gets the total amount of tokens stored by the contract.",
        "return": "uint256 representing the total amount of tokens"
      },
      "transferFrom(address,address,uint256)": {
        "details": "Transfers the ownership of a given token ID to another address. Usage of this method is discouraged, use {safeTransferFrom} whenever possible. Requires the msg.sender to be the owner, approved, or operator.",
        "params": {
          "from": "current owner of the token",
          "to": "address to receive the ownership of the given token ID",
          "tokenId": "uint256 ID of the token to be transferred"
        }
      },
      "transferOwnership(address)": {
        "details": "Transfers ownership of the contract to a new account (`newOwner`). Can only be called by the current owner."
      },
      "updateVCUSubtokenFactory(address)": {
        "details": "Meant to update interface if it ever needs to change, although unlikely given it uses Proxies",
        "params": {
          "_newVCUTokenFactory": "Address for new VCUSubTokenFactoryInterface to be used"
        }
      }
    },
    "title": "CarbonVCU NFT"
  },
  "userdoc": {
    "methods": {
      "approveBurns(address,uint256,uint256)": {
        "notice": "currently this is handled by creolSuper but will change to an ACL contract later"
      },
      "constructor": "______                _   _                  |  ____|              | | (_)                 | |__ _   _ _ __   ___| |_ _  ___  _ __  ___  |  __| | | | '_ \\ / __| __| |/ _ \\| '_ \\/ __| | |  | |_| | | | | (__| |_| | (_) | | | \\__ \\ |_|   \\__,_|_| |_|\\___|\\__|_|\\___/|_| |_|___/",
      "gettokenIDtoSubtokenAddress(uint256)": {
        "notice": "this is  mapped against unique numbers"
      },
      "initializeConstruct(string,string,address,address)": {
        "notice": "Deploys a new batch of CarbonVCU NFTs that have Metadata enabled"
      },
      "isOffset(uint256)": {
        "notice": "this loops through the contracts and can use a LOT of gas"
      },
      "mintVCU(address,uint256,string,uint256,string,uint256,string,string,uint256,uint256,uint256,uint256,uint256)": {
        "notice": "Mint a new VCU using VCS details"
      },
      "setNFTUri(string,uint256)": {
        "notice": "Uses internal _setTokenURI function to achieve this"
      },
      "setProxyAdmin(address)": {
        "notice": "Meant to update the proxyAdmin address, that was added in new version."
      },
      "updateVCUSubtokenFactory(address)": {
        "notice": "Meant to update interface if it ever needs to change, although unlikely given it uses Proxies"
      }
    },
    "notice": "CarbonVCU NFT Contract \r"
  }
}