{
  "contractName": "ERC20Mintable",
  "abi": [
    {
      "anonymous": false,
      "inputs": [
        {
          "indexed": true,
          "internalType": "address",
          "name": "owner",
          "type": "address"
        },
        {
          "indexed": true,
          "internalType": "address",
          "name": "spender",
          "type": "address"
        },
        {
          "indexed": false,
          "internalType": "uint256",
          "name": "value",
          "type": "uint256"
        }
      ],
      "name": "Approval",
      "type": "event"
    },
    {
      "anonymous": false,
      "inputs": [
        {
          "indexed": true,
          "internalType": "address",
          "name": "account",
          "type": "address"
        }
      ],
      "name": "MinterAdded",
      "type": "event"
    },
    {
      "anonymous": false,
      "inputs": [
        {
          "indexed": true,
          "internalType": "address",
          "name": "account",
          "type": "address"
        }
      ],
      "name": "MinterRemoved",
      "type": "event"
    },
    {
      "anonymous": false,
      "inputs": [
        {
          "indexed": true,
          "internalType": "address",
          "name": "from",
          "type": "address"
        },
        {
          "indexed": true,
          "internalType": "address",
          "name": "to",
          "type": "address"
        },
        {
          "indexed": false,
          "internalType": "uint256",
          "name": "value",
          "type": "uint256"
        }
      ],
      "name": "Transfer",
      "type": "event"
    },
    {
      "constant": false,
      "inputs": [
        {
          "internalType": "address",
          "name": "account",
          "type": "address"
        }
      ],
      "name": "addMinter",
      "outputs": [],
      "payable": false,
      "stateMutability": "nonpayable",
      "type": "function"
    },
    {
      "constant": true,
      "inputs": [
        {
          "internalType": "address",
          "name": "owner",
          "type": "address"
        },
        {
          "internalType": "address",
          "name": "spender",
          "type": "address"
        }
      ],
      "name": "allowance",
      "outputs": [
        {
          "internalType": "uint256",
          "name": "",
          "type": "uint256"
        }
      ],
      "payable": false,
      "stateMutability": "view",
      "type": "function"
    },
    {
      "constant": false,
      "inputs": [
        {
          "internalType": "address",
          "name": "spender",
          "type": "address"
        },
        {
          "internalType": "uint256",
          "name": "amount",
          "type": "uint256"
        }
      ],
      "name": "approve",
      "outputs": [
        {
          "internalType": "bool",
          "name": "",
          "type": "bool"
        }
      ],
      "payable": false,
      "stateMutability": "nonpayable",
      "type": "function"
    },
    {
      "constant": true,
      "inputs": [
        {
          "internalType": "address",
          "name": "account",
          "type": "address"
        }
      ],
      "name": "balanceOf",
      "outputs": [
        {
          "internalType": "uint256",
          "name": "",
          "type": "uint256"
        }
      ],
      "payable": false,
      "stateMutability": "view",
      "type": "function"
    },
    {
      "constant": false,
      "inputs": [
        {
          "internalType": "address",
          "name": "spender",
          "type": "address"
        },
        {
          "internalType": "uint256",
          "name": "subtractedValue",
          "type": "uint256"
        }
      ],
      "name": "decreaseAllowance",
      "outputs": [
        {
          "internalType": "bool",
          "name": "",
          "type": "bool"
        }
      ],
      "payable": false,
      "stateMutability": "nonpayable",
      "type": "function"
    },
    {
      "constant": false,
      "inputs": [
        {
          "internalType": "address",
          "name": "spender",
          "type": "address"
        },
        {
          "internalType": "uint256",
          "name": "addedValue",
          "type": "uint256"
        }
      ],
      "name": "increaseAllowance",
      "outputs": [
        {
          "internalType": "bool",
          "name": "",
          "type": "bool"
        }
      ],
      "payable": false,
      "stateMutability": "nonpayable",
      "type": "function"
    },
    {
      "constant": true,
      "inputs": [
        {
          "internalType": "address",
          "name": "account",
          "type": "address"
        }
      ],
      "name": "isMinter",
      "outputs": [
        {
          "internalType": "bool",
          "name": "",
          "type": "bool"
        }
      ],
      "payable": false,
      "stateMutability": "view",
      "type": "function"
    },
    {
      "constant": false,
      "inputs": [],
      "name": "renounceMinter",
      "outputs": [],
      "payable": false,
      "stateMutability": "nonpayable",
      "type": "function"
    },
    {
      "constant": true,
      "inputs": [],
      "name": "totalSupply",
      "outputs": [
        {
          "internalType": "uint256",
          "name": "",
          "type": "uint256"
        }
      ],
      "payable": false,
      "stateMutability": "view",
      "type": "function"
    },
    {
      "constant": false,
      "inputs": [
        {
          "internalType": "address",
          "name": "recipient",
          "type": "address"
        },
        {
          "internalType": "uint256",
          "name": "amount",
          "type": "uint256"
        }
      ],
      "name": "transfer",
      "outputs": [
        {
          "internalType": "bool",
          "name": "",
          "type": "bool"
        }
      ],
      "payable": false,
      "stateMutability": "nonpayable",
      "type": "function"
    },
    {
      "constant": false,
      "inputs": [
        {
          "internalType": "address",
          "name": "sender",
          "type": "address"
        },
        {
          "internalType": "address",
          "name": "recipient",
          "type": "address"
        },
        {
          "internalType": "uint256",
          "name": "amount",
          "type": "uint256"
        }
      ],
      "name": "transferFrom",
      "outputs": [
        {
          "internalType": "bool",
          "name": "",
          "type": "bool"
        }
      ],
      "payable": false,
      "stateMutability": "nonpayable",
      "type": "function"
    },
    {
      "constant": false,
      "inputs": [
        {
          "internalType": "address",
          "name": "sender",
          "type": "address"
        }
      ],
      "name": "initialize",
      "outputs": [],
      "payable": false,
      "stateMutability": "nonpayable",
      "type": "function"
    },
    {
      "constant": false,
      "inputs": [
        {
          "internalType": "address",
          "name": "account",
          "type": "address"
        },
        {
          "internalType": "uint256",
          "name": "amount",
          "type": "uint256"
        }
      ],
      "name": "mint",
      "outputs": [
        {
          "internalType": "bool",
          "name": "",
          "type": "bool"
        }
      ],
      "payable": false,
      "stateMutability": "nonpayable",
      "type": "function"
    }
  ],
  "bytecode": "0x6080604052610ed7806100136000396000f3fe608060405234801561001057600080fd5b50600436106100df5760003560e01c8063983b2d561161008c578063a9059cbb11610066578063a9059cbb1461024e578063aa271e1a1461027a578063c4d66de8146102a0578063dd62ed3e146102c6576100df565b8063983b2d56146101f2578063986502751461021a578063a457c2d714610222576100df565b806339509351116100bd578063395093511461017457806340c10f19146101a057806370a08231146101cc576100df565b8063095ea7b3146100e457806318160ddd1461012457806323b872dd1461013e575b600080fd5b610110600480360360408110156100fa57600080fd5b506001600160a01b0381351690602001356102f4565b604080519115158252519081900360200190f35b61012c610311565b60408051918252519081900360200190f35b6101106004803603606081101561015457600080fd5b506001600160a01b03813581169160208101359091169060400135610317565b6101106004803603604081101561018a57600080fd5b506001600160a01b0381351690602001356103a4565b610110600480360360408110156101b657600080fd5b506001600160a01b0381351690602001356103f8565b61012c600480360360208110156101e257600080fd5b50356001600160a01b031661044f565b6102186004803603602081101561020857600080fd5b50356001600160a01b031661046a565b005b6102186104bc565b6101106004803603604081101561023857600080fd5b506001600160a01b0381351690602001356104ce565b6101106004803603604081101561026457600080fd5b506001600160a01b03813516906020013561053c565b6101106004803603602081101561029057600080fd5b50356001600160a01b0316610550565b610218600480360360208110156102b657600080fd5b50356001600160a01b0316610569565b61012c600480360360408110156102dc57600080fd5b506001600160a01b0381358116916020013516610615565b6000610308610301610640565b8484610644565b50600192915050565b60355490565b6000610324848484610730565b61039a84610330610640565b61039585604051806060016040528060288152602001610dbd602891396001600160a01b038a1660009081526034602052604081209061036e610640565b6001600160a01b03168152602081019190915260400160002054919063ffffffff61088e16565b610644565b5060019392505050565b60006103086103b1610640565b8461039585603460006103c2610640565b6001600160a01b03908116825260208083019390935260409182016000908120918c16815292529020549063ffffffff61092516565b600061040a610405610640565b610550565b6104455760405162461bcd60e51b8152600401808060200182810382526030815260200180610d6c6030913960400191505060405180910390fd5b6103088383610986565b6001600160a01b031660009081526033602052604090205490565b610475610405610640565b6104b05760405162461bcd60e51b8152600401808060200182810382526030815260200180610d6c6030913960400191505060405180910390fd5b6104b981610a78565b50565b6104cc6104c7610640565b610ac0565b565b60006103086104db610640565b8461039585604051806060016040528060258152602001610e7e6025913960346000610505610640565b6001600160a01b03908116825260208083019390935260409182016000908120918d1681529252902054919063ffffffff61088e16565b6000610308610549610640565b8484610730565b600061056360688363ffffffff610b0816565b92915050565b600054610100900460ff16806105825750610582610b6f565b80610590575060005460ff16155b6105cb5760405162461bcd60e51b815260040180806020018281038252602e815260200180610e07602e913960400191505060405180910390fd5b600054610100900460ff161580156105f6576000805460ff1961ff0019909116610100171660011790555b6105ff82610b75565b8015610611576000805461ff00191690555b5050565b6001600160a01b03918216600090815260346020908152604080832093909416825291909152205490565b3390565b6001600160a01b0383166106895760405162461bcd60e51b8152600401808060200182810382526024815260200180610e5a6024913960400191505060405180910390fd5b6001600160a01b0382166106ce5760405162461bcd60e51b8152600401808060200182810382526022815260200180610d246022913960400191505060405180910390fd5b6001600160a01b03808416600081815260346020908152604080832094871680845294825291829020859055815185815291517f8c5be1e5ebec7d5bd14f71427d1e84f3dd0314c0f7b2291e5b200ac8c7c3b9259281900390910190a3505050565b6001600160a01b0383166107755760405162461bcd60e51b8152600401808060200182810382526025815260200180610e356025913960400191505060405180910390fd5b6001600160a01b0382166107ba5760405162461bcd60e51b8152600401808060200182810382526023815260200180610d016023913960400191505060405180910390fd5b6107fd81604051806060016040528060268152602001610d46602691396001600160a01b038616600090815260336020526040902054919063ffffffff61088e16565b6001600160a01b038085166000908152603360205260408082209390935590841681522054610832908263ffffffff61092516565b6001600160a01b0380841660008181526033602090815260409182902094909455805185815290519193928716927fddf252ad1be2c89b69c2b068fc378daa952ba7f163c4a11628f55a4df523b3ef92918290030190a3505050565b6000818484111561091d5760405162461bcd60e51b81526004018080602001828103825283818151815260200191508051906020019080838360005b838110156108e25781810151838201526020016108ca565b50505050905090810190601f16801561090f5780820380516001836020036101000a031916815260200191505b509250505060405180910390fd5b505050900390565b60008282018381101561097f576040805162461bcd60e51b815260206004820152601b60248201527f536166654d6174683a206164646974696f6e206f766572666c6f770000000000604482015290519081900360640190fd5b9392505050565b6001600160a01b0382166109e1576040805162461bcd60e51b815260206004820152601f60248201527f45524332303a206d696e7420746f20746865207a65726f206164647265737300604482015290519081900360640190fd5b6035546109f4908263ffffffff61092516565b6035556001600160a01b038216600090815260336020526040902054610a20908263ffffffff61092516565b6001600160a01b03831660008181526033602090815260408083209490945583518581529351929391927fddf252ad1be2c89b69c2b068fc378daa952ba7f163c4a11628f55a4df523b3ef9281900390910190a35050565b610a8960688263ffffffff610c1816565b6040516001600160a01b038216907f6ae172837ea30b801fbfcdd4108aa1d5bf8ff775444fd70256b44e6bf3dfc3f690600090a250565b610ad160688263ffffffff610c9916565b6040516001600160a01b038216907fe94479a9f7e1952cc78f2d6baab678adc1b772d936c6583def489e524cb6669290600090a250565b60006001600160a01b038216610b4f5760405162461bcd60e51b8152600401808060200182810382526022815260200180610de56022913960400191505060405180910390fd5b506001600160a01b03166000908152602091909152604090205460ff1690565b303b1590565b600054610100900460ff1680610b8e5750610b8e610b6f565b80610b9c575060005460ff16155b610bd75760405162461bcd60e51b815260040180806020018281038252602e815260200180610e07602e913960400191505060405180910390fd5b600054610100900460ff16158015610c02576000805460ff1961ff0019909116610100171660011790555b610c0b82610550565b6105ff576105ff82610a78565b610c228282610b08565b15610c74576040805162461bcd60e51b815260206004820152601f60248201527f526f6c65733a206163636f756e7420616c72656164792068617320726f6c6500604482015290519081900360640190fd5b6001600160a01b0316600090815260209190915260409020805460ff19166001179055565b610ca38282610b08565b610cde5760405162461bcd60e51b8152600401808060200182810382526021815260200180610d9c6021913960400191505060405180910390fd5b6001600160a01b0316600090815260209190915260409020805460ff1916905556fe45524332303a207472616e7366657220746f20746865207a65726f206164647265737345524332303a20617070726f766520746f20746865207a65726f206164647265737345524332303a207472616e7366657220616d6f756e7420657863656564732062616c616e63654d696e746572526f6c653a2063616c6c657220646f6573206e6f74206861766520746865204d696e74657220726f6c65526f6c65733a206163636f756e7420646f6573206e6f74206861766520726f6c6545524332303a207472616e7366657220616d6f756e74206578636565647320616c6c6f77616e6365526f6c65733a206163636f756e7420697320746865207a65726f2061646472657373436f6e747261637420696e7374616e63652068617320616c7265616479206265656e20696e697469616c697a656445524332303a207472616e736665722066726f6d20746865207a65726f206164647265737345524332303a20617070726f76652066726f6d20746865207a65726f206164647265737345524332303a2064656372656173656420616c6c6f77616e63652062656c6f77207a65726fa265627a7a723158207cee354b8f50870eb0a22abe06ccefba9772a0648996edaf7b0848bb2df158c664736f6c63430005100032",
  "source": "pragma solidity ^0.5.0;\n\nimport \"@openzeppelin/upgrades/contracts/Initializable.sol\";\nimport \"./ERC20.sol\";\nimport \"../../access/roles/MinterRole.sol\";\n\n/**\n * @dev Extension of {ERC20} that adds a set of accounts with the {MinterRole},\n * which have permission to mint (create) new tokens as they see fit.\n *\n * At construction, the deployer of the contract is the only minter.\n */\ncontract ERC20Mintable is Initializable, ERC20, MinterRole {\n    function initialize(address sender) public initializer {\n        MinterRole.initialize(sender);\n    }\n\n    /**\n     * @dev See {ERC20-_mint}.\n     *\n     * Requirements:\n     *\n     * - the caller must have the {MinterRole}.\n     */\n    function mint(address account, uint256 amount) public onlyMinter returns (bool) {\n        _mint(account, amount);\n        return true;\n    }\n\n    uint256[50] private ______gap;\n}\n",
  "sourcePath": "@openzeppelin/contracts-ethereum-package/contracts/token/ERC20/ERC20Mintable.sol",
  "compiler": {
    "name": "solc",
    "version": "0.5.16+commit.9c3226ce.Emscripten.clang"
  },
  "schemaVersion": "3.2.2",
  "updatedAt": "2020-08-17T13:56:44.445Z",
  "devdoc": {
    "details": "Extension of {ERC20} that adds a set of accounts with the {MinterRole}, which have permission to mint (create) new tokens as they see fit. * At construction, the deployer of the contract is the only minter.",
    "methods": {
      "allowance(address,address)": {
        "details": "See {IERC20-allowance}."
      },
      "approve(address,uint256)": {
        "details": "See {IERC20-approve}.     * Requirements:     * - `spender` cannot be the zero address."
      },
      "balanceOf(address)": {
        "details": "See {IERC20-balanceOf}."
      },
      "decreaseAllowance(address,uint256)": {
        "details": "Atomically decreases the allowance granted to `spender` by the caller.     * This is an alternative to {approve} that can be used as a mitigation for problems described in {IERC20-approve}.     * Emits an {Approval} event indicating the updated allowance.     * Requirements:     * - `spender` cannot be the zero address. - `spender` must have allowance for the caller of at least `subtractedValue`."
      },
      "increaseAllowance(address,uint256)": {
        "details": "Atomically increases the allowance granted to `spender` by the caller.     * This is an alternative to {approve} that can be used as a mitigation for problems described in {IERC20-approve}.     * Emits an {Approval} event indicating the updated allowance.     * Requirements:     * - `spender` cannot be the zero address."
      },
      "mint(address,uint256)": {
        "details": "See {ERC20-_mint}.     * Requirements:     * - the caller must have the {MinterRole}."
      },
      "totalSupply()": {
        "details": "See {IERC20-totalSupply}."
      },
      "transfer(address,uint256)": {
        "details": "See {IERC20-transfer}.     * Requirements:     * - `recipient` cannot be the zero address. - the caller must have a balance of at least `amount`."
      },
      "transferFrom(address,address,uint256)": {
        "details": "See {IERC20-transferFrom}.     * Emits an {Approval} event indicating the updated allowance. This is not required by the EIP. See the note at the beginning of {ERC20};     * Requirements: - `sender` and `recipient` cannot be the zero address. - `sender` must have a balance of at least `amount`. - the caller must have allowance for `sender`'s tokens of at least `amount`."
      }
    }
  },
  "userdoc": {
    "methods": {}
  }
}