{
  "contractName": "ERC20Capped",
  "abi": [
    {
      "anonymous": false,
      "inputs": [
        {
          "indexed": true,
          "internalType": "address",
          "name": "owner",
          "type": "address"
        },
        {
          "indexed": true,
          "internalType": "address",
          "name": "spender",
          "type": "address"
        },
        {
          "indexed": false,
          "internalType": "uint256",
          "name": "value",
          "type": "uint256"
        }
      ],
      "name": "Approval",
      "type": "event"
    },
    {
      "anonymous": false,
      "inputs": [
        {
          "indexed": true,
          "internalType": "address",
          "name": "account",
          "type": "address"
        }
      ],
      "name": "MinterAdded",
      "type": "event"
    },
    {
      "anonymous": false,
      "inputs": [
        {
          "indexed": true,
          "internalType": "address",
          "name": "account",
          "type": "address"
        }
      ],
      "name": "MinterRemoved",
      "type": "event"
    },
    {
      "anonymous": false,
      "inputs": [
        {
          "indexed": true,
          "internalType": "address",
          "name": "from",
          "type": "address"
        },
        {
          "indexed": true,
          "internalType": "address",
          "name": "to",
          "type": "address"
        },
        {
          "indexed": false,
          "internalType": "uint256",
          "name": "value",
          "type": "uint256"
        }
      ],
      "name": "Transfer",
      "type": "event"
    },
    {
      "constant": false,
      "inputs": [
        {
          "internalType": "address",
          "name": "account",
          "type": "address"
        }
      ],
      "name": "addMinter",
      "outputs": [],
      "payable": false,
      "stateMutability": "nonpayable",
      "type": "function"
    },
    {
      "constant": true,
      "inputs": [
        {
          "internalType": "address",
          "name": "owner",
          "type": "address"
        },
        {
          "internalType": "address",
          "name": "spender",
          "type": "address"
        }
      ],
      "name": "allowance",
      "outputs": [
        {
          "internalType": "uint256",
          "name": "",
          "type": "uint256"
        }
      ],
      "payable": false,
      "stateMutability": "view",
      "type": "function"
    },
    {
      "constant": false,
      "inputs": [
        {
          "internalType": "address",
          "name": "spender",
          "type": "address"
        },
        {
          "internalType": "uint256",
          "name": "amount",
          "type": "uint256"
        }
      ],
      "name": "approve",
      "outputs": [
        {
          "internalType": "bool",
          "name": "",
          "type": "bool"
        }
      ],
      "payable": false,
      "stateMutability": "nonpayable",
      "type": "function"
    },
    {
      "constant": true,
      "inputs": [
        {
          "internalType": "address",
          "name": "account",
          "type": "address"
        }
      ],
      "name": "balanceOf",
      "outputs": [
        {
          "internalType": "uint256",
          "name": "",
          "type": "uint256"
        }
      ],
      "payable": false,
      "stateMutability": "view",
      "type": "function"
    },
    {
      "constant": false,
      "inputs": [
        {
          "internalType": "address",
          "name": "spender",
          "type": "address"
        },
        {
          "internalType": "uint256",
          "name": "subtractedValue",
          "type": "uint256"
        }
      ],
      "name": "decreaseAllowance",
      "outputs": [
        {
          "internalType": "bool",
          "name": "",
          "type": "bool"
        }
      ],
      "payable": false,
      "stateMutability": "nonpayable",
      "type": "function"
    },
    {
      "constant": false,
      "inputs": [
        {
          "internalType": "address",
          "name": "spender",
          "type": "address"
        },
        {
          "internalType": "uint256",
          "name": "addedValue",
          "type": "uint256"
        }
      ],
      "name": "increaseAllowance",
      "outputs": [
        {
          "internalType": "bool",
          "name": "",
          "type": "bool"
        }
      ],
      "payable": false,
      "stateMutability": "nonpayable",
      "type": "function"
    },
    {
      "constant": true,
      "inputs": [
        {
          "internalType": "address",
          "name": "account",
          "type": "address"
        }
      ],
      "name": "isMinter",
      "outputs": [
        {
          "internalType": "bool",
          "name": "",
          "type": "bool"
        }
      ],
      "payable": false,
      "stateMutability": "view",
      "type": "function"
    },
    {
      "constant": false,
      "inputs": [
        {
          "internalType": "address",
          "name": "account",
          "type": "address"
        },
        {
          "internalType": "uint256",
          "name": "amount",
          "type": "uint256"
        }
      ],
      "name": "mint",
      "outputs": [
        {
          "internalType": "bool",
          "name": "",
          "type": "bool"
        }
      ],
      "payable": false,
      "stateMutability": "nonpayable",
      "type": "function"
    },
    {
      "constant": false,
      "inputs": [],
      "name": "renounceMinter",
      "outputs": [],
      "payable": false,
      "stateMutability": "nonpayable",
      "type": "function"
    },
    {
      "constant": true,
      "inputs": [],
      "name": "totalSupply",
      "outputs": [
        {
          "internalType": "uint256",
          "name": "",
          "type": "uint256"
        }
      ],
      "payable": false,
      "stateMutability": "view",
      "type": "function"
    },
    {
      "constant": false,
      "inputs": [
        {
          "internalType": "address",
          "name": "recipient",
          "type": "address"
        },
        {
          "internalType": "uint256",
          "name": "amount",
          "type": "uint256"
        }
      ],
      "name": "transfer",
      "outputs": [
        {
          "internalType": "bool",
          "name": "",
          "type": "bool"
        }
      ],
      "payable": false,
      "stateMutability": "nonpayable",
      "type": "function"
    },
    {
      "constant": false,
      "inputs": [
        {
          "internalType": "address",
          "name": "sender",
          "type": "address"
        },
        {
          "internalType": "address",
          "name": "recipient",
          "type": "address"
        },
        {
          "internalType": "uint256",
          "name": "amount",
          "type": "uint256"
        }
      ],
      "name": "transferFrom",
      "outputs": [
        {
          "internalType": "bool",
          "name": "",
          "type": "bool"
        }
      ],
      "payable": false,
      "stateMutability": "nonpayable",
      "type": "function"
    },
    {
      "constant": false,
      "inputs": [
        {
          "internalType": "address",
          "name": "sender",
          "type": "address"
        }
      ],
      "name": "initialize",
      "outputs": [],
      "payable": false,
      "stateMutability": "nonpayable",
      "type": "function"
    },
    {
      "constant": false,
      "inputs": [
        {
          "internalType": "uint256",
          "name": "cap",
          "type": "uint256"
        },
        {
          "internalType": "address",
          "name": "sender",
          "type": "address"
        }
      ],
      "name": "initialize",
      "outputs": [],
      "payable": false,
      "stateMutability": "nonpayable",
      "type": "function"
    },
    {
      "constant": true,
      "inputs": [],
      "name": "cap",
      "outputs": [
        {
          "internalType": "uint256",
          "name": "",
          "type": "uint256"
        }
      ],
      "payable": false,
      "stateMutability": "view",
      "type": "function"
    }
  ],
  "bytecode": "0x60806040526110a6806100136000396000f3fe608060405234801561001057600080fd5b50600436106100f55760003560e01c8063983b2d5611610097578063aa271e1a11610066578063aa271e1a14610298578063c4d66de8146102be578063da35a26f146102e4578063dd62ed3e14610310576100f5565b8063983b2d56146102105780639865027514610238578063a457c2d714610240578063a9059cbb1461026c576100f5565b8063355274ea116100d3578063355274ea1461018a578063395093511461019257806340c10f19146101be57806370a08231146101ea576100f5565b8063095ea7b3146100fa57806318160ddd1461013a57806323b872dd14610154575b600080fd5b6101266004803603604081101561011057600080fd5b506001600160a01b03813516906020013561033e565b604080519115158252519081900360200190f35b61014261035b565b60408051918252519081900360200190f35b6101266004803603606081101561016a57600080fd5b506001600160a01b03813581169160208101359091169060400135610361565b6101426103ee565b610126600480360360408110156101a857600080fd5b506001600160a01b0381351690602001356103f4565b610126600480360360408110156101d457600080fd5b506001600160a01b038135169060200135610448565b6101426004803603602081101561020057600080fd5b50356001600160a01b031661049f565b6102366004803603602081101561022657600080fd5b50356001600160a01b03166104ba565b005b61023661050c565b6101266004803603604081101561025657600080fd5b506001600160a01b03813516906020013561051e565b6101266004803603604081101561028257600080fd5b506001600160a01b03813516906020013561058c565b610126600480360360208110156102ae57600080fd5b50356001600160a01b03166105a0565b610236600480360360208110156102d457600080fd5b50356001600160a01b03166105b9565b610236600480360360408110156102fa57600080fd5b50803590602001356001600160a01b0316610665565b6101426004803603604081101561032657600080fd5b506001600160a01b038135811691602001351661076c565b600061035261034b610797565b848461079b565b50600192915050565b60355490565b600061036e848484610887565b6103e48461037a610797565b6103df85604051806060016040528060288152602001610f8c602891396001600160a01b038a166000908152603460205260408120906103b8610797565b6001600160a01b03168152602081019190915260400160002054919063ffffffff6109e516565b61079b565b5060019392505050565b60cd5490565b6000610352610401610797565b846103df8560346000610412610797565b6001600160a01b03908116825260208083019390935260409182016000908120918c16815292529020549063ffffffff610a7c16565b600061045a610455610797565b6105a0565b6104955760405162461bcd60e51b8152600401808060200182810382526030815260200180610f3b6030913960400191505060405180910390fd5b6103528383610add565b6001600160a01b031660009081526033602052604090205490565b6104c5610455610797565b6105005760405162461bcd60e51b8152600401808060200182810382526030815260200180610f3b6030913960400191505060405180910390fd5b61050981610b55565b50565b61051c610517610797565b610b9d565b565b600061035261052b610797565b846103df8560405180606001604052806025815260200161104d6025913960346000610555610797565b6001600160a01b03908116825260208083019390935260409182016000908120918d1681529252902054919063ffffffff6109e516565b6000610352610599610797565b8484610887565b60006105b360688363ffffffff610be516565b92915050565b600054610100900460ff16806105d257506105d2610c4c565b806105e0575060005460ff16155b61061b5760405162461bcd60e51b815260040180806020018281038252602e815260200180610fd6602e913960400191505060405180910390fd5b600054610100900460ff16158015610646576000805460ff1961ff0019909116610100171660011790555b61064f82610c52565b8015610661576000805461ff00191690555b5050565b600054610100900460ff168061067e575061067e610c4c565b8061068c575060005460ff16155b6106c75760405162461bcd60e51b815260040180806020018281038252602e815260200180610fd6602e913960400191505060405180910390fd5b600054610100900460ff161580156106f2576000805460ff1961ff0019909116610100171660011790555b6106fb826105b9565b60008311610750576040805162461bcd60e51b815260206004820152601560248201527f45524332304361707065643a2063617020697320300000000000000000000000604482015290519081900360640190fd5b60cd8390558015610767576000805461ff00191690555b505050565b6001600160a01b03918216600090815260346020908152604080832093909416825291909152205490565b3390565b6001600160a01b0383166107e05760405162461bcd60e51b81526004018080602001828103825260248152602001806110296024913960400191505060405180910390fd5b6001600160a01b0382166108255760405162461bcd60e51b8152600401808060200182810382526022815260200180610ef36022913960400191505060405180910390fd5b6001600160a01b03808416600081815260346020908152604080832094871680845294825291829020859055815185815291517f8c5be1e5ebec7d5bd14f71427d1e84f3dd0314c0f7b2291e5b200ac8c7c3b9259281900390910190a3505050565b6001600160a01b0383166108cc5760405162461bcd60e51b81526004018080602001828103825260258152602001806110046025913960400191505060405180910390fd5b6001600160a01b0382166109115760405162461bcd60e51b8152600401808060200182810382526023815260200180610ed06023913960400191505060405180910390fd5b61095481604051806060016040528060268152602001610f15602691396001600160a01b038616600090815260336020526040902054919063ffffffff6109e516565b6001600160a01b038085166000908152603360205260408082209390935590841681522054610989908263ffffffff610a7c16565b6001600160a01b0380841660008181526033602090815260409182902094909455805185815290519193928716927fddf252ad1be2c89b69c2b068fc378daa952ba7f163c4a11628f55a4df523b3ef92918290030190a3505050565b60008184841115610a745760405162461bcd60e51b81526004018080602001828103825283818151815260200191508051906020019080838360005b83811015610a39578181015183820152602001610a21565b50505050905090810190601f168015610a665780820380516001836020036101000a031916815260200191505b509250505060405180910390fd5b505050900390565b600082820183811015610ad6576040805162461bcd60e51b815260206004820152601b60248201527f536166654d6174683a206164646974696f6e206f766572666c6f770000000000604482015290519081900360640190fd5b9392505050565b60cd54610af882610aec61035b565b9063ffffffff610a7c16565b1115610b4b576040805162461bcd60e51b815260206004820152601960248201527f45524332304361707065643a2063617020657863656564656400000000000000604482015290519081900360640190fd5b6106618282610cf5565b610b6660688263ffffffff610de716565b6040516001600160a01b038216907f6ae172837ea30b801fbfcdd4108aa1d5bf8ff775444fd70256b44e6bf3dfc3f690600090a250565b610bae60688263ffffffff610e6816565b6040516001600160a01b038216907fe94479a9f7e1952cc78f2d6baab678adc1b772d936c6583def489e524cb6669290600090a250565b60006001600160a01b038216610c2c5760405162461bcd60e51b8152600401808060200182810382526022815260200180610fb46022913960400191505060405180910390fd5b506001600160a01b03166000908152602091909152604090205460ff1690565b303b1590565b600054610100900460ff1680610c6b5750610c6b610c4c565b80610c79575060005460ff16155b610cb45760405162461bcd60e51b815260040180806020018281038252602e815260200180610fd6602e913960400191505060405180910390fd5b600054610100900460ff16158015610cdf576000805460ff1961ff0019909116610100171660011790555b610ce8826105a0565b61064f5761064f82610b55565b6001600160a01b038216610d50576040805162461bcd60e51b815260206004820152601f60248201527f45524332303a206d696e7420746f20746865207a65726f206164647265737300604482015290519081900360640190fd5b603554610d63908263ffffffff610a7c16565b6035556001600160a01b038216600090815260336020526040902054610d8f908263ffffffff610a7c16565b6001600160a01b03831660008181526033602090815260408083209490945583518581529351929391927fddf252ad1be2c89b69c2b068fc378daa952ba7f163c4a11628f55a4df523b3ef9281900390910190a35050565b610df18282610be5565b15610e43576040805162461bcd60e51b815260206004820152601f60248201527f526f6c65733a206163636f756e7420616c72656164792068617320726f6c6500604482015290519081900360640190fd5b6001600160a01b0316600090815260209190915260409020805460ff19166001179055565b610e728282610be5565b610ead5760405162461bcd60e51b8152600401808060200182810382526021815260200180610f6b6021913960400191505060405180910390fd5b6001600160a01b0316600090815260209190915260409020805460ff1916905556fe45524332303a207472616e7366657220746f20746865207a65726f206164647265737345524332303a20617070726f766520746f20746865207a65726f206164647265737345524332303a207472616e7366657220616d6f756e7420657863656564732062616c616e63654d696e746572526f6c653a2063616c6c657220646f6573206e6f74206861766520746865204d696e74657220726f6c65526f6c65733a206163636f756e7420646f6573206e6f74206861766520726f6c6545524332303a207472616e7366657220616d6f756e74206578636565647320616c6c6f77616e6365526f6c65733a206163636f756e7420697320746865207a65726f2061646472657373436f6e747261637420696e7374616e63652068617320616c7265616479206265656e20696e697469616c697a656445524332303a207472616e736665722066726f6d20746865207a65726f206164647265737345524332303a20617070726f76652066726f6d20746865207a65726f206164647265737345524332303a2064656372656173656420616c6c6f77616e63652062656c6f77207a65726fa265627a7a72315820892396c78bb20a3f5ecd5b5ae39d4c4123089f47fe62d8fd28c637d5fbb7795a64736f6c63430005100032",
  "source": "pragma solidity ^0.5.0;\n\nimport \"@openzeppelin/upgrades/contracts/Initializable.sol\";\nimport \"./ERC20Mintable.sol\";\n\n/**\n * @dev Extension of {ERC20Mintable} that adds a cap to the supply of tokens.\n */\ncontract ERC20Capped is Initializable, ERC20Mintable {\n    uint256 private _cap;\n\n    /**\n     * @dev Sets the value of the `cap`. This value is immutable, it can only be\n     * set once during construction.\n     */\n    function initialize(uint256 cap, address sender) public initializer {\n        ERC20Mintable.initialize(sender);\n\n        require(cap > 0, \"ERC20Capped: cap is 0\");\n        _cap = cap;\n    }\n\n    /**\n     * @dev Returns the cap on the token's total supply.\n     */\n    function cap() public view returns (uint256) {\n        return _cap;\n    }\n\n    /**\n     * @dev See {ERC20Mintable-mint}.\n     *\n     * Requirements:\n     *\n     * - `value` must not cause the total supply to go over the cap.\n     */\n    function _mint(address account, uint256 value) internal {\n        require(totalSupply().add(value) <= _cap, \"ERC20Capped: cap exceeded\");\n        super._mint(account, value);\n    }\n\n    uint256[50] private ______gap;\n}\n",
  "sourcePath": "@openzeppelin/contracts-ethereum-package/contracts/token/ERC20/ERC20Capped.sol",
  "compiler": {
    "name": "solc",
    "version": "0.5.16+commit.9c3226ce.Emscripten.clang"
  },
  "schemaVersion": "3.2.2",
  "updatedAt": "2020-08-17T13:56:44.442Z",
  "devdoc": {
    "details": "Extension of {ERC20Mintable} that adds a cap to the supply of tokens.",
    "methods": {
      "allowance(address,address)": {
        "details": "See {IERC20-allowance}."
      },
      "approve(address,uint256)": {
        "details": "See {IERC20-approve}.     * Requirements:     * - `spender` cannot be the zero address."
      },
      "balanceOf(address)": {
        "details": "See {IERC20-balanceOf}."
      },
      "cap()": {
        "details": "Returns the cap on the token's total supply."
      },
      "decreaseAllowance(address,uint256)": {
        "details": "Atomically decreases the allowance granted to `spender` by the caller.     * This is an alternative to {approve} that can be used as a mitigation for problems described in {IERC20-approve}.     * Emits an {Approval} event indicating the updated allowance.     * Requirements:     * - `spender` cannot be the zero address. - `spender` must have allowance for the caller of at least `subtractedValue`."
      },
      "increaseAllowance(address,uint256)": {
        "details": "Atomically increases the allowance granted to `spender` by the caller.     * This is an alternative to {approve} that can be used as a mitigation for problems described in {IERC20-approve}.     * Emits an {Approval} event indicating the updated allowance.     * Requirements:     * - `spender` cannot be the zero address."
      },
      "initialize(uint256,address)": {
        "details": "Sets the value of the `cap`. This value is immutable, it can only be set once during construction."
      },
      "mint(address,uint256)": {
        "details": "See {ERC20-_mint}.     * Requirements:     * - the caller must have the {MinterRole}."
      },
      "totalSupply()": {
        "details": "See {IERC20-totalSupply}."
      },
      "transfer(address,uint256)": {
        "details": "See {IERC20-transfer}.     * Requirements:     * - `recipient` cannot be the zero address. - the caller must have a balance of at least `amount`."
      },
      "transferFrom(address,address,uint256)": {
        "details": "See {IERC20-transferFrom}.     * Emits an {Approval} event indicating the updated allowance. This is not required by the EIP. See the note at the beginning of {ERC20};     * Requirements: - `sender` and `recipient` cannot be the zero address. - `sender` must have a balance of at least `amount`. - the caller must have allowance for `sender`'s tokens of at least `amount`."
      }
    }
  },
  "userdoc": {
    "methods": {}
  }
}