{
  "contractName": "ERC721MetadataMintable",
  "abi": [
    {
      "anonymous": false,
      "inputs": [
        {
          "indexed": true,
          "internalType": "address",
          "name": "owner",
          "type": "address"
        },
        {
          "indexed": true,
          "internalType": "address",
          "name": "approved",
          "type": "address"
        },
        {
          "indexed": true,
          "internalType": "uint256",
          "name": "tokenId",
          "type": "uint256"
        }
      ],
      "name": "Approval",
      "type": "event"
    },
    {
      "anonymous": false,
      "inputs": [
        {
          "indexed": true,
          "internalType": "address",
          "name": "owner",
          "type": "address"
        },
        {
          "indexed": true,
          "internalType": "address",
          "name": "operator",
          "type": "address"
        },
        {
          "indexed": false,
          "internalType": "bool",
          "name": "approved",
          "type": "bool"
        }
      ],
      "name": "ApprovalForAll",
      "type": "event"
    },
    {
      "anonymous": false,
      "inputs": [
        {
          "indexed": true,
          "internalType": "address",
          "name": "account",
          "type": "address"
        }
      ],
      "name": "MinterAdded",
      "type": "event"
    },
    {
      "anonymous": false,
      "inputs": [
        {
          "indexed": true,
          "internalType": "address",
          "name": "account",
          "type": "address"
        }
      ],
      "name": "MinterRemoved",
      "type": "event"
    },
    {
      "anonymous": false,
      "inputs": [
        {
          "indexed": true,
          "internalType": "address",
          "name": "from",
          "type": "address"
        },
        {
          "indexed": true,
          "internalType": "address",
          "name": "to",
          "type": "address"
        },
        {
          "indexed": true,
          "internalType": "uint256",
          "name": "tokenId",
          "type": "uint256"
        }
      ],
      "name": "Transfer",
      "type": "event"
    },
    {
      "constant": false,
      "inputs": [
        {
          "internalType": "address",
          "name": "account",
          "type": "address"
        }
      ],
      "name": "addMinter",
      "outputs": [],
      "payable": false,
      "stateMutability": "nonpayable",
      "type": "function"
    },
    {
      "constant": false,
      "inputs": [
        {
          "internalType": "address",
          "name": "to",
          "type": "address"
        },
        {
          "internalType": "uint256",
          "name": "tokenId",
          "type": "uint256"
        }
      ],
      "name": "approve",
      "outputs": [],
      "payable": false,
      "stateMutability": "nonpayable",
      "type": "function"
    },
    {
      "constant": true,
      "inputs": [
        {
          "internalType": "address",
          "name": "owner",
          "type": "address"
        }
      ],
      "name": "balanceOf",
      "outputs": [
        {
          "internalType": "uint256",
          "name": "",
          "type": "uint256"
        }
      ],
      "payable": false,
      "stateMutability": "view",
      "type": "function"
    },
    {
      "constant": true,
      "inputs": [],
      "name": "baseURI",
      "outputs": [
        {
          "internalType": "string",
          "name": "",
          "type": "string"
        }
      ],
      "payable": false,
      "stateMutability": "view",
      "type": "function"
    },
    {
      "constant": true,
      "inputs": [
        {
          "internalType": "uint256",
          "name": "tokenId",
          "type": "uint256"
        }
      ],
      "name": "getApproved",
      "outputs": [
        {
          "internalType": "address",
          "name": "",
          "type": "address"
        }
      ],
      "payable": false,
      "stateMutability": "view",
      "type": "function"
    },
    {
      "constant": true,
      "inputs": [
        {
          "internalType": "address",
          "name": "owner",
          "type": "address"
        },
        {
          "internalType": "address",
          "name": "operator",
          "type": "address"
        }
      ],
      "name": "isApprovedForAll",
      "outputs": [
        {
          "internalType": "bool",
          "name": "",
          "type": "bool"
        }
      ],
      "payable": false,
      "stateMutability": "view",
      "type": "function"
    },
    {
      "constant": true,
      "inputs": [
        {
          "internalType": "address",
          "name": "account",
          "type": "address"
        }
      ],
      "name": "isMinter",
      "outputs": [
        {
          "internalType": "bool",
          "name": "",
          "type": "bool"
        }
      ],
      "payable": false,
      "stateMutability": "view",
      "type": "function"
    },
    {
      "constant": true,
      "inputs": [],
      "name": "name",
      "outputs": [
        {
          "internalType": "string",
          "name": "",
          "type": "string"
        }
      ],
      "payable": false,
      "stateMutability": "view",
      "type": "function"
    },
    {
      "constant": true,
      "inputs": [
        {
          "internalType": "uint256",
          "name": "tokenId",
          "type": "uint256"
        }
      ],
      "name": "ownerOf",
      "outputs": [
        {
          "internalType": "address",
          "name": "",
          "type": "address"
        }
      ],
      "payable": false,
      "stateMutability": "view",
      "type": "function"
    },
    {
      "constant": false,
      "inputs": [],
      "name": "renounceMinter",
      "outputs": [],
      "payable": false,
      "stateMutability": "nonpayable",
      "type": "function"
    },
    {
      "constant": false,
      "inputs": [
        {
          "internalType": "address",
          "name": "from",
          "type": "address"
        },
        {
          "internalType": "address",
          "name": "to",
          "type": "address"
        },
        {
          "internalType": "uint256",
          "name": "tokenId",
          "type": "uint256"
        }
      ],
      "name": "safeTransferFrom",
      "outputs": [],
      "payable": false,
      "stateMutability": "nonpayable",
      "type": "function"
    },
    {
      "constant": false,
      "inputs": [
        {
          "internalType": "address",
          "name": "from",
          "type": "address"
        },
        {
          "internalType": "address",
          "name": "to",
          "type": "address"
        },
        {
          "internalType": "uint256",
          "name": "tokenId",
          "type": "uint256"
        },
        {
          "internalType": "bytes",
          "name": "_data",
          "type": "bytes"
        }
      ],
      "name": "safeTransferFrom",
      "outputs": [],
      "payable": false,
      "stateMutability": "nonpayable",
      "type": "function"
    },
    {
      "constant": false,
      "inputs": [
        {
          "internalType": "address",
          "name": "to",
          "type": "address"
        },
        {
          "internalType": "bool",
          "name": "approved",
          "type": "bool"
        }
      ],
      "name": "setApprovalForAll",
      "outputs": [],
      "payable": false,
      "stateMutability": "nonpayable",
      "type": "function"
    },
    {
      "constant": true,
      "inputs": [
        {
          "internalType": "bytes4",
          "name": "interfaceId",
          "type": "bytes4"
        }
      ],
      "name": "supportsInterface",
      "outputs": [
        {
          "internalType": "bool",
          "name": "",
          "type": "bool"
        }
      ],
      "payable": false,
      "stateMutability": "view",
      "type": "function"
    },
    {
      "constant": true,
      "inputs": [],
      "name": "symbol",
      "outputs": [
        {
          "internalType": "string",
          "name": "",
          "type": "string"
        }
      ],
      "payable": false,
      "stateMutability": "view",
      "type": "function"
    },
    {
      "constant": true,
      "inputs": [
        {
          "internalType": "uint256",
          "name": "tokenId",
          "type": "uint256"
        }
      ],
      "name": "tokenURI",
      "outputs": [
        {
          "internalType": "string",
          "name": "",
          "type": "string"
        }
      ],
      "payable": false,
      "stateMutability": "view",
      "type": "function"
    },
    {
      "constant": false,
      "inputs": [
        {
          "internalType": "address",
          "name": "from",
          "type": "address"
        },
        {
          "internalType": "address",
          "name": "to",
          "type": "address"
        },
        {
          "internalType": "uint256",
          "name": "tokenId",
          "type": "uint256"
        }
      ],
      "name": "transferFrom",
      "outputs": [],
      "payable": false,
      "stateMutability": "nonpayable",
      "type": "function"
    },
    {
      "constant": false,
      "inputs": [
        {
          "internalType": "string",
          "name": "name",
          "type": "string"
        },
        {
          "internalType": "string",
          "name": "symbol",
          "type": "string"
        }
      ],
      "name": "initialize",
      "outputs": [],
      "payable": false,
      "stateMutability": "nonpayable",
      "type": "function"
    },
    {
      "constant": false,
      "inputs": [],
      "name": "initialize",
      "outputs": [],
      "payable": false,
      "stateMutability": "nonpayable",
      "type": "function"
    },
    {
      "constant": false,
      "inputs": [
        {
          "internalType": "address",
          "name": "sender",
          "type": "address"
        }
      ],
      "name": "initialize",
      "outputs": [],
      "payable": false,
      "stateMutability": "nonpayable",
      "type": "function"
    },
    {
      "constant": false,
      "inputs": [
        {
          "internalType": "address",
          "name": "to",
          "type": "address"
        },
        {
          "internalType": "uint256",
          "name": "tokenId",
          "type": "uint256"
        },
        {
          "internalType": "string",
          "name": "tokenURI",
          "type": "string"
        }
      ],
      "name": "mintWithTokenURI",
      "outputs": [
        {
          "internalType": "bool",
          "name": "",
          "type": "bool"
        }
      ],
      "payable": false,
      "stateMutability": "nonpayable",
      "type": "function"
    }
  ],
  "bytecode": "0x6080604052612157806100136000396000f3fe608060405234801561001057600080fd5b50600436106101775760003560e01c806370a08231116100d8578063a22cb4651161008c578063c4d66de811610066578063c4d66de8146106a4578063c87b56dd146106ca578063e985e9c5146106e757610177565b8063a22cb4651461058a578063aa271e1a146105b8578063b88d4fde146105de57610177565b806395d89b41116100bd57806395d89b4114610554578063983b2d561461055c578063986502751461058257610177565b806370a08231146105145780638129fc1c1461054c57610177565b806342842e0e1161012f57806350bb4e7f1161011457806350bb4e7f146104345780636352211e146104ef5780636c0360eb1461050c57610177565b806342842e0e146102d15780634cd88b761461030757610177565b8063081812fc11610160578063081812fc14610234578063095ea7b31461026d57806323b872dd1461029b57610177565b806301ffc9a71461017c57806306fdde03146101b7575b600080fd5b6101a36004803603602081101561019257600080fd5b50356001600160e01b031916610715565b604080519115158252519081900360200190f35b6101bf610738565b6040805160208082528351818301528351919283929083019185019080838360005b838110156101f95781810151838201526020016101e1565b50505050905090810190601f1680156102265780820380516001836020036101000a031916815260200191505b509250505060405180910390f35b6102516004803603602081101561024a57600080fd5b50356107cf565b604080516001600160a01b039092168252519081900360200190f35b6102996004803603604081101561028357600080fd5b506001600160a01b038135169060200135610831565b005b610299600480360360608110156102b157600080fd5b506001600160a01b03813581169160208101359091169060400135610966565b610299600480360360608110156102e757600080fd5b506001600160a01b038135811691602081013590911690604001356109c2565b6102996004803603604081101561031d57600080fd5b81019060208101813564010000000081111561033857600080fd5b82018360208201111561034a57600080fd5b8035906020019184600183028401116401000000008311171561036c57600080fd5b91908080601f01602080910402602001604051908101604052809392919081815260200183838082843760009201919091525092959493602081019350359150506401000000008111156103bf57600080fd5b8201836020820111156103d157600080fd5b803590602001918460018302840111640100000000831117156103f357600080fd5b91908080601f0160208091040260200160405190810160405280939291908181526020018383808284376000920191909152509295506109dd945050505050565b6101a36004803603606081101561044a57600080fd5b6001600160a01b038235169160208101359181019060608101604082013564010000000081111561047a57600080fd5b82018360208201111561048c57600080fd5b803590602001918460018302840111640100000000831117156104ae57600080fd5b91908080601f016020809104026020016040519081016040528093929190818152602001838380828437600092019190915250929550610ac9945050505050565b6102516004803603602081101561050557600080fd5b5035610b34565b6101bf610b8e565b61053a6004803603602081101561052a57600080fd5b50356001600160a01b0316610bef565b60408051918252519081900360200190f35b610299610c57565b6101bf610d11565b6102996004803603602081101561057257600080fd5b50356001600160a01b0316610d72565b610299610dc1565b610299600480360360408110156105a057600080fd5b506001600160a01b0381351690602001351515610dd3565b6101a3600480360360208110156105ce57600080fd5b50356001600160a01b0316610ed8565b610299600480360360808110156105f457600080fd5b6001600160a01b0382358116926020810135909116916040820135919081019060808101606082013564010000000081111561062f57600080fd5b82018360208201111561064157600080fd5b8035906020019184600183028401116401000000008311171561066357600080fd5b91908080601f016020809104026020016040519081016040528093929190818152602001838380828437600092019190915250929550610eeb945050505050565b610299600480360360208110156106ba57600080fd5b50356001600160a01b0316610f49565b6101bf600480360360208110156106e057600080fd5b5035611017565b6101a3600480360360408110156106fd57600080fd5b506001600160a01b03813581169160200135166111e3565b6001600160e01b0319811660009081526033602052604090205460ff165b919050565b609c8054604080516020601f60026000196101006001881615020190951694909404938401819004810282018101909252828152606093909290918301828280156107c45780601f10610799576101008083540402835291602001916107c4565b820191906000526020600020905b8154815290600101906020018083116107a757829003601f168201915b505050505090505b90565b60006107da82611211565b6108155760405162461bcd60e51b815260040180806020018281038252602c815260200180611fd1602c913960400191505060405180910390fd5b506000908152606760205260409020546001600160a01b031690565b600061083c82610b34565b9050806001600160a01b0316836001600160a01b0316141561088f5760405162461bcd60e51b81526004018080602001828103825260218152602001806120d16021913960400191505060405180910390fd5b806001600160a01b03166108a161122e565b6001600160a01b031614806108c257506108c2816108bd61122e565b6111e3565b6108fd5760405162461bcd60e51b8152600401808060200182810382526038815260200180611ef56038913960400191505060405180910390fd5b600082815260676020526040808220805473ffffffffffffffffffffffffffffffffffffffff19166001600160a01b0387811691821790925591518593918516917f8c5be1e5ebec7d5bd14f71427d1e84f3dd0314c0f7b2291e5b200ac8c7c3b92591a4505050565b61097761097161122e565b82611232565b6109b25760405162461bcd60e51b81526004018080602001828103825260318152602001806120f26031913960400191505060405180910390fd5b6109bd8383836112d6565b505050565b6109bd83838360405180602001604052806000815250610eeb565b600054610100900460ff16806109f657506109f6611427565b80610a04575060005460ff16155b610a3f5760405162461bcd60e51b815260040180806020018281038252602e81526020018061204b602e913960400191505060405180910390fd5b600054610100900460ff16158015610a6a576000805460ff1961ff0019909116610100171660011790555b610a7261142d565b610a7b57600080fd5b8251610a8e90609c906020860190611dda565b508151610aa290609d906020850190611dda565b50610ab3635b5e139f60e01b611444565b80156109bd576000805461ff0019169055505050565b6000610adb610ad661122e565b610ed8565b610b165760405162461bcd60e51b8152600401808060200182810382526030815260200180611f806030913960400191505060405180910390fd5b610b2084846114c8565b610b2a8383611606565b5060019392505050565b6000818152606660205260408120546001600160a01b031680610b885760405162461bcd60e51b8152600401808060200182810382526029815260200180611f576029913960400191505060405180910390fd5b92915050565b609f8054604080516020601f60026000196101006001881615020190951694909404938401819004810282018101909252828152606093909290918301828280156107c45780601f10610799576101008083540402835291602001916107c4565b60006001600160a01b038216610c365760405162461bcd60e51b815260040180806020018281038252602a815260200180611f2d602a913960400191505060405180910390fd5b6001600160a01b0382166000908152606860205260409020610b8890611669565b600054610100900460ff1680610c705750610c70611427565b80610c7e575060005460ff16155b610cb95760405162461bcd60e51b815260040180806020018281038252602e81526020018061204b602e913960400191505060405180910390fd5b600054610100900460ff16158015610ce4576000805460ff1961ff0019909116610100171660011790555b610cec61166d565b610cfc6380ac58cd60e01b611444565b8015610d0e576000805461ff00191690555b50565b609d8054604080516020601f60026000196101006001881615020190951694909404938401819004810282018101909252828152606093909290918301828280156107c45780601f10610799576101008083540402835291602001916107c4565b610d7d610ad661122e565b610db85760405162461bcd60e51b8152600401808060200182810382526030815260200180611f806030913960400191505060405180910390fd5b610d0e81611723565b610dd1610dcc61122e565b61176b565b565b610ddb61122e565b6001600160a01b0316826001600160a01b03161415610e41576040805162461bcd60e51b815260206004820152601960248201527f4552433732313a20617070726f766520746f2063616c6c657200000000000000604482015290519081900360640190fd5b8060696000610e4e61122e565b6001600160a01b03908116825260208083019390935260409182016000908120918716808252919093529120805460ff191692151592909217909155610e9261122e565b60408051841515815290516001600160a01b0392909216917f17307eab39ab6107e8899845ad3d59bd9653f200f220920489ca2b5937696c319181900360200190a35050565b6000610b8860d18363ffffffff6117b316565b610efc610ef661122e565b83611232565b610f375760405162461bcd60e51b81526004018080602001828103825260318152602001806120f26031913960400191505060405180910390fd5b610f438484848461181a565b50505050565b600054610100900460ff1680610f625750610f62611427565b80610f70575060005460ff16155b610fab5760405162461bcd60e51b815260040180806020018281038252602e81526020018061204b602e913960400191505060405180910390fd5b600054610100900460ff16158015610fd6576000805460ff1961ff0019909116610100171660011790555b610fde61142d565b610fe757600080fd5b610fef61186c565b610ff857600080fd5b6110018261187e565b8015611013576000805461ff00191690555b5050565b606061102282611211565b61105d5760405162461bcd60e51b815260040180806020018281038252602f8152602001806120a2602f913960400191505060405180910390fd5b6000828152609e602090815260409182902080548351601f60026000196101006001861615020190931692909204918201849004840281018401909452808452606093928301828280156110f25780601f106110c7576101008083540402835291602001916110f2565b820191906000526020600020905b8154815290600101906020018083116110d557829003601f168201915b50505050509050805160001415611119575050604080516020810190915260008152610733565b609f81604051602001808380546001816001161561010002031660029004801561117a5780601f1061115857610100808354040283529182019161117a565b820191906000526020600020905b815481529060010190602001808311611166575b5050825160208401908083835b602083106111a65780518252601f199092019160209182019101611187565b6001836020036101000a03801982511681845116808217855250505050505090500192505050604051602081830303815290604052915050610733565b6001600160a01b03918216600090815260696020908152604080832093909416825291909152205460ff1690565b6000908152606660205260409020546001600160a01b0316151590565b3390565b600061123d82611211565b6112785760405162461bcd60e51b815260040180806020018281038252602c815260200180611ec9602c913960400191505060405180910390fd5b600061128383610b34565b9050806001600160a01b0316846001600160a01b031614806112be5750836001600160a01b03166112b3846107cf565b6001600160a01b0316145b806112ce57506112ce81856111e3565b949350505050565b826001600160a01b03166112e982610b34565b6001600160a01b03161461132e5760405162461bcd60e51b81526004018080602001828103825260298152602001806120796029913960400191505060405180910390fd5b6001600160a01b0382166113735760405162461bcd60e51b8152600401808060200182810382526024815260200180611ea56024913960400191505060405180910390fd5b61137c81611921565b6001600160a01b038316600090815260686020526040902061139d90611969565b6001600160a01b03821660009081526068602052604090206113be90611980565b600081815260666020526040808220805473ffffffffffffffffffffffffffffffffffffffff19166001600160a01b0386811691821790925591518493918716917fddf252ad1be2c89b69c2b068fc378daa952ba7f163c4a11628f55a4df523b3ef91a4505050565b303b1590565b600061143f6380ac58cd60e01b610715565b905090565b6001600160e01b031980821614156114a3576040805162461bcd60e51b815260206004820152601c60248201527f4552433136353a20696e76616c696420696e7465726661636520696400000000604482015290519081900360640190fd5b6001600160e01b0319166000908152603360205260409020805460ff19166001179055565b6001600160a01b038216611523576040805162461bcd60e51b815260206004820181905260248201527f4552433732313a206d696e7420746f20746865207a65726f2061646472657373604482015290519081900360640190fd5b61152c81611211565b1561157e576040805162461bcd60e51b815260206004820152601c60248201527f4552433732313a20746f6b656e20616c7265616479206d696e74656400000000604482015290519081900360640190fd5b6000818152606660209081526040808320805473ffffffffffffffffffffffffffffffffffffffff19166001600160a01b0387169081179091558352606890915290206115ca90611980565b60405181906001600160a01b038416906000907fddf252ad1be2c89b69c2b068fc378daa952ba7f163c4a11628f55a4df523b3ef908290a45050565b61160f82611211565b61164a5760405162461bcd60e51b815260040180806020018281038252602c815260200180611ffd602c913960400191505060405180910390fd5b6000828152609e6020908152604090912082516109bd92840190611dda565b5490565b600054610100900460ff16806116865750611686611427565b80611694575060005460ff16155b6116cf5760405162461bcd60e51b815260040180806020018281038252602e81526020018061204b602e913960400191505060405180910390fd5b600054610100900460ff161580156116fa576000805460ff1961ff0019909116610100171660011790555b610cfc7f01ffc9a700000000000000000000000000000000000000000000000000000000611444565b61173460d18263ffffffff61198916565b6040516001600160a01b038216907f6ae172837ea30b801fbfcdd4108aa1d5bf8ff775444fd70256b44e6bf3dfc3f690600090a250565b61177c60d18263ffffffff611a0a16565b6040516001600160a01b038216907fe94479a9f7e1952cc78f2d6baab678adc1b772d936c6583def489e524cb6669290600090a250565b60006001600160a01b0382166117fa5760405162461bcd60e51b81526004018080602001828103825260228152602001806120296022913960400191505060405180910390fd5b506001600160a01b03166000908152602091909152604090205460ff1690565b6118258484846112d6565b61183184848484611a71565b610f435760405162461bcd60e51b8152600401808060200182810382526032815260200180611e736032913960400191505060405180910390fd5b600061143f635b5e139f60e01b610715565b600054610100900460ff16806118975750611897611427565b806118a5575060005460ff16155b6118e05760405162461bcd60e51b815260040180806020018281038252602e81526020018061204b602e913960400191505060405180910390fd5b600054610100900460ff1615801561190b576000805460ff1961ff0019909116610100171660011790555b61191482610ed8565b6110015761100182611723565b6000818152606760205260409020546001600160a01b031615610d0e576000908152606760205260409020805473ffffffffffffffffffffffffffffffffffffffff19169055565b805461197c90600163ffffffff611cc116565b9055565b80546001019055565b61199382826117b3565b156119e5576040805162461bcd60e51b815260206004820152601f60248201527f526f6c65733a206163636f756e7420616c72656164792068617320726f6c6500604482015290519081900360640190fd5b6001600160a01b0316600090815260209190915260409020805460ff19166001179055565b611a1482826117b3565b611a4f5760405162461bcd60e51b8152600401808060200182810382526021815260200180611fb06021913960400191505060405180910390fd5b6001600160a01b0316600090815260209190915260409020805460ff19169055565b6000611a85846001600160a01b0316611d0a565b611a91575060016112ce565b600060606001600160a01b038616630a85bd0160e11b611aaf61122e565b89888860405160240180856001600160a01b03166001600160a01b03168152602001846001600160a01b03166001600160a01b0316815260200183815260200180602001828103825283818151815260200191508051906020019080838360005b83811015611b28578181015183820152602001611b10565b50505050905090810190601f168015611b555780820380516001836020036101000a031916815260200191505b5060408051601f198184030181529181526020820180517bffffffffffffffffffffffffffffffffffffffffffffffffffffffff166001600160e01b0319909a16999099178952518151919890975087965094509250829150849050835b60208310611bd25780518252601f199092019160209182019101611bb3565b6001836020036101000a0380198251168184511680821785525050505050509050019150506000604051808303816000865af19150503d8060008114611c34576040519150601f19603f3d011682016040523d82523d6000602084013e611c39565b606091505b509150915081611c8a57805115611c535780518082602001fd5b60405162461bcd60e51b8152600401808060200182810382526032815260200180611e736032913960400191505060405180910390fd5b6000818060200190516020811015611ca157600080fd5b50516001600160e01b031916630a85bd0160e11b1493506112ce92505050565b6000611d0383836040518060400160405280601e81526020017f536166654d6174683a207375627472616374696f6e206f766572666c6f770000815250611d43565b9392505050565b6000813f7fc5d2460186f7233c927e7db2dcc703c0e500b653ca82273b7bfad8045d85a4708181148015906112ce575050151592915050565b60008184841115611dd25760405162461bcd60e51b81526004018080602001828103825283818151815260200191508051906020019080838360005b83811015611d97578181015183820152602001611d7f565b50505050905090810190601f168015611dc45780820380516001836020036101000a031916815260200191505b509250505060405180910390fd5b505050900390565b828054600181600116156101000203166002900490600052602060002090601f016020900481019282601f10611e1b57805160ff1916838001178555611e48565b82800160010185558215611e48579182015b82811115611e48578251825591602001919060010190611e2d565b50611e54929150611e58565b5090565b6107cc91905b80821115611e545760008155600101611e5e56fe4552433732313a207472616e7366657220746f206e6f6e20455243373231526563656976657220696d706c656d656e7465724552433732313a207472616e7366657220746f20746865207a65726f20616464726573734552433732313a206f70657261746f7220717565727920666f72206e6f6e6578697374656e7420746f6b656e4552433732313a20617070726f76652063616c6c6572206973206e6f74206f776e6572206e6f7220617070726f76656420666f7220616c6c4552433732313a2062616c616e636520717565727920666f7220746865207a65726f20616464726573734552433732313a206f776e657220717565727920666f72206e6f6e6578697374656e7420746f6b656e4d696e746572526f6c653a2063616c6c657220646f6573206e6f74206861766520746865204d696e74657220726f6c65526f6c65733a206163636f756e7420646f6573206e6f74206861766520726f6c654552433732313a20617070726f76656420717565727920666f72206e6f6e6578697374656e7420746f6b656e4552433732314d657461646174613a2055524920736574206f66206e6f6e6578697374656e7420746f6b656e526f6c65733a206163636f756e7420697320746865207a65726f2061646472657373436f6e747261637420696e7374616e63652068617320616c7265616479206265656e20696e697469616c697a65644552433732313a207472616e73666572206f6620746f6b656e2074686174206973206e6f74206f776e4552433732314d657461646174613a2055524920717565727920666f72206e6f6e6578697374656e7420746f6b656e4552433732313a20617070726f76616c20746f2063757272656e74206f776e65724552433732313a207472616e736665722063616c6c6572206973206e6f74206f776e6572206e6f7220617070726f766564a265627a7a723158200c3cbbe6f22ed0c320ae12785b60602b4409c5f81736fbaec2af290b7868d04764736f6c63430005100032",
  "source": "pragma solidity ^0.5.0;\n\nimport \"@openzeppelin/upgrades/contracts/Initializable.sol\";\nimport \"./ERC721Metadata.sol\";\nimport \"../../access/roles/MinterRole.sol\";\n\n\n/**\n * @title ERC721MetadataMintable\n * @dev ERC721 minting logic with metadata.\n */\ncontract ERC721MetadataMintable is Initializable, ERC721, ERC721Metadata, MinterRole {\n    function initialize(address sender) public initializer {\n        require(ERC721._hasBeenInitialized());\n        require(ERC721Metadata._hasBeenInitialized());\n        MinterRole.initialize(sender);\n    }\n\n    /**\n     * @dev Function to mint tokens.\n     * @param to The address that will receive the minted tokens.\n     * @param tokenId The token id to mint.\n     * @param tokenURI The token URI of the minted token.\n     * @return A boolean that indicates if the operation was successful.\n     */\n    function mintWithTokenURI(address to, uint256 tokenId, string memory tokenURI) public onlyMinter returns (bool) {\n        _mint(to, tokenId);\n        _setTokenURI(tokenId, tokenURI);\n        return true;\n    }\n\n    uint256[50] private ______gap;\n}\n",
  "sourcePath": "@openzeppelin/contracts-ethereum-package/contracts/token/ERC721/ERC721MetadataMintable.sol",
  "compiler": {
    "name": "solc",
    "version": "0.5.16+commit.9c3226ce.Emscripten.clang"
  },
  "schemaVersion": "3.2.2",
  "updatedAt": "2020-08-17T13:56:44.467Z",
  "devdoc": {
    "details": "ERC721 minting logic with metadata.",
    "methods": {
      "approve(address,uint256)": {
        "details": "Approves another address to transfer the given token ID The zero address indicates there is no approved address. There can only be one approved address per token at a given time. Can only be called by the token owner or an approved operator.",
        "params": {
          "to": "address to be approved for the given token ID",
          "tokenId": "uint256 ID of the token to be approved"
        }
      },
      "balanceOf(address)": {
        "details": "Gets the balance of the specified address.",
        "params": {
          "owner": "address to query the balance of"
        },
        "return": "uint256 representing the amount owned by the passed address"
      },
      "baseURI()": {
        "details": "Returns the base URI set via {_setBaseURI}. This will be automatically added as a preffix in {tokenURI} to each token's URI, when they are non-empty.    * _Available since v2.5.0._"
      },
      "getApproved(uint256)": {
        "details": "Gets the approved address for a token ID, or zero if no address set Reverts if the token ID does not exist.",
        "params": {
          "tokenId": "uint256 ID of the token to query the approval of"
        },
        "return": "address currently approved for the given token ID"
      },
      "initialize(string,string)": {
        "details": "Constructor function"
      },
      "isApprovedForAll(address,address)": {
        "details": "Tells whether an operator is approved by a given owner.",
        "params": {
          "operator": "operator address which you want to query the approval of",
          "owner": "owner address which you want to query the approval of"
        },
        "return": "bool whether the given operator is approved by the given owner"
      },
      "mintWithTokenURI(address,uint256,string)": {
        "details": "Function to mint tokens.",
        "params": {
          "to": "The address that will receive the minted tokens.",
          "tokenId": "The token id to mint.",
          "tokenURI": "The token URI of the minted token."
        },
        "return": "A boolean that indicates if the operation was successful."
      },
      "name()": {
        "details": "Gets the token name.",
        "return": "string representing the token name"
      },
      "ownerOf(uint256)": {
        "details": "Gets the owner of the specified token ID.",
        "params": {
          "tokenId": "uint256 ID of the token to query the owner of"
        },
        "return": "address currently marked as the owner of the given token ID"
      },
      "safeTransferFrom(address,address,uint256)": {
        "details": "Safely transfers the ownership of a given token ID to another address If the target address is a contract, it must implement {IERC721Receiver-onERC721Received}, which is called upon a safe transfer, and return the magic value `bytes4(keccak256(\"onERC721Received(address,address,uint256,bytes)\"))`; otherwise, the transfer is reverted. Requires the msg.sender to be the owner, approved, or operator",
        "params": {
          "from": "current owner of the token",
          "to": "address to receive the ownership of the given token ID",
          "tokenId": "uint256 ID of the token to be transferred"
        }
      },
      "safeTransferFrom(address,address,uint256,bytes)": {
        "details": "Safely transfers the ownership of a given token ID to another address If the target address is a contract, it must implement {IERC721Receiver-onERC721Received}, which is called upon a safe transfer, and return the magic value `bytes4(keccak256(\"onERC721Received(address,address,uint256,bytes)\"))`; otherwise, the transfer is reverted. Requires the _msgSender() to be the owner, approved, or operator",
        "params": {
          "_data": "bytes data to send along with a safe transfer check",
          "from": "current owner of the token",
          "to": "address to receive the ownership of the given token ID",
          "tokenId": "uint256 ID of the token to be transferred"
        }
      },
      "setApprovalForAll(address,bool)": {
        "details": "Sets or unsets the approval of a given operator An operator is allowed to transfer all tokens of the sender on their behalf.",
        "params": {
          "approved": "representing the status of the approval to be set",
          "to": "operator address to set the approval"
        }
      },
      "supportsInterface(bytes4)": {
        "details": "See {IERC165-supportsInterface}.     * Time complexity O(1), guaranteed to always use less than 30 000 gas."
      },
      "symbol()": {
        "details": "Gets the token symbol.",
        "return": "string representing the token symbol"
      },
      "tokenURI(uint256)": {
        "details": "Returns the URI for a given token ID. May return an empty string.     * If the token's URI is non-empty and a base URI was set (via {_setBaseURI}), it will be added to the token ID's URI as a prefix.     * Reverts if the token ID does not exist."
      },
      "transferFrom(address,address,uint256)": {
        "details": "Transfers the ownership of a given token ID to another address. Usage of this method is discouraged, use {safeTransferFrom} whenever possible. Requires the msg.sender to be the owner, approved, or operator.",
        "params": {
          "from": "current owner of the token",
          "to": "address to receive the ownership of the given token ID",
          "tokenId": "uint256 ID of the token to be transferred"
        }
      }
    },
    "title": "ERC721MetadataMintable"
  },
  "userdoc": {
    "methods": {}
  }
}