{
  "contractName": "Package",
  "abi": [
    {
      "anonymous": false,
      "inputs": [
        {
          "indexed": true,
          "internalType": "address",
          "name": "previousOwner",
          "type": "address"
        },
        {
          "indexed": true,
          "internalType": "address",
          "name": "newOwner",
          "type": "address"
        }
      ],
      "name": "OwnershipTransferred",
      "type": "event"
    },
    {
      "anonymous": false,
      "inputs": [
        {
          "indexed": false,
          "internalType": "uint64[3]",
          "name": "semanticVersion",
          "type": "uint64[3]"
        },
        {
          "indexed": false,
          "internalType": "address",
          "name": "contractAddress",
          "type": "address"
        },
        {
          "indexed": false,
          "internalType": "bytes",
          "name": "contentURI",
          "type": "bytes"
        }
      ],
      "name": "VersionAdded",
      "type": "event"
    },
    {
      "constant": true,
      "inputs": [],
      "name": "isOwner",
      "outputs": [
        {
          "internalType": "bool",
          "name": "",
          "type": "bool"
        }
      ],
      "payable": false,
      "stateMutability": "view",
      "type": "function"
    },
    {
      "constant": true,
      "inputs": [],
      "name": "owner",
      "outputs": [
        {
          "internalType": "address",
          "name": "",
          "type": "address"
        }
      ],
      "payable": false,
      "stateMutability": "view",
      "type": "function"
    },
    {
      "constant": false,
      "inputs": [],
      "name": "renounceOwnership",
      "outputs": [],
      "payable": false,
      "stateMutability": "nonpayable",
      "type": "function"
    },
    {
      "constant": false,
      "inputs": [
        {
          "internalType": "address",
          "name": "newOwner",
          "type": "address"
        }
      ],
      "name": "transferOwnership",
      "outputs": [],
      "payable": false,
      "stateMutability": "nonpayable",
      "type": "function"
    },
    {
      "constant": true,
      "inputs": [
        {
          "internalType": "uint64[3]",
          "name": "semanticVersion",
          "type": "uint64[3]"
        }
      ],
      "name": "getVersion",
      "outputs": [
        {
          "internalType": "address",
          "name": "contractAddress",
          "type": "address"
        },
        {
          "internalType": "bytes",
          "name": "contentURI",
          "type": "bytes"
        }
      ],
      "payable": false,
      "stateMutability": "view",
      "type": "function"
    },
    {
      "constant": true,
      "inputs": [
        {
          "internalType": "uint64[3]",
          "name": "semanticVersion",
          "type": "uint64[3]"
        }
      ],
      "name": "getContract",
      "outputs": [
        {
          "internalType": "address",
          "name": "contractAddress",
          "type": "address"
        }
      ],
      "payable": false,
      "stateMutability": "view",
      "type": "function"
    },
    {
      "constant": false,
      "inputs": [
        {
          "internalType": "uint64[3]",
          "name": "semanticVersion",
          "type": "uint64[3]"
        },
        {
          "internalType": "address",
          "name": "contractAddress",
          "type": "address"
        },
        {
          "internalType": "bytes",
          "name": "contentURI",
          "type": "bytes"
        }
      ],
      "name": "addVersion",
      "outputs": [],
      "payable": false,
      "stateMutability": "nonpayable",
      "type": "function"
    },
    {
      "constant": true,
      "inputs": [
        {
          "internalType": "uint64[3]",
          "name": "semanticVersion",
          "type": "uint64[3]"
        }
      ],
      "name": "hasVersion",
      "outputs": [
        {
          "internalType": "bool",
          "name": "",
          "type": "bool"
        }
      ],
      "payable": false,
      "stateMutability": "view",
      "type": "function"
    },
    {
      "constant": true,
      "inputs": [],
      "name": "getLatest",
      "outputs": [
        {
          "internalType": "uint64[3]",
          "name": "semanticVersion",
          "type": "uint64[3]"
        },
        {
          "internalType": "address",
          "name": "contractAddress",
          "type": "address"
        },
        {
          "internalType": "bytes",
          "name": "contentURI",
          "type": "bytes"
        }
      ],
      "payable": false,
      "stateMutability": "view",
      "type": "function"
    },
    {
      "constant": true,
      "inputs": [
        {
          "internalType": "uint64",
          "name": "major",
          "type": "uint64"
        }
      ],
      "name": "getLatestByMajor",
      "outputs": [
        {
          "internalType": "uint64[3]",
          "name": "semanticVersion",
          "type": "uint64[3]"
        },
        {
          "internalType": "address",
          "name": "contractAddress",
          "type": "address"
        },
        {
          "internalType": "bytes",
          "name": "contentURI",
          "type": "bytes"
        }
      ],
      "payable": false,
      "stateMutability": "view",
      "type": "function"
    }
  ],
  "bytecode": "0x60806040819052600080546001600160a01b03191633178082556001600160a01b0316917f8be0079c531659141344cd1fd0a4f28419497f9722a3daafe3b4186f6b6457e0908290a3610ef3806100576000396000f3fe608060405234801561001057600080fd5b50600436106100be5760003560e01c8063c356d5b011610076578063d6ef25d51161005b578063d6ef25d51461029a578063e30329e914610383578063f2fde38b14610466576100be565b8063c356d5b0146101b1578063c36af46014610292576100be565b8063715018a6116100a7578063715018a6146101975780638da5cb5b146101a15780638f32d59b146101a9576100be565b80631df40eaa146100c357806335ce401614610131575b600080fd5b610115600480360360608110156100d957600080fd5b810190808060600190600380602002604051908101604052809291908260036020028082843760009201919091525091945061048c9350505050565b604080516001600160a01b039092168252519081900360200190f35b6101836004803603606081101561014757600080fd5b81019080806060019060038060200260405190810160405280929190826003602002808284376000920191909152509194506104c09350505050565b604080519115158252519081900360200190f35b61019f6104f6565b005b61011561055e565b61018361056e565b6101d8600480360360208110156101c757600080fd5b503567ffffffffffffffff1661057f565b6040518084606080838360005b838110156101fd5781810151838201526020016101e5565b50505050905001836001600160a01b03166001600160a01b0316815260200180602001828103825283818151815260200191508051906020019080838360005b8381101561025557818101518382015260200161023d565b50505050905090810190601f1680156102825780820380516001836020036101000a031916815260200191505b5094505050505060405180910390f35b6101d86106c2565b61019f600480360360a08110156102b057600080fd5b810190808060600190600380602002604051908101604052809291908260036020028082843760009201919091525091946001600160a01b038435169490939092506040810191506020013564010000000081111561030e57600080fd5b82018360208201111561032057600080fd5b8035906020019184600183028401116401000000008311171561034257600080fd5b91908080601f0160208091040260200160405190810160405280939291908181526020018383808284376000920191909152509295506106f1945050505050565b6103d56004803603606081101561039957600080fd5b8101908080606001906003806020026040519081016040528092919082600360200280828437600092019190915250919450610afa9350505050565b60405180836001600160a01b03166001600160a01b0316815260200180602001828103825283818151815260200191508051906020019080838360005b8381101561042a578181015183820152602001610412565b50505050905090810190601f1680156104575780820380516001836020036101000a031916815260200191505b50935050505060405180910390f35b61019f6004803603602081101561047c57600080fd5b50356001600160a01b0316610bcb565b6000806001600061049c85610be8565b81526020810191909152604001600020600101546001600160a01b03169392505050565b600080600160006104d085610be8565b81526020810191909152604001600020600101546001600160a01b031615159392505050565b6104fe61056e565b61050757600080fd5b600080546040516001600160a01b03909116907f8be0079c531659141344cd1fd0a4f28419497f9722a3daafe3b4186f6b6457e0908390a36000805473ffffffffffffffffffffffffffffffffffffffff19169055565b6000546001600160a01b03165b90565b6000546001600160a01b0316331490565b610587610d11565b67ffffffffffffffff821660009081526002602081815260408084205484526001918290528084209182015481516060808201938490529484936001600160a01b039093169290840191908490600390828a855b82829054906101000a900467ffffffffffffffff1667ffffffffffffffff16815260200190600801906020826007010492830192600103820291508084116105db575050855460408051602060026001851615610100026000190190941693909304601f81018490048402820184019092528181529699508795509350850191508390508280156106ad5780601f10610682576101008083540402835291602001916106ad565b820191906000526020600020905b81548152906001019060200180831161069057829003601f168201915b50505050509050935093509350509193909250565b6106ca610d11565b6003546000906060906106e69067ffffffffffffffff1661057f565b925092509250909192565b6106f961056e565b61070257600080fd5b6001600160a01b03821661075d576040805162461bcd60e51b815260206004820152601c60248201527f436f6e7472616374206164647265737320697320726571756972656400000000604482015290519081900360640190fd5b610766836104c0565b156107a25760405162461bcd60e51b815260040180806020018281038252602e815260200180610e91602e913960400191505060405180910390fd5b6107ab83610c50565b156107fd576040805162461bcd60e51b815260206004820152601860248201527f56657273696f6e206d757374206265206e6f6e207a65726f0000000000000000604482015290519081900360640190fd5b600061080884610be8565b604080516060810182528681526001600160a01b0386166020808301919091528183018690526000848152600190915291909120815192935090916108509082906003610d2f565b5060208281015160018301805473ffffffffffffffffffffffffffffffffffffffff19166001600160a01b039092169190911790556040830151805161089c9260028501920190610dd7565b5050845160035490915067ffffffffffffffff90811690821611156108df5784516003805467ffffffffffffffff191667ffffffffffffffff9092169190911790555b60208086015160408088015167ffffffffffffffff85166000908152600285528281205481526001909452818420825160608101938490529394919390926109789284916003918390855b82829054906101000a900467ffffffffffffffff1667ffffffffffffffff168152602001906008019060208260070104928301926001038202915080841161092a5790505050505050610c50565b8061099d5750805467ffffffffffffffff680100000000000000009091048116908416115b806109ee5750805467ffffffffffffffff84811668010000000000000000909204161480156109ee5750805467ffffffffffffffff7001000000000000000000000000000000009091048116908316115b15610a105767ffffffffffffffff841660009081526002602052604090208590555b7fc5b9b96b4952fc60f5a916010c882de0324dd4fdfaa999f9ad6947f55d8427628888886040518084600360200280838360005b83811015610a5c578181015183820152602001610a44565b50505050905001836001600160a01b03166001600160a01b0316815260200180602001828103825283818151815260200191508051906020019080838360005b83811015610ab4578181015183820152602001610a9c565b50505050905090810190601f168015610ae15780820380516001836020036101000a031916815260200191505b5094505050505060405180910390a15050505050505050565b60006060600060016000610b0d86610be8565b81526020808201929092526040908101600020600180820154600280840180548651601f600019968316156101000296909601909116929092049384018790048702820187019095528281529295506001600160a01b031693839190830182828015610bba5780601f10610b8f57610100808354040283529160200191610bba565b820191906000526020600020905b815481529060010190602001808311610b9d57829003601f168201915b505050505090509250925050915091565b610bd361056e565b610bdc57600080fd5b610be581610c96565b50565b805160208083015160409384015184517fffffffffffffffff00000000000000000000000000000000000000000000000060c095861b81168286015292851b83166028820152931b166030830152825160188184030181526038909201909252805191012090565b805160009067ffffffffffffffff16158015610c785750602082015167ffffffffffffffff16155b8015610c905750604082015167ffffffffffffffff16155b92915050565b6001600160a01b038116610ca957600080fd5b600080546040516001600160a01b03808516939216917f8be0079c531659141344cd1fd0a4f28419497f9722a3daafe3b4186f6b6457e091a36000805473ffffffffffffffffffffffffffffffffffffffff19166001600160a01b0392909216919091179055565b60405180606001604052806003906020820280388339509192915050565b600183019183908215610dc75791602002820160005b83821115610d9157835183826101000a81548167ffffffffffffffff021916908367ffffffffffffffff1602179055509260200192600801602081600701049283019260010302610d45565b8015610dc55782816101000a81549067ffffffffffffffff0219169055600801602081600701049283019260010302610d91565b505b50610dd3929150610e51565b5090565b828054600181600116156101000203166002900490600052602060002090601f016020900481019282601f10610e1857805160ff1916838001178555610e45565b82800160010185558215610e45579182015b82811115610e45578251825591602001919060010190610e2a565b50610dd3929150610e76565b61056b91905b80821115610dd357805467ffffffffffffffff19168155600101610e57565b61056b91905b80821115610dd35760008155600101610e7c56fe476976656e2076657273696f6e20697320616c7265616479207265676973746572656420696e207061636b616765a265627a7a72315820e121389d8a48152ea35a87c9e2d541f13916f09b8d654b6684dd640f4d51c80c64736f6c63430005100032",
  "source": "pragma solidity ^0.5.0;\n\nimport \"../ownership/Ownable.sol\";\n\n/**\n * @title Package\n * @dev A package is composed by a set of versions, identified via semantic versioning,\n * where each version has a contract address that refers to a reusable implementation,\n * plus an optional content URI with metadata. Note that the semver identifier is restricted\n * to major, minor, and patch, as prerelease tags are not supported.\n */\ncontract Package is OpenZeppelinUpgradesOwnable {\n  /**\n   * @dev Emitted when a version is added to the package.\n   * @param semanticVersion Name of the added version.\n   * @param contractAddress Contract associated with the version.\n   * @param contentURI Optional content URI with metadata of the version.\n   */\n  event VersionAdded(uint64[3] semanticVersion, address contractAddress, bytes contentURI);\n\n  struct Version {\n    uint64[3] semanticVersion;\n    address contractAddress;\n    bytes contentURI; \n  }\n\n  mapping (bytes32 => Version) internal versions;\n  mapping (uint64 => bytes32) internal majorToLatestVersion;\n  uint64 internal latestMajor;\n\n  /**\n   * @dev Returns a version given its semver identifier.\n   * @param semanticVersion Semver identifier of the version.\n   * @return Contract address and content URI for the version, or zero if not exists.\n   */\n  function getVersion(uint64[3] memory semanticVersion) public view returns (address contractAddress, bytes memory contentURI) {\n    Version storage version = versions[semanticVersionHash(semanticVersion)];\n    return (version.contractAddress, version.contentURI); \n  }\n\n  /**\n   * @dev Returns a contract for a version given its semver identifier.\n   * This method is equivalent to `getVersion`, but returns only the contract address.\n   * @param semanticVersion Semver identifier of the version.\n   * @return Contract address for the version, or zero if not exists.\n   */\n  function getContract(uint64[3] memory semanticVersion) public view returns (address contractAddress) {\n    Version storage version = versions[semanticVersionHash(semanticVersion)];\n    return version.contractAddress;\n  }\n\n  /**\n   * @dev Adds a new version to the package. Only the Owner can add new versions.\n   * Reverts if the specified semver identifier already exists. \n   * Emits a `VersionAdded` event if successful.\n   * @param semanticVersion Semver identifier of the version.\n   * @param contractAddress Contract address for the version, must be non-zero.\n   * @param contentURI Optional content URI for the version.\n   */\n  function addVersion(uint64[3] memory semanticVersion, address contractAddress, bytes memory contentURI) public onlyOwner {\n    require(contractAddress != address(0), \"Contract address is required\");\n    require(!hasVersion(semanticVersion), \"Given version is already registered in package\");\n    require(!semanticVersionIsZero(semanticVersion), \"Version must be non zero\");\n\n    // Register version\n    bytes32 versionId = semanticVersionHash(semanticVersion);\n    versions[versionId] = Version(semanticVersion, contractAddress, contentURI);\n    \n    // Update latest major\n    uint64 major = semanticVersion[0];\n    if (major > latestMajor) {\n      latestMajor = semanticVersion[0];\n    }\n\n    // Update latest version for this major\n    uint64 minor = semanticVersion[1];\n    uint64 patch = semanticVersion[2];\n    uint64[3] storage latestVersionForMajor = versions[majorToLatestVersion[major]].semanticVersion;\n    if (semanticVersionIsZero(latestVersionForMajor) // No latest was set for this major\n       || (minor > latestVersionForMajor[1]) // Or current minor is greater \n       || (minor == latestVersionForMajor[1] && patch > latestVersionForMajor[2]) // Or current patch is greater\n       ) { \n      majorToLatestVersion[major] = versionId;\n    }\n\n    emit VersionAdded(semanticVersion, contractAddress, contentURI);\n  }\n\n  /**\n   * @dev Checks whether a version is present in the package.\n   * @param semanticVersion Semver identifier of the version.\n   * @return true if the version is registered in this package, false otherwise.\n   */\n  function hasVersion(uint64[3] memory semanticVersion) public view returns (bool) {\n    Version storage version = versions[semanticVersionHash(semanticVersion)];\n    return address(version.contractAddress) != address(0);\n  }\n\n  /**\n   * @dev Returns the version with the highest semver identifier registered in the package.\n   * For instance, if `1.2.0`, `1.3.0`, and `2.0.0` are present, will always return `2.0.0`, regardless \n   * of the order in which they were registered. Returns zero if no versions are registered.\n   * @return Semver identifier, contract address, and content URI for the version, or zero if not exists.\n   */\n  function getLatest() public view returns (uint64[3] memory semanticVersion, address contractAddress, bytes memory contentURI) {\n    return getLatestByMajor(latestMajor);\n  }\n\n  /**\n   * @dev Returns the version with the highest semver identifier for the given major.\n   * For instance, if `1.2.0`, `1.3.0`, and `2.0.0` are present, will return `1.3.0` for major `1`, \n   * regardless of the order in which they were registered. Returns zero if no versions are registered\n   * for the specified major.\n   * @param major Major identifier to query\n   * @return Semver identifier, contract address, and content URI for the version, or zero if not exists.\n   */\n  function getLatestByMajor(uint64 major) public view returns (uint64[3] memory semanticVersion, address contractAddress, bytes memory contentURI) {\n    Version storage version = versions[majorToLatestVersion[major]];\n    return (version.semanticVersion, version.contractAddress, version.contentURI); \n  }\n\n  function semanticVersionHash(uint64[3] memory version) internal pure returns (bytes32) {\n    return keccak256(abi.encodePacked(version[0], version[1], version[2]));\n  }\n\n  function semanticVersionIsZero(uint64[3] memory version) internal pure returns (bool) {\n    return version[0] == 0 && version[1] == 0 && version[2] == 0;\n  }\n}\n",
  "sourcePath": "@openzeppelin/upgrades/contracts/application/Package.sol",
  "compiler": {
    "name": "solc",
    "version": "0.5.16+commit.9c3226ce.Emscripten.clang"
  },
  "schemaVersion": "3.2.2",
  "updatedAt": "2020-08-17T13:56:44.482Z",
  "devdoc": {
    "details": "A package is composed by a set of versions, identified via semantic versioning, where each version has a contract address that refers to a reusable implementation, plus an optional content URI with metadata. Note that the semver identifier is restricted to major, minor, and patch, as prerelease tags are not supported.",
    "methods": {
      "addVersion(uint64[3],address,bytes)": {
        "details": "Adds a new version to the package. Only the Owner can add new versions. Reverts if the specified semver identifier already exists.  Emits a `VersionAdded` event if successful.",
        "params": {
          "contentURI": "Optional content URI for the version.",
          "contractAddress": "Contract address for the version, must be non-zero.",
          "semanticVersion": "Semver identifier of the version."
        }
      },
      "getContract(uint64[3])": {
        "details": "Returns a contract for a version given its semver identifier. This method is equivalent to `getVersion`, but returns only the contract address.",
        "params": {
          "semanticVersion": "Semver identifier of the version."
        },
        "return": "Contract address for the version, or zero if not exists."
      },
      "getLatest()": {
        "details": "Returns the version with the highest semver identifier registered in the package. For instance, if `1.2.0`, `1.3.0`, and `2.0.0` are present, will always return `2.0.0`, regardless  of the order in which they were registered. Returns zero if no versions are registered.",
        "return": "Semver identifier, contract address, and content URI for the version, or zero if not exists."
      },
      "getLatestByMajor(uint64)": {
        "details": "Returns the version with the highest semver identifier for the given major. For instance, if `1.2.0`, `1.3.0`, and `2.0.0` are present, will return `1.3.0` for major `1`,  regardless of the order in which they were registered. Returns zero if no versions are registered for the specified major.",
        "params": {
          "major": "Major identifier to query"
        },
        "return": "Semver identifier, contract address, and content URI for the version, or zero if not exists."
      },
      "getVersion(uint64[3])": {
        "details": "Returns a version given its semver identifier.",
        "params": {
          "semanticVersion": "Semver identifier of the version."
        },
        "return": "Contract address and content URI for the version, or zero if not exists."
      },
      "hasVersion(uint64[3])": {
        "details": "Checks whether a version is present in the package.",
        "params": {
          "semanticVersion": "Semver identifier of the version."
        },
        "return": "true if the version is registered in this package, false otherwise."
      },
      "isOwner()": {
        "return": "true if `msg.sender` is the owner of the contract."
      },
      "owner()": {
        "return": "the address of the owner."
      },
      "renounceOwnership()": {
        "details": "Allows the current owner to relinquish control of the contract."
      },
      "transferOwnership(address)": {
        "details": "Allows the current owner to transfer control of the contract to a newOwner.",
        "params": {
          "newOwner": "The address to transfer ownership to."
        }
      }
    },
    "title": "Package"
  },
  "userdoc": {
    "methods": {
      "renounceOwnership()": {
        "notice": "Renouncing to ownership will leave the contract without an owner. It will not be possible to call the functions with the `onlyOwner` modifier anymore."
      }
    }
  }
}