{
  "contractName": "VCUSubToken",
  "abi": [
    {
      "inputs": [],
      "payable": false,
      "stateMutability": "nonpayable",
      "type": "constructor"
    },
    {
      "anonymous": false,
      "inputs": [
        {
          "indexed": true,
          "internalType": "address",
          "name": "owner",
          "type": "address"
        },
        {
          "indexed": true,
          "internalType": "address",
          "name": "spender",
          "type": "address"
        },
        {
          "indexed": false,
          "internalType": "uint256",
          "name": "value",
          "type": "uint256"
        }
      ],
      "name": "Approval",
      "type": "event"
    },
    {
      "anonymous": false,
      "inputs": [
        {
          "indexed": true,
          "internalType": "address",
          "name": "account",
          "type": "address"
        }
      ],
      "name": "MinterAdded",
      "type": "event"
    },
    {
      "anonymous": false,
      "inputs": [
        {
          "indexed": true,
          "internalType": "address",
          "name": "account",
          "type": "address"
        }
      ],
      "name": "MinterRemoved",
      "type": "event"
    },
    {
      "anonymous": false,
      "inputs": [
        {
          "indexed": true,
          "internalType": "address",
          "name": "from",
          "type": "address"
        },
        {
          "indexed": true,
          "internalType": "address",
          "name": "to",
          "type": "address"
        },
        {
          "indexed": false,
          "internalType": "uint256",
          "name": "value",
          "type": "uint256"
        }
      ],
      "name": "Transfer",
      "type": "event"
    },
    {
      "anonymous": false,
      "inputs": [
        {
          "indexed": false,
          "internalType": "address",
          "name": "VCUToken",
          "type": "address"
        }
      ],
      "name": "newVCUTokenCreated",
      "type": "event"
    },
    {
      "constant": false,
      "inputs": [
        {
          "internalType": "address",
          "name": "account",
          "type": "address"
        }
      ],
      "name": "addMinter",
      "outputs": [],
      "payable": false,
      "stateMutability": "nonpayable",
      "type": "function"
    },
    {
      "constant": true,
      "inputs": [],
      "name": "creolSuper",
      "outputs": [
        {
          "internalType": "address",
          "name": "",
          "type": "address"
        }
      ],
      "payable": false,
      "stateMutability": "view",
      "type": "function"
    },
    {
      "constant": true,
      "inputs": [
        {
          "internalType": "address",
          "name": "account",
          "type": "address"
        }
      ],
      "name": "isMinter",
      "outputs": [
        {
          "internalType": "bool",
          "name": "",
          "type": "bool"
        }
      ],
      "payable": false,
      "stateMutability": "view",
      "type": "function"
    },
    {
      "constant": false,
      "inputs": [
        {
          "internalType": "address",
          "name": "account",
          "type": "address"
        },
        {
          "internalType": "uint256",
          "name": "amount",
          "type": "uint256"
        }
      ],
      "name": "mint",
      "outputs": [
        {
          "internalType": "bool",
          "name": "",
          "type": "bool"
        }
      ],
      "payable": false,
      "stateMutability": "nonpayable",
      "type": "function"
    },
    {
      "constant": true,
      "inputs": [],
      "name": "parentVCU",
      "outputs": [
        {
          "internalType": "address",
          "name": "",
          "type": "address"
        }
      ],
      "payable": false,
      "stateMutability": "view",
      "type": "function"
    },
    {
      "constant": false,
      "inputs": [],
      "name": "renounceMinter",
      "outputs": [],
      "payable": false,
      "stateMutability": "nonpayable",
      "type": "function"
    },
    {
      "constant": true,
      "inputs": [],
      "name": "transferEnabled",
      "outputs": [
        {
          "internalType": "bool",
          "name": "",
          "type": "bool"
        }
      ],
      "payable": false,
      "stateMutability": "view",
      "type": "function"
    },
    {
      "constant": true,
      "inputs": [],
      "name": "vcuOwner",
      "outputs": [
        {
          "internalType": "address",
          "name": "",
          "type": "address"
        }
      ],
      "payable": false,
      "stateMutability": "view",
      "type": "function"
    },
    {
      "constant": false,
      "inputs": [
        {
          "internalType": "address",
          "name": "_vcuOwner",
          "type": "address"
        },
        {
          "internalType": "address",
          "name": "_parentVCU",
          "type": "address"
        },
        {
          "internalType": "address",
          "name": "_creolSuper",
          "type": "address"
        },
        {
          "internalType": "string",
          "name": "_VCUTokenName",
          "type": "string"
        },
        {
          "internalType": "string",
          "name": "_VCUTokenSymbol",
          "type": "string"
        },
        {
          "internalType": "uint8",
          "name": "decimals",
          "type": "uint8"
        },
        {
          "internalType": "uint256",
          "name": "_cap",
          "type": "uint256"
        }
      ],
      "name": "initialize",
      "outputs": [],
      "payable": false,
      "stateMutability": "nonpayable",
      "type": "function"
    },
    {
      "constant": false,
      "inputs": [
        {
          "internalType": "address",
          "name": "sender",
          "type": "address"
        }
      ],
      "name": "initialize",
      "outputs": [],
      "payable": false,
      "stateMutability": "nonpayable",
      "type": "function"
    },
    {
      "constant": true,
      "inputs": [],
      "name": "name",
      "outputs": [
        {
          "internalType": "string",
          "name": "",
          "type": "string"
        }
      ],
      "payable": false,
      "stateMutability": "view",
      "type": "function"
    },
    {
      "constant": true,
      "inputs": [],
      "name": "symbol",
      "outputs": [
        {
          "internalType": "string",
          "name": "",
          "type": "string"
        }
      ],
      "payable": false,
      "stateMutability": "view",
      "type": "function"
    },
    {
      "constant": true,
      "inputs": [],
      "name": "decimals",
      "outputs": [
        {
          "internalType": "uint8",
          "name": "",
          "type": "uint8"
        }
      ],
      "payable": false,
      "stateMutability": "view",
      "type": "function"
    },
    {
      "constant": false,
      "inputs": [
        {
          "internalType": "bool",
          "name": "enable",
          "type": "bool"
        }
      ],
      "name": "setTransferEnabled",
      "outputs": [],
      "payable": false,
      "stateMutability": "nonpayable",
      "type": "function"
    },
    {
      "constant": false,
      "inputs": [
        {
          "internalType": "address",
          "name": "recipient",
          "type": "address"
        },
        {
          "internalType": "uint256",
          "name": "amount",
          "type": "uint256"
        }
      ],
      "name": "transfer",
      "outputs": [
        {
          "internalType": "bool",
          "name": "",
          "type": "bool"
        }
      ],
      "payable": false,
      "stateMutability": "nonpayable",
      "type": "function"
    },
    {
      "constant": false,
      "inputs": [
        {
          "internalType": "address",
          "name": "sender",
          "type": "address"
        },
        {
          "internalType": "address",
          "name": "recipient",
          "type": "address"
        },
        {
          "internalType": "uint256",
          "name": "amount",
          "type": "uint256"
        }
      ],
      "name": "transferFrom",
      "outputs": [
        {
          "internalType": "bool",
          "name": "",
          "type": "bool"
        }
      ],
      "payable": false,
      "stateMutability": "nonpayable",
      "type": "function"
    },
    {
      "constant": false,
      "inputs": [
        {
          "internalType": "uint256",
          "name": "value",
          "type": "uint256"
        }
      ],
      "name": "burn",
      "outputs": [],
      "payable": false,
      "stateMutability": "nonpayable",
      "type": "function"
    },
    {
      "constant": false,
      "inputs": [
        {
          "internalType": "address",
          "name": "from",
          "type": "address"
        },
        {
          "internalType": "uint256",
          "name": "value",
          "type": "uint256"
        }
      ],
      "name": "burnFrom",
      "outputs": [],
      "payable": false,
      "stateMutability": "nonpayable",
      "type": "function"
    },
    {
      "constant": true,
      "inputs": [],
      "name": "totalSupply",
      "outputs": [
        {
          "internalType": "uint256",
          "name": "",
          "type": "uint256"
        }
      ],
      "payable": false,
      "stateMutability": "view",
      "type": "function"
    },
    {
      "constant": true,
      "inputs": [
        {
          "internalType": "address",
          "name": "who",
          "type": "address"
        }
      ],
      "name": "balanceOf",
      "outputs": [
        {
          "internalType": "uint256",
          "name": "",
          "type": "uint256"
        }
      ],
      "payable": false,
      "stateMutability": "view",
      "type": "function"
    },
    {
      "constant": false,
      "inputs": [
        {
          "internalType": "address",
          "name": "spender",
          "type": "address"
        },
        {
          "internalType": "uint256",
          "name": "value",
          "type": "uint256"
        }
      ],
      "name": "approve",
      "outputs": [
        {
          "internalType": "bool",
          "name": "",
          "type": "bool"
        }
      ],
      "payable": false,
      "stateMutability": "nonpayable",
      "type": "function"
    },
    {
      "constant": true,
      "inputs": [
        {
          "internalType": "address",
          "name": "owner",
          "type": "address"
        },
        {
          "internalType": "address",
          "name": "spender",
          "type": "address"
        }
      ],
      "name": "allowance",
      "outputs": [
        {
          "internalType": "uint256",
          "name": "",
          "type": "uint256"
        }
      ],
      "payable": false,
      "stateMutability": "view",
      "type": "function"
    },
    {
      "constant": false,
      "inputs": [
        {
          "internalType": "address",
          "name": "spender",
          "type": "address"
        },
        {
          "internalType": "uint256",
          "name": "addedValue",
          "type": "uint256"
        }
      ],
      "name": "increaseAllowance",
      "outputs": [
        {
          "internalType": "bool",
          "name": "",
          "type": "bool"
        }
      ],
      "payable": false,
      "stateMutability": "nonpayable",
      "type": "function"
    },
    {
      "constant": false,
      "inputs": [
        {
          "internalType": "address",
          "name": "spender",
          "type": "address"
        },
        {
          "internalType": "uint256",
          "name": "subtractedValue",
          "type": "uint256"
        }
      ],
      "name": "decreaseAllowance",
      "outputs": [
        {
          "internalType": "bool",
          "name": "",
          "type": "bool"
        }
      ],
      "payable": false,
      "stateMutability": "nonpayable",
      "type": "function"
    }
  ],
  "bytecode": "0x608060405234801561001057600080fd5b50611822806100206000396000f3fe608060405234801561001057600080fd5b50600436106101985760003560e01c806361b8df54116100e35780639fe9f6231161008c578063aa271e1a11610066578063aa271e1a146105d0578063c4d66de8146105f6578063dd62ed3e1461061c57610198565b80639fe9f62314610559578063a457c2d714610578578063a9059cbb146105a457610198565b806395d89b41116100bd57806395d89b4114610523578063983b2d561461052b578063986502751461055157610198565b806361b8df54146104c957806370a08231146104d157806379cc6790146104f757610198565b806339509351116101455780634cd412d51161011f5780634cd412d51461036357806358178e561461036b5780636091636b1461037357610198565b806339509351146102ec57806340c10f191461031857806342966c681461034457610198565b806323b872dd1161017657806323b872dd14610274578063313ce567146102aa57806337800b22146102c857610198565b806306fdde031461019d578063095ea7b31461021a57806318160ddd1461025a575b600080fd5b6101a561064a565b6040805160208082528351818301528351919283929083019185019080838360005b838110156101df5781810151838201526020016101c7565b50505050905090810190601f16801561020c5780820380516001836020036101000a031916815260200191505b509250505060405180910390f35b6102466004803603604081101561023057600080fd5b506001600160a01b0381351690602001356106e2565b604080519115158252519081900360200190f35b6102626106f8565b60408051918252519081900360200190f35b6102466004803603606081101561028a57600080fd5b506001600160a01b03813581169160208101359091169060400135610707565b6102b2610742565b6040805160ff9092168252519081900360200190f35b6102d061074c565b604080516001600160a01b039092168252519081900360200190f35b6102466004803603604081101561030257600080fd5b506001600160a01b03813516906020013561075c565b6102466004803603604081101561032e57600080fd5b506001600160a01b03813516906020013561076f565b6103616004803603602081101561035a57600080fd5b50356107cf565b005b6102466107dc565b6102d06107ed565b610361600480360360e081101561038957600080fd5b6001600160a01b03823581169260208101358216926040820135909216918101906080810160608201356401000000008111156103c557600080fd5b8201836020820111156103d757600080fd5b803590602001918460018302840111640100000000831117156103f957600080fd5b91908080601f016020809104026020016040519081016040528093929190818152602001838380828437600092019190915250929594936020810193503591505064010000000081111561044c57600080fd5b82018360208201111561045e57600080fd5b8035906020019184600183028401116401000000008311171561048057600080fd5b91908080601f0160208091040260200160405190810160405280939291908181526020018383808284376000920191909152509295505060ff83351693505050602001356107fd565b6102d0610987565b610262600480360360208110156104e757600080fd5b50356001600160a01b0316610996565b6103616004803603604081101561050d57600080fd5b506001600160a01b0381351690602001356109a7565b6101a56109b5565b6103616004803603602081101561054157600080fd5b50356001600160a01b0316610a17565b610361610a66565b6103616004803603602081101561056f57600080fd5b50351515610a78565b6102466004803603604081101561058e57600080fd5b506001600160a01b038135169060200135610aca565b610246600480360360408110156105ba57600080fd5b506001600160a01b038135169060200135610ad6565b610246600480360360208110156105e657600080fd5b50356001600160a01b0316610b11565b6103616004803603602081101561060c57600080fd5b50356001600160a01b0316610b24565b6102626004803603604081101561063257600080fd5b506001600160a01b0381358116916020013516610bcf565b6101028054604080516020601f60026000196101006001881615020190951694909404938401819004810282018101909252828152606093909290918301828280156106d75780601f106106ac576101008083540402835291602001916106d7565b820191906000526020600020905b8154815290600101906020018083116106ba57829003601f168201915b505050505090505b90565b60006106ee8383610bdb565b5060019392505050565b6000610702610bef565b905090565b61010154600090600160a01b900460ff168061072e5750610100546001600160a01b031633145b61073757600080fd5b6106ee848484610bf5565b6101045460ff1690565b610100546001600160a01b031681565b60006107688383610d53565b9392505050565b600061078161077c610dac565b610b11565b6107bc5760405162461bcd60e51b815260040180806020018281038252603081526020018061169a6030913960400191505060405180910390fd5b6107c68383610db0565b50600192915050565b6107d93382610ea2565b50565b61010154600160a01b900460ff1681565b610101546001600160a01b031681565b600054610100900460ff16806108165750610816610f9e565b80610824575060005460ff16155b61085f5760405162461bcd60e51b815260040180806020018281038252602e81526020018061170d602e913960400191505060405180910390fd5b600054610100900460ff1615801561088a576000805460ff1961ff0019909116610100171660011790555b61089333610b24565b61010180546001600160a01b03808b167fffffffffffffffffffffffff000000000000000000000000000000000000000092831617909255610100805489841690831617905560ff8054928a169290911691909117905584516108fe90610102906020880190611574565b50835161091390610103906020870190611574565b50610104805460ff191660ff851617905561092d86610a17565b610937878361076f565b506040805130815290517f7e4c7d09d5227fd43b569d01155b24d31fa1c51bec657a2789269fae41304c009181900360200190a1801561097d576000805461ff00191690555b5050505050505050565b60ff546001600160a01b031681565b60006109a182610fa4565b92915050565b6109b18282610fbf565b5050565b6101038054604080516020601f60026000196101006001881615020190951694909404938401819004810282018101909252828152606093909290918301828280156106d75780601f106106ac576101008083540402835291602001916106d7565b610a2261077c610dac565b610a5d5760405162461bcd60e51b815260040180806020018281038252603081526020018061169a6030913960400191505060405180910390fd5b6107d98161103a565b610a76610a71610dac565b611082565b565b610100546001600160a01b03163314610a9057600080fd5b6101018054911515600160a01b027fffffffffffffffffffffff00ffffffffffffffffffffffffffffffffffffffff909216919091179055565b600061076883836110ca565b61010154600090600160a01b900460ff1680610afd5750610100546001600160a01b031633145b610b0657600080fd5b6107c6338484610bf5565b60006109a1609a8363ffffffff61113816565b600054610100900460ff1680610b3d5750610b3d610f9e565b80610b4b575060005460ff16155b610b865760405162461bcd60e51b815260040180806020018281038252602e81526020018061170d602e913960400191505060405180910390fd5b600054610100900460ff16158015610bb1576000805460ff1961ff0019909116610100171660011790555b610bba8261119f565b80156109b1576000805461ff00191690555050565b60006107688383611242565b60006107c6610be8610dac565b848461126d565b60355490565b6001600160a01b038316610c3a5760405162461bcd60e51b81526004018080602001828103825260258152602001806117806025913960400191505060405180910390fd5b6001600160a01b038216610c7f5760405162461bcd60e51b815260040180806020018281038252602381526020018061160d6023913960400191505060405180910390fd5b610cc281604051806060016040528060268152602001611674602691396001600160a01b038616600090815260336020526040902054919063ffffffff61135916565b6001600160a01b038085166000908152603360205260408082209390935590841681522054610cf7908263ffffffff6113f016565b6001600160a01b0380841660008181526033602090815260409182902094909455805185815290519193928716927fddf252ad1be2c89b69c2b068fc378daa952ba7f163c4a11628f55a4df523b3ef92918290030190a3505050565b60006107c6610d60610dac565b84610da78560346000610d71610dac565b6001600160a01b03908116825260208083019390935260409182016000908120918c16815292529020549063ffffffff6113f016565b61126d565b3390565b6001600160a01b038216610e0b576040805162461bcd60e51b815260206004820152601f60248201527f45524332303a206d696e7420746f20746865207a65726f206164647265737300604482015290519081900360640190fd5b603554610e1e908263ffffffff6113f016565b6035556001600160a01b038216600090815260336020526040902054610e4a908263ffffffff6113f016565b6001600160a01b03831660008181526033602090815260408083209490945583518581529351929391927fddf252ad1be2c89b69c2b068fc378daa952ba7f163c4a11628f55a4df523b3ef9281900390910190a35050565b6001600160a01b038216610ee75760405162461bcd60e51b815260040180806020018281038252602181526020018061175f6021913960400191505060405180910390fd5b610f2a81604051806060016040528060228152602001611630602291396001600160a01b038516600090815260336020526040902054919063ffffffff61135916565b6001600160a01b038316600090815260336020526040902055603554610f56908263ffffffff61144a16565b6035556040805182815290516000916001600160a01b038516917fddf252ad1be2c89b69c2b068fc378daa952ba7f163c4a11628f55a4df523b3ef9181900360200190a35050565b303b1590565b6001600160a01b031660009081526033602052604090205490565b610fc98282610ea2565b6109b182610fd5610dac565b610da78460405180606001604052806024815260200161173b602491396001600160a01b038816600090815260346020526040812090611013610dac565b6001600160a01b03168152602081019190915260400160002054919063ffffffff61135916565b61104b609a8263ffffffff61148c16565b6040516001600160a01b038216907f6ae172837ea30b801fbfcdd4108aa1d5bf8ff775444fd70256b44e6bf3dfc3f690600090a250565b611093609a8263ffffffff61150d16565b6040516001600160a01b038216907fe94479a9f7e1952cc78f2d6baab678adc1b772d936c6583def489e524cb6669290600090a250565b60006107c66110d7610dac565b84610da7856040518060600160405280602581526020016117c96025913960346000611101610dac565b6001600160a01b03908116825260208083019390935260409182016000908120918d1681529252902054919063ffffffff61135916565b60006001600160a01b03821661117f5760405162461bcd60e51b81526004018080602001828103825260228152602001806116eb6022913960400191505060405180910390fd5b506001600160a01b03166000908152602091909152604090205460ff1690565b600054610100900460ff16806111b857506111b8610f9e565b806111c6575060005460ff16155b6112015760405162461bcd60e51b815260040180806020018281038252602e81526020018061170d602e913960400191505060405180910390fd5b600054610100900460ff1615801561122c576000805460ff1961ff0019909116610100171660011790555b61123582610b11565b610bba57610bba8261103a565b6001600160a01b03918216600090815260346020908152604080832093909416825291909152205490565b6001600160a01b0383166112b25760405162461bcd60e51b81526004018080602001828103825260248152602001806117a56024913960400191505060405180910390fd5b6001600160a01b0382166112f75760405162461bcd60e51b81526004018080602001828103825260228152602001806116526022913960400191505060405180910390fd5b6001600160a01b03808416600081815260346020908152604080832094871680845294825291829020859055815185815291517f8c5be1e5ebec7d5bd14f71427d1e84f3dd0314c0f7b2291e5b200ac8c7c3b9259281900390910190a3505050565b600081848411156113e85760405162461bcd60e51b81526004018080602001828103825283818151815260200191508051906020019080838360005b838110156113ad578181015183820152602001611395565b50505050905090810190601f1680156113da5780820380516001836020036101000a031916815260200191505b509250505060405180910390fd5b505050900390565b600082820183811015610768576040805162461bcd60e51b815260206004820152601b60248201527f536166654d6174683a206164646974696f6e206f766572666c6f770000000000604482015290519081900360640190fd5b600061076883836040518060400160405280601e81526020017f536166654d6174683a207375627472616374696f6e206f766572666c6f770000815250611359565b6114968282611138565b156114e8576040805162461bcd60e51b815260206004820152601f60248201527f526f6c65733a206163636f756e7420616c72656164792068617320726f6c6500604482015290519081900360640190fd5b6001600160a01b0316600090815260209190915260409020805460ff19166001179055565b6115178282611138565b6115525760405162461bcd60e51b81526004018080602001828103825260218152602001806116ca6021913960400191505060405180910390fd5b6001600160a01b0316600090815260209190915260409020805460ff19169055565b828054600181600116156101000203166002900490600052602060002090601f016020900481019282601f106115b557805160ff19168380011785556115e2565b828001600101855582156115e2579182015b828111156115e25782518255916020019190600101906115c7565b506115ee9291506115f2565b5090565b6106df91905b808211156115ee57600081556001016115f856fe45524332303a207472616e7366657220746f20746865207a65726f206164647265737345524332303a206275726e20616d6f756e7420657863656564732062616c616e636545524332303a20617070726f766520746f20746865207a65726f206164647265737345524332303a207472616e7366657220616d6f756e7420657863656564732062616c616e63654d696e746572526f6c653a2063616c6c657220646f6573206e6f74206861766520746865204d696e74657220726f6c65526f6c65733a206163636f756e7420646f6573206e6f74206861766520726f6c65526f6c65733a206163636f756e7420697320746865207a65726f2061646472657373436f6e747261637420696e7374616e63652068617320616c7265616479206265656e20696e697469616c697a656445524332303a206275726e20616d6f756e74206578636565647320616c6c6f77616e636545524332303a206275726e2066726f6d20746865207a65726f206164647265737345524332303a207472616e736665722066726f6d20746865207a65726f206164647265737345524332303a20617070726f76652066726f6d20746865207a65726f206164647265737345524332303a2064656372656173656420616c6c6f77616e63652062656c6f77207a65726fa265627a7a723158208176f03ceca78ace4efd33de80acf0120cfd9e9b26bb9134c10658c4b74bd05264736f6c63430005100032",
  "source": "/*\r\n  @title VCUSubToken v0.1.4\r\n ________  ________  _______   ________  ___          \r\n|\\   ____\\|\\   __  \\|\\  ___ \\ |\\   __  \\|\\  \\         \r\n\\ \\  \\___|\\ \\  \\|\\  \\ \\   __/|\\ \\  \\|\\  \\ \\  \\        \r\n \\ \\  \\    \\ \\   _  _\\ \\  \\_|/_\\ \\  \\\\\\  \\ \\  \\       \r\n  \\ \\  \\____\\ \\  \\\\  \\\\ \\  \\_|\\ \\ \\  \\\\\\  \\ \\  \\____  \r\n   \\ \\_______\\ \\__\\\\ _\\\\ \\_______\\ \\_______\\ \\_______\\\r\n    \\|_______|\\|__|\\|__|\\|_______|\\|_______|\\|_______|\r\n                                             \r\n\r\n __      _______ _    _  _____       _  _______    _              \r\n \\ \\    / / ____| |  | |/ ____|     | ||__   __|  | |             \r\n  \\ \\  / / |    | |  | | (___  _   _| |__ | | ___ | | _____ _ __  \r\n   \\ \\/ /| |    | |  | |\\___ \\| | | | '_ \\| |/ _ \\| |/ / _ \\ '_ \\ \r\n    \\  / | |____| |__| |____) | |_| | |_) | | (_) |   <  __/ | | |\r\n     \\/   \\_____|\\____/|_____/ \\__,_|_.__/|_|\\___/|_|\\_\\___|_| |_|\r\n                                                                  \r\n                                                                 \r\n    Date:        September 09, 2019                    \r\n\r\n              \r\n  ___                            _       \r\n|_ _|_ __ ___  _ __   ___  _ __| |_ ___ \r\n | || '_ ` _ \\| '_ \\ / _ \\| '__| __/ __|\r\n | || | | | | | |_) | (_) | |  | |_\\__ \\\r\n|___|_| |_| |_| .__/ \\___/|_|   \\__|___/\r\n              |_|                       \r\n\r\n*/\r\npragma solidity ^0.5.0;\r\n\r\nimport \"@openzeppelin/upgrades/contracts/Initializable.sol\";\r\n\r\nimport \"@openzeppelin/contracts-ethereum-package/contracts/ownership/Ownable.sol\";\r\n\r\nimport \"@openzeppelin/contracts-ethereum-package/contracts/math/SafeMath.sol\";\r\n\r\nimport \"@openzeppelin/contracts-ethereum-package/contracts/token/ERC20/ERC20Detailed.sol\";\r\nimport \"@openzeppelin/contracts-ethereum-package/contracts/token/ERC20/ERC20Burnable.sol\";\r\nimport \"@openzeppelin/contracts-ethereum-package/contracts/token/ERC20/ERC20Capped.sol\";\r\nimport \"@openzeppelin/contracts-ethereum-package/contracts/token/ERC20/ERC20Mintable.sol\";\r\nimport \"@openzeppelin/contracts-ethereum-package/contracts/token/ERC20/ERC20.sol\";\r\n\r\nimport \"./VCUSubTokenInterface.sol\";\r\n/*\r\n  _____            _                  _   \r\n / ____|          | |                | |  \r\n| |     ___  _ __ | |_ _ __ __ _  ___| |_ \r\n| |    / _ \\| '_ \\| __| '__/ _` |/ __| __|\r\n| |___| (_) | | | | |_| | | (_| | (__| |_ \r\n \\_____\\___/|_| |_|\\__|_|  \\__,_|\\___|\\__|\r\n\r\n*/\r\n/**\r\n@author Joshua Bijak\r\n@title Tokenized NFT Prototype\r\n@notice Contract that Tokenizes NFTs\r\n@dev Subtoken is deployed by the parent NFT\r\n*/\r\ncontract VCUSubToken is VCUSubTokenInterface, Initializable, ERC20, ERC20Burnable, ERC20Mintable {\r\n    \r\n      /**\r\n     * \r\n     *    _____ _        _   _          \r\n         / ____| |      | | (_)         \r\n        | (___ | |_ __ _| |_ _  ___ ___ \r\n         \\___ \\| __/ _` | __| |/ __/ __|\r\n         ____) | || (_| | |_| | (__\\__ \\\r\n        |_____/ \\__\\__,_|\\__|_|\\___|___/\r\n     * \r\n     * \r\n     */\r\n     \r\n    using SafeMath for uint256;\r\n    \r\n    address public parentVCU;\r\n    \r\n    address public creolSuper;\r\n    \r\n    address public vcuOwner;\r\n    \r\n    bool public transferEnabled;\r\n    \r\n    string private _name;\r\n    string private _symbol;\r\n    uint8  private _decimals;\r\n  \r\n    /**\r\n     *   __  __           _ _  __ _               \r\n        |  \\/  |         | (_)/ _(_)              \r\n        | \\  / | ___   __| |_| |_ _  ___ _ __ ___ \r\n        | |\\/| |/ _ \\ / _` | |  _| |/ _ \\ '__/ __|\r\n        | |  | | (_) | (_| | | | | |  __/ |  \\__ \\\r\n        |_|  |_|\\___/ \\__,_|_|_| |_|\\___|_|  |___/\r\n        \r\n    */\r\n    modifier onlyCreolSuper(){\r\n        require(msg.sender == creolSuper);\r\n        _;\r\n    }\r\n    \r\n    \r\n    modifier canTransfer() {\r\n        require( transferEnabled || msg.sender == creolSuper);\r\n        _;\r\n    }\r\n    \r\n         /**\r\n     * \r\n          ______               _       \r\n         |  ____|             | |      \r\n         | |____   _____ _ __ | |_ ___ \r\n         |  __\\ \\ / / _ \\ '_ \\| __/ __|\r\n         | |___\\ V /  __/ | | | |_\\__ \\\r\n         |______\\_/ \\___|_| |_|\\__|___/\r\n                                       \r\n     * \r\n     * \r\n     */\r\n     event newVCUTokenCreated(address VCUToken);\r\n     event Transfer(address indexed from, address indexed to, uint256 value);\r\n     event Approval(address indexed owner, address indexed spender, uint256 value);\r\n     \r\n     /**\r\n      *   ______                _   _                 \r\n         |  ____|              | | (_)                \r\n         | |__ _   _ _ __   ___| |_ _  ___  _ __  ___ \r\n         |  __| | | | '_ \\ / __| __| |/ _ \\| '_ \\/ __|\r\n         | |  | |_| | | | | (__| |_| | (_) | | | \\__ \\\r\n         |_|   \\__,_|_| |_|\\___|\\__|_|\\___/|_| |_|___/\r\n     */\r\n     constructor () public {\r\n         \r\n     }\r\n     /** \r\n      * \r\n      * @notice VCUSubtoken Constructor\r\n      * @dev  -  Constructor for ERC20 Tokenization of VCUs\r\n     * Sets the values for `name`, `symbol`, and `decimals`. All three of\r\n     * these values are immutable: they can only be set once during\r\n     * construction.\r\n     * @param _vcuOwner Address that owns the tokens generated in the subtokenization\r\n     * @param _creolSuper Creol Super User address, currently in use during pilots and testing, will be removed on post-Beta release\r\n     * @param _VCUTokenName Name of the ERC20 subtokenization, inherited from the parent VCU\r\n     * @param _VCUTokenSymbol Symbol of the ERC20 subtokenization, inherited from the parent VCU\r\n     * @param decimals Num decimals for token, default is 18\r\n     * @param _cap Token minting cap to prevent overminting of the token. \r\n     * \r\n     */\r\n     \r\n     function initialize (address _vcuOwner, address _parentVCU, address _creolSuper, string memory _VCUTokenName, string memory _VCUTokenSymbol, uint8 decimals, uint256 _cap) public initializer {\r\n         \r\n\r\n        ERC20Mintable.initialize(msg.sender);\r\n        \r\n        vcuOwner = _vcuOwner;\r\n        creolSuper = _creolSuper;\r\n        parentVCU = _parentVCU;\r\n        \r\n         _name = _VCUTokenName;\r\n        _symbol = _VCUTokenSymbol;\r\n        _decimals = decimals;\r\n        \r\n        // Tokens are originally owned by the VCUO, when the VCU is \"active\", \r\n        // the VCU transfers the tokens to the vcuOwner for offsetting \r\n        addMinter(_creolSuper);\r\n        mint(_parentVCU, _cap);\r\n        \r\n        emit newVCUTokenCreated(address(this));\r\n            \r\n     }\r\n     \r\n    /**\r\n     * @dev Returns the name of the token.\r\n     */\r\n    function name() public view returns (string memory) {\r\n        return _name;\r\n    }\r\n\r\n    /**\r\n     * @dev Returns the symbol of the token, usually a shorter version of the\r\n     * name.\r\n     */\r\n    function symbol() public view returns (string memory) {\r\n        return _symbol;\r\n    }\r\n\r\n    /**\r\n     * @dev Returns the number of decimals used to get its user representation.\r\n     * For example, if `decimals` equals `2`, a balance of `505` tokens should\r\n     * be displayed to a user as `5,05` (`505 / 10 ** 2`).\r\n     *\r\n     * Tokens usually opt for a value of 18, imitating the relationship between\r\n     * Ether and Wei.\r\n     *\r\n     * > Note that this information is only used for _display_ purposes: it in\r\n     * no way affects any of the arithmetic of the contract, including\r\n     * `IERC20.balanceOf` and `IERC20.transfer`.\r\n     */\r\n    function decimals() public view returns (uint8) {\r\n        return _decimals;\r\n    }\r\n    \r\n    \r\n    /**\r\n     * @dev Enables transfers of the tokens to other parties other than owner.\r\n     * \r\n     */\r\n     function setTransferEnabled(bool enable) onlyCreolSuper public {\r\n        transferEnabled = enable;\r\n    }\r\n     /**\r\n     * @dev See `IERC20.transfer`.\r\n     *\r\n     * Requirements:\r\n     *\r\n     * - `recipient` cannot be the zero address.\r\n     * - the caller must have a balance of at least `amount`.\r\n     * - transferEnabled must be true\r\n     */\r\n    function transfer(address recipient, uint256 amount) canTransfer public returns (bool) {\r\n        super._transfer(msg.sender, recipient, amount);\r\n        return true;\r\n    }\r\n    \r\n    /**\r\n     * @dev See `IERC20.transferFrom`.\r\n     *\r\n     * Emits an `Approval` event indicating the updated allowance. This is not\r\n     * required by the EIP. See the note at the beginning of `ERC20`;\r\n     *\r\n     * Requirements:\r\n     * - `sender` and `recipient` cannot be the zero address.\r\n     * - `sender` must have a balance of at least `value`.\r\n     * - the caller must have allowance for `sender`'s tokens of at least\r\n     * `amount`.\r\n     * \r\n     * - transferEnabled must be true\r\n     */\r\n    function transferFrom(address sender, address recipient, uint256 amount) canTransfer public returns (bool) {\r\n        super._transfer(sender, recipient, amount);\r\n        //_approve(sender, msg.sender, _allowances[sender][msg.sender].sub(amount));\r\n        return true;\r\n    }\r\n    \r\n    /**\r\n     * @dev Burns a specific amount of tokens.\r\n     * @param value The amount of token to be burned.\r\n     */\r\n    function burn(uint256 value) public {\r\n        super._burn(msg.sender, value);\r\n    }\r\n\r\n    /**\r\n     * @dev Burns a specific amount of tokens from the target address and decrements allowance\r\n     * @param from address The address which you want to send tokens from\r\n     * @param value uint256 The amount of token to be burned\r\n     */\r\n    function burnFrom(address from, uint256 value) public {\r\n        super._burnFrom(from, value);\r\n    }\r\n    \r\n    \r\n    \r\n   \r\n\r\n    function totalSupply() public view returns (uint256){\r\n        return super.totalSupply();\r\n    }\r\n    \r\n\r\n    function balanceOf(address who) public view returns (uint256){\r\n        return super.balanceOf(who);\r\n    }\r\n    \r\n     function approve(address spender, uint256 value) public returns (bool){\r\n        super.approve(spender,value);\r\n        return true;\r\n    }\r\n\r\n    function allowance(address owner, address spender) public view returns (uint256){\r\n        return super.allowance(owner,spender);\r\n    }\r\n    \r\n    function increaseAllowance(address spender, uint256 addedValue) public returns (bool){\r\n        return super.increaseAllowance(spender,addedValue);\r\n    }\r\n\r\n    function decreaseAllowance(address spender, uint256 subtractedValue) public returns (bool){\r\n        return super.decreaseAllowance(spender,subtractedValue);\r\n    }\r\n    \r\n    \r\n/**\r\n * \r\n * \r\n *   _                      _ \r\n    | |                    | |\r\n    | |     ___  __ _  __ _| |\r\n    | |    / _ \\/ _` |/ _` | |\r\n    | |___|  __/ (_| | (_| | |\r\n    |______\\___|\\__, |\\__,_|_|\r\n                 __/ |        \r\n                |___/    \r\n * \r\n * They come with no warranty and are not for use in a production setting. For production usage, please contact joshua.bijak@creol.io\r\n * \r\n */\r\n }",
  "sourcePath": "contracts/VCUSubToken/VCUSubToken.sol",
  "compiler": {
    "name": "solc",
    "version": "0.5.16+commit.9c3226ce.Emscripten.clang"
  },
  "schemaVersion": "3.2.2",
  "updatedAt": "2020-08-17T13:56:44.396Z",
  "devdoc": {
    "author": "Joshua Bijak",
    "details": "Subtoken is deployed by the parent NFT",
    "methods": {
      "burn(uint256)": {
        "details": "Burns a specific amount of tokens.",
        "params": {
          "value": "The amount of token to be burned."
        }
      },
      "burnFrom(address,uint256)": {
        "details": "Burns a specific amount of tokens from the target address and decrements allowance",
        "params": {
          "from": "address The address which you want to send tokens from",
          "value": "uint256 The amount of token to be burned"
        }
      },
      "decimals()": {
        "details": "Returns the number of decimals used to get its user representation. For example, if `decimals` equals `2`, a balance of `505` tokens should be displayed to a user as `5,05` (`505 / 10 ** 2`).      * Tokens usually opt for a value of 18, imitating the relationship between Ether and Wei.      * > Note that this information is only used for _display_ purposes: it in no way affects any of the arithmetic of the contract, including `IERC20.balanceOf` and `IERC20.transfer`."
      },
      "initialize(address,address,address,string,string,uint8,uint256)": {
        "details": "-  Constructor for ERC20 Tokenization of VCUs Sets the values for `name`, `symbol`, and `decimals`. All three of these values are immutable: they can only be set once during construction.",
        "params": {
          "_VCUTokenName": "Name of the ERC20 subtokenization, inherited from the parent VCU",
          "_VCUTokenSymbol": "Symbol of the ERC20 subtokenization, inherited from the parent VCU",
          "_cap": "Token minting cap to prevent overminting of the token.  \r",
          "_creolSuper": "Creol Super User address, currently in use during pilots and testing, will be removed on post-Beta release",
          "_vcuOwner": "Address that owns the tokens generated in the subtokenization",
          "decimals": "Num decimals for token, default is 18"
        }
      },
      "mint(address,uint256)": {
        "details": "See {ERC20-_mint}.     * Requirements:     * - the caller must have the {MinterRole}."
      },
      "name()": {
        "details": "Returns the name of the token."
      },
      "setTransferEnabled(bool)": {
        "details": "Enables transfers of the tokens to other parties other than owner. \r"
      },
      "symbol()": {
        "details": "Returns the symbol of the token, usually a shorter version of the name."
      },
      "transfer(address,uint256)": {
        "details": "See `IERC20.transfer`.      * Requirements:      * - `recipient` cannot be the zero address. - the caller must have a balance of at least `amount`. - transferEnabled must be true"
      },
      "transferFrom(address,address,uint256)": {
        "details": "See `IERC20.transferFrom`.      * Emits an `Approval` event indicating the updated allowance. This is not required by the EIP. See the note at the beginning of `ERC20`;      * Requirements: - `sender` and `recipient` cannot be the zero address. - `sender` must have a balance of at least `value`. - the caller must have allowance for `sender`'s tokens of at least `amount`. \r - transferEnabled must be true"
      }
    },
    "title": "Tokenized NFT Prototype"
  },
  "userdoc": {
    "methods": {
      "constructor": "______                _   _                  |  ____|              | | (_)                 | |__ _   _ _ __   ___| |_ _  ___  _ __  ___  |  __| | | | '_ \\ / __| __| |/ _ \\| '_ \\/ __| | |  | |_| | | | | (__| |_| | (_) | | | \\__ \\ |_|   \\__,_|_| |_|\\___|\\__|_|\\___/|_| |_|___/",
      "initialize(address,address,address,string,string,uint8,uint256)": {
        "notice": "\rVCUSubtoken Constructor"
      }
    },
    "notice": "Contract that Tokenizes NFTs"
  }
}